{
  "_format": "hh-sol-artifact-1",
  "contractName": "IInterpreterCallerConsumer",
  "sourceName": "contracts/test/interpreter/runtime/IInterpreterCallerConsumer.sol",
  "abi": [
    {
      "inputs": [
        {
          "internalType": "bytes",
          "name": "meta_",
          "type": "bytes"
        },
        {
          "components": [
            {
              "internalType": "address",
              "name": "deployer",
              "type": "address"
            },
            {
              "internalType": "bytes",
              "name": "meta",
              "type": "bytes"
            }
          ],
          "internalType": "struct DeployerDiscoverableMetaV1ConstructionConfig",
          "name": "config_",
          "type": "tuple"
        }
      ],
      "stateMutability": "nonpayable",
      "type": "constructor"
    },
    {
      "inputs": [
        {
          "internalType": "bytes",
          "name": "unmeta",
          "type": "bytes"
        }
      ],
      "name": "NotRainMetaV1",
      "type": "error"
    },
    {
      "inputs": [
        {
          "internalType": "bytes32",
          "name": "expectedHash",
          "type": "bytes32"
        },
        {
          "internalType": "bytes32",
          "name": "actualHash",
          "type": "bytes32"
        }
      ],
      "name": "UnexpectedMetaHash",
      "type": "error"
    },
    {
      "anonymous": false,
      "inputs": [
        {
          "indexed": false,
          "internalType": "address",
          "name": "sender",
          "type": "address"
        },
        {
          "indexed": false,
          "internalType": "uint256",
          "name": "subject",
          "type": "uint256"
        },
        {
          "indexed": false,
          "internalType": "bytes",
          "name": "meta",
          "type": "bytes"
        }
      ],
      "name": "MetaV1",
      "type": "event"
    },
    {
      "inputs": [
        {
          "internalType": "bytes",
          "name": "meta_",
          "type": "bytes"
        }
      ],
      "name": "checkIsRainMetaV1",
      "outputs": [
        {
          "internalType": "bool",
          "name": "",
          "type": "bool"
        }
      ],
      "stateMutability": "pure",
      "type": "function"
    },
    {
      "inputs": [
        {
          "internalType": "bytes",
          "name": "expectedHash_",
          "type": "bytes"
        },
        {
          "internalType": "bytes",
          "name": "meta_",
          "type": "bytes"
        }
      ],
      "name": "checkMeta",
      "outputs": [
        {
          "internalType": "bool",
          "name": "",
          "type": "bool"
        }
      ],
      "stateMutability": "pure",
      "type": "function"
    },
    {
      "inputs": [
        {
          "internalType": "address",
          "name": "deployer_",
          "type": "address"
        }
      ],
      "name": "deployTouchExpression",
      "outputs": [],
      "stateMutability": "nonpayable",
      "type": "function"
    }
  ],
  "bytecode": "0x60806040523480156200001157600080fd5b5060405162000b8638038062000b868339810160408190526200003491620002f9565b81805190602001208162000053828260200151620000ab60201b60201c565b60208101516040517fbea766d03fa1efd3f81cc8634d08320bc62bb0ed9234ac59bbaafa5893fb6b13916200008c9133913091620003f1565b60405180910390a18051620000a190620000f2565b5050505062000559565b80516020820120828114620000e25760405163074fe10f60e41b815260048101849052602481018290526044015b60405180910390fd5b620000ed82620001b6565b505050565b604080516000808252602082019092526001600160a01b03831691635511cb67919062000130565b60608152602001906001900390816200011a5790505b5060408051600080825260208201908152818301928390526001600160e01b031960e086901b169092526200016a92916044820162000460565b6060604051808303816000875af11580156200018a573d6000803e3d6000fd5b505050506040513d601f19601f82011682018060405250810190620001b09190620004e9565b50505050565b620001c181620001e6565b620001e35780604051630c89984b60e31b8152600401620000d991906200053d565b50565b6000600882511015620001fb57506000919050565b50600801516001600160401b031667ff0a89c674ee78741490565b634e487b7160e01b600052604160045260246000fd5b60005b83811015620002495781810151838201526020016200022f565b50506000910152565b600082601f8301126200026457600080fd5b81516001600160401b038082111562000281576200028162000216565b604051601f8301601f19908116603f01168101908282118183101715620002ac57620002ac62000216565b81604052838152866020858801011115620002c657600080fd5b620002d98460208301602089016200022c565b9695505050505050565b6001600160a01b0381168114620001e357600080fd5b600080604083850312156200030d57600080fd5b82516001600160401b03808211156200032557600080fd5b620003338683870162000252565b935060208501519150808211156200034a57600080fd5b90840190604082870312156200035f57600080fd5b6040516040810181811083821117156200037d576200037d62000216565b60405282516200038d81620002e3565b8152602083015182811115620003a257600080fd5b620003b08882860162000252565b6020830152508093505050509250929050565b60008151808452620003dd8160208601602086016200022c565b601f01601f19169290920160200192915050565b60018060a01b03841681528260208201526060604082015260006200041a6060830184620003c3565b95945050505050565b600081518084526020808501945080840160005b83811015620004555781518752958201959082019060010162000437565b509495945050505050565b6000606082016060835280865180835260808501915060808160051b8601019250602080890160005b83811015620004bb57607f19888703018552620004a8868351620003c3565b9550938201939082019060010162000489565b505085840381870152505050620004d3818662000423565b90508281036040840152620002d9818562000423565b600080600060608486031215620004ff57600080fd5b83516200050c81620002e3565b60208501519093506200051f81620002e3565b60408501519092506200053281620002e3565b809150509250925092565b602081526000620005526020830184620003c3565b9392505050565b61061d80620005696000396000f3fe608060405234801561001057600080fd5b50600436106100415760003560e01c8063a5154e7614610046578063afcd8d511461006d578063b8df113914610082575b600080fd5b610059610054366004610358565b610095565b604051901515815260200160405180910390f35b61008061007b3660046103de565b6100b1565b005b610059610090366004610402565b6100bd565b60006100a88380519060200120836100ce565b50600192915050565b6100ba8161012b565b50565b60006100c88261020d565b92915050565b8051602082012082811461011d576040517f74fe10f000000000000000000000000000000000000000000000000000000000815260048101849052602481018290526044015b60405180910390fd5b6101268261023d565b505050565b6040805160008082526020820190925273ffffffffffffffffffffffffffffffffffffffff831691635511cb679190610174565b606081526020019060019003908161015f5790505b5060408051600080825260208201908152818301928390527fffffffff0000000000000000000000000000000000000000000000000000000060e086901b169092526101c49291604482016104de565b6060604051808303816000875af11580156101e3573d6000803e3d6000fd5b505050506040513d601f19601f820116820180604052508101906102079190610587565b50505050565b600060088251101561022157506000919050565b506008015167ffffffffffffffff1667ff0a89c674ee78741490565b6102468161020d565b6100ba57806040517f644cc25800000000000000000000000000000000000000000000000000000000815260040161011491906105d4565b7f4e487b7100000000000000000000000000000000000000000000000000000000600052604160045260246000fd5b600082601f8301126102be57600080fd5b813567ffffffffffffffff808211156102d9576102d961027e565b604051601f83017fffffffffffffffffffffffffffffffffffffffffffffffffffffffffffffffe0908116603f0116810190828211818310171561031f5761031f61027e565b8160405283815286602085880101111561033857600080fd5b836020870160208301376000602085830101528094505050505092915050565b6000806040838503121561036b57600080fd5b823567ffffffffffffffff8082111561038357600080fd5b61038f868387016102ad565b935060208501359150808211156103a557600080fd5b506103b2858286016102ad565b9150509250929050565b73ffffffffffffffffffffffffffffffffffffffff811681146100ba57600080fd5b6000602082840312156103f057600080fd5b81356103fb816103bc565b9392505050565b60006020828403121561041457600080fd5b813567ffffffffffffffff81111561042b57600080fd5b610437848285016102ad565b949350505050565b6000815180845260005b8181101561046557602081850181015186830182015201610449565b5060006020828601015260207fffffffffffffffffffffffffffffffffffffffffffffffffffffffffffffffe0601f83011685010191505092915050565b600081518084526020808501945080840160005b838110156104d3578151875295820195908201906001016104b7565b509495945050505050565b6000606082016060835280865180835260808501915060808160051b8601019250602080890160005b83811015610553577fffffffffffffffffffffffffffffffffffffffffffffffffffffffffffffff8088870301855261054186835161043f565b95509382019390820190600101610507565b50508584038187015250505061056981866104a3565b9050828103604084015261057d81856104a3565b9695505050505050565b60008060006060848603121561059c57600080fd5b83516105a7816103bc565b60208501519093506105b8816103bc565b60408501519092506105c9816103bc565b809150509250925092565b6020815260006103fb602083018461043f56fea26469706673582212201e81d4a0d6a8e15c4381af87fbed887757552e2cb9f54e49aee87774f411320d64736f6c63430008130033",
  "linkReferences": {},
  "deployedLinkReferences": {}
}