{
  "_format": "hh-sol-artifact-1",
  "contractName": "SeedDanceTest",
  "sourceName": "contracts/test/dance/SeedDance/SeedDanceTest.sol",
  "abi": [
    {
      "anonymous": false,
      "inputs": [
        {
          "indexed": false,
          "internalType": "address",
          "name": "sender",
          "type": "address"
        },
        {
          "indexed": false,
          "internalType": "Commitment",
          "name": "commitment",
          "type": "uint256"
        }
      ],
      "name": "Commit",
      "type": "event"
    },
    {
      "anonymous": false,
      "inputs": [
        {
          "indexed": false,
          "internalType": "address",
          "name": "sender",
          "type": "address"
        },
        {
          "indexed": false,
          "internalType": "Secret",
          "name": "secret",
          "type": "uint256"
        },
        {
          "indexed": false,
          "internalType": "Seed",
          "name": "newSeed",
          "type": "uint256"
        }
      ],
      "name": "Reveal",
      "type": "event"
    },
    {
      "anonymous": false,
      "inputs": [
        {
          "indexed": false,
          "internalType": "address",
          "name": "sender",
          "type": "address"
        },
        {
          "indexed": false,
          "internalType": "Seed",
          "name": "initialSeed",
          "type": "uint256"
        }
      ],
      "name": "Start",
      "type": "event"
    },
    {
      "inputs": [
        {
          "internalType": "Seed",
          "name": "seed_",
          "type": "uint256"
        },
        {
          "internalType": "uint256",
          "name": "start_",
          "type": "uint256"
        },
        {
          "components": [
            {
              "internalType": "uint32",
              "name": "baseDuration",
              "type": "uint32"
            },
            {
              "internalType": "uint32",
              "name": "maxExtraTime",
              "type": "uint32"
            }
          ],
          "internalType": "struct TimeBound",
          "name": "timeBound_",
          "type": "tuple"
        },
        {
          "internalType": "address",
          "name": "owner_",
          "type": "address"
        }
      ],
      "name": "canRevealUntil",
      "outputs": [
        {
          "internalType": "uint256",
          "name": "until_",
          "type": "uint256"
        }
      ],
      "stateMutability": "pure",
      "type": "function"
    },
    {
      "inputs": [
        {
          "internalType": "Commitment",
          "name": "commitment_",
          "type": "uint256"
        }
      ],
      "name": "commit",
      "outputs": [],
      "stateMutability": "nonpayable",
      "type": "function"
    },
    {
      "inputs": [],
      "name": "danceStartedAt",
      "outputs": [
        {
          "internalType": "uint32",
          "name": "",
          "type": "uint32"
        }
      ],
      "stateMutability": "view",
      "type": "function"
    },
    {
      "inputs": [
        {
          "components": [
            {
              "internalType": "uint32",
              "name": "baseDuration",
              "type": "uint32"
            },
            {
              "internalType": "uint32",
              "name": "maxExtraTime",
              "type": "uint32"
            }
          ],
          "internalType": "struct TimeBound",
          "name": "timeBound_",
          "type": "tuple"
        },
        {
          "internalType": "Secret",
          "name": "secret_",
          "type": "uint256"
        }
      ],
      "name": "reveal",
      "outputs": [],
      "stateMutability": "nonpayable",
      "type": "function"
    },
    {
      "inputs": [],
      "name": "sharedSeed",
      "outputs": [
        {
          "internalType": "Seed",
          "name": "",
          "type": "uint256"
        }
      ],
      "stateMutability": "view",
      "type": "function"
    },
    {
      "inputs": [
        {
          "internalType": "Seed",
          "name": "initialSeed_",
          "type": "uint256"
        }
      ],
      "name": "start",
      "outputs": [],
      "stateMutability": "nonpayable",
      "type": "function"
    }
  ],
  "bytecode": "0x608060405234801561001057600080fd5b506106f0806100206000396000f3fe608060405234801561001057600080fd5b50600436106100725760003560e01c806395805dad1161005057806395805dad146100d757806398d4e2e9146100ea578063f4f98ad5146100f357600080fd5b806345302487146100775780637fbc62af1461008c57806394971260146100b2575b600080fd5b61008a6100853660046105e5565b610106565b005b61009f61009a366004610610565b610114565b6040519081526020015b60405180910390f35b6001546100c29063ffffffff1681565b60405163ffffffff90911681526020016100a9565b61008a6100e5366004610672565b610197565b61009f60005481565b61008a610101366004610672565b6101a3565b61011082826101ac565b5050565b82801561018f576000836020015163ffffffff1661016f878573ffffffffffffffffffffffffffffffffffffffff16604080516020808201949094528082019290925280518083038201815260609092019052805191012090565b8161017c5761017c61068b565b855163ffffffff16919006019190910190505b949350505050565b6101a08161033e565b50565b6101a08161042f565b6000546001546101c4919063ffffffff168433610114565b421115610232576040517f08c379a000000000000000000000000000000000000000000000000000000000815260206004820152600b60248201527f43414e545f52455645414c00000000000000000000000000000000000000000060448201526064015b60405180910390fd5b61025261023e826104f6565b336000908152600260205260409020541490565b6102b8576040517f08c379a000000000000000000000000000000000000000000000000000000000815260206004820152600a60248201527f4241445f534543524554000000000000000000000000000000000000000000006044820152606401610229565b3360008181526002602090815260408083208390558254815180840191909152808201869052815180820383018152606082018084528151919094012093849055939091526080830184905260a083018290525190917fbd515cb7fe6810ea1d996c4efb3231c8b281498ca8062a4ec905d41943824bdf919081900360c00190a1505050565b60015463ffffffff16156103bd5760015463ffffffff1642106103bd576040517f08c379a000000000000000000000000000000000000000000000000000000000815260206004820152600760248201527f53544152544544000000000000000000000000000000000000000000000000006044820152606401610229565b600180547fffffffffffffffffffffffffffffffffffffffffffffffffffffffff00000000164263ffffffff16179055600081905560408051338152602081018390527fcfb9c5312b25ec7b809d61e638df25f749eae5d5c25399e1c93d1d319bfd582191015b60405180910390a150565b60015463ffffffff16156104ae5760015463ffffffff1642106104ae576040517f08c379a000000000000000000000000000000000000000000000000000000000815260206004820152600760248201527f53544152544544000000000000000000000000000000000000000000000000006044820152606401610229565b33600081815260026020908152604091829020849055815192835282018390527f5e1dd8c4451717d5ca4ffbefdada35e22e0871220b9ed9dd03a351f0938c5ed79101610424565b60008160405160200161050b91815260200190565b604080517fffffffffffffffffffffffffffffffffffffffffffffffffffffffffffffffe0818403018152919052805160209091012092915050565b803563ffffffff8116811461055b57600080fd5b919050565b60006040828403121561057257600080fd5b6040516040810181811067ffffffffffffffff821117156105bc577f4e487b7100000000000000000000000000000000000000000000000000000000600052604160045260246000fd5b6040529050806105cb83610547565b81526105d960208401610547565b60208201525092915050565b600080606083850312156105f857600080fd5b6106028484610560565b946040939093013593505050565b60008060008060a0858703121561062657600080fd5b843593506020850135925061063e8660408701610560565b9150608085013573ffffffffffffffffffffffffffffffffffffffff8116811461066757600080fd5b939692955090935050565b60006020828403121561068457600080fd5b5035919050565b7f4e487b7100000000000000000000000000000000000000000000000000000000600052601260045260246000fdfea26469706673582212203a6e66dce66333ef3c78c724f4ec2fcccbd37eae8655b25756ffa7a98bb4b25a64736f6c63430008130033",
  "linkReferences": {},
  "deployedLinkReferences": {}
}