{
  "_format": "hh-sol-artifact-1",
  "contractName": "FlowERC721",
  "sourceName": "contracts/flow/erc721/FlowERC721.sol",
  "abi": [
    {
      "inputs": [
        {
          "components": [
            {
              "internalType": "address",
              "name": "deployer",
              "type": "address"
            },
            {
              "internalType": "bytes",
              "name": "meta",
              "type": "bytes"
            }
          ],
          "internalType": "struct DeployerDiscoverableMetaV1ConstructionConfig",
          "name": "config_",
          "type": "tuple"
        }
      ],
      "stateMutability": "nonpayable",
      "type": "constructor"
    },
    {
      "inputs": [
        {
          "internalType": "uint256",
          "name": "flowMinOutputs_",
          "type": "uint256"
        }
      ],
      "name": "BadMinStackLength",
      "type": "error"
    },
    {
      "inputs": [],
      "name": "BurnerNotOwner",
      "type": "error"
    },
    {
      "inputs": [
        {
          "internalType": "uint256",
          "name": "i",
          "type": "uint256"
        }
      ],
      "name": "InvalidSignature",
      "type": "error"
    },
    {
      "inputs": [
        {
          "internalType": "bytes",
          "name": "unmeta",
          "type": "bytes"
        }
      ],
      "name": "NotRainMetaV1",
      "type": "error"
    },
    {
      "inputs": [
        {
          "internalType": "bytes32",
          "name": "expectedHash",
          "type": "bytes32"
        },
        {
          "internalType": "bytes32",
          "name": "actualHash",
          "type": "bytes32"
        }
      ],
      "name": "UnexpectedMetaHash",
      "type": "error"
    },
    {
      "inputs": [
        {
          "internalType": "bytes32",
          "name": "unregisteredHash",
          "type": "bytes32"
        }
      ],
      "name": "UnregisteredFlow",
      "type": "error"
    },
    {
      "inputs": [],
      "name": "UnsupportedERC1155Flow",
      "type": "error"
    },
    {
      "inputs": [],
      "name": "UnsupportedERC20Flow",
      "type": "error"
    },
    {
      "inputs": [],
      "name": "UnsupportedERC721Flow",
      "type": "error"
    },
    {
      "anonymous": false,
      "inputs": [
        {
          "indexed": true,
          "internalType": "address",
          "name": "owner",
          "type": "address"
        },
        {
          "indexed": true,
          "internalType": "address",
          "name": "approved",
          "type": "address"
        },
        {
          "indexed": true,
          "internalType": "uint256",
          "name": "tokenId",
          "type": "uint256"
        }
      ],
      "name": "Approval",
      "type": "event"
    },
    {
      "anonymous": false,
      "inputs": [
        {
          "indexed": true,
          "internalType": "address",
          "name": "owner",
          "type": "address"
        },
        {
          "indexed": true,
          "internalType": "address",
          "name": "operator",
          "type": "address"
        },
        {
          "indexed": false,
          "internalType": "bool",
          "name": "approved",
          "type": "bool"
        }
      ],
      "name": "ApprovalForAll",
      "type": "event"
    },
    {
      "anonymous": false,
      "inputs": [
        {
          "indexed": false,
          "internalType": "address",
          "name": "sender",
          "type": "address"
        },
        {
          "indexed": false,
          "internalType": "uint256[][]",
          "name": "context",
          "type": "uint256[][]"
        }
      ],
      "name": "Context",
      "type": "event"
    },
    {
      "anonymous": false,
      "inputs": [
        {
          "indexed": false,
          "internalType": "address",
          "name": "sender",
          "type": "address"
        },
        {
          "components": [
            {
              "internalType": "contract IInterpreterV1",
              "name": "interpreter",
              "type": "address"
            },
            {
              "internalType": "contract IInterpreterStoreV1",
              "name": "store",
              "type": "address"
            },
            {
              "internalType": "address",
              "name": "expression",
              "type": "address"
            }
          ],
          "indexed": false,
          "internalType": "struct Evaluable",
          "name": "evaluable",
          "type": "tuple"
        }
      ],
      "name": "FlowInitialized",
      "type": "event"
    },
    {
      "anonymous": false,
      "inputs": [
        {
          "indexed": false,
          "internalType": "address",
          "name": "sender",
          "type": "address"
        },
        {
          "components": [
            {
              "internalType": "string",
              "name": "name",
              "type": "string"
            },
            {
              "internalType": "string",
              "name": "symbol",
              "type": "string"
            },
            {
              "internalType": "string",
              "name": "baseURI",
              "type": "string"
            },
            {
              "components": [
                {
                  "internalType": "contract IExpressionDeployerV1",
                  "name": "deployer",
                  "type": "address"
                },
                {
                  "internalType": "bytes[]",
                  "name": "sources",
                  "type": "bytes[]"
                },
                {
                  "internalType": "uint256[]",
                  "name": "constants",
                  "type": "uint256[]"
                }
              ],
              "internalType": "struct EvaluableConfig",
              "name": "evaluableConfig",
              "type": "tuple"
            },
            {
              "components": [
                {
                  "internalType": "contract IExpressionDeployerV1",
                  "name": "deployer",
                  "type": "address"
                },
                {
                  "internalType": "bytes[]",
                  "name": "sources",
                  "type": "bytes[]"
                },
                {
                  "internalType": "uint256[]",
                  "name": "constants",
                  "type": "uint256[]"
                }
              ],
              "internalType": "struct EvaluableConfig[]",
              "name": "flowConfig",
              "type": "tuple[]"
            }
          ],
          "indexed": false,
          "internalType": "struct FlowERC721Config",
          "name": "config",
          "type": "tuple"
        }
      ],
      "name": "Initialize",
      "type": "event"
    },
    {
      "anonymous": false,
      "inputs": [
        {
          "indexed": false,
          "internalType": "uint8",
          "name": "version",
          "type": "uint8"
        }
      ],
      "name": "Initialized",
      "type": "event"
    },
    {
      "anonymous": false,
      "inputs": [
        {
          "indexed": false,
          "internalType": "address",
          "name": "sender",
          "type": "address"
        },
        {
          "indexed": false,
          "internalType": "uint256",
          "name": "subject",
          "type": "uint256"
        },
        {
          "indexed": false,
          "internalType": "bytes",
          "name": "meta",
          "type": "bytes"
        }
      ],
      "name": "MetaV1",
      "type": "event"
    },
    {
      "anonymous": false,
      "inputs": [
        {
          "indexed": true,
          "internalType": "address",
          "name": "from",
          "type": "address"
        },
        {
          "indexed": true,
          "internalType": "address",
          "name": "to",
          "type": "address"
        },
        {
          "indexed": true,
          "internalType": "uint256",
          "name": "tokenId",
          "type": "uint256"
        }
      ],
      "name": "Transfer",
      "type": "event"
    },
    {
      "inputs": [
        {
          "internalType": "address",
          "name": "to",
          "type": "address"
        },
        {
          "internalType": "uint256",
          "name": "tokenId",
          "type": "uint256"
        }
      ],
      "name": "approve",
      "outputs": [],
      "stateMutability": "nonpayable",
      "type": "function"
    },
    {
      "inputs": [
        {
          "internalType": "address",
          "name": "owner",
          "type": "address"
        }
      ],
      "name": "balanceOf",
      "outputs": [
        {
          "internalType": "uint256",
          "name": "",
          "type": "uint256"
        }
      ],
      "stateMutability": "view",
      "type": "function"
    },
    {
      "inputs": [
        {
          "components": [
            {
              "internalType": "contract IInterpreterV1",
              "name": "interpreter",
              "type": "address"
            },
            {
              "internalType": "contract IInterpreterStoreV1",
              "name": "store",
              "type": "address"
            },
            {
              "internalType": "address",
              "name": "expression",
              "type": "address"
            }
          ],
          "internalType": "struct Evaluable",
          "name": "evaluable_",
          "type": "tuple"
        },
        {
          "internalType": "uint256[]",
          "name": "callerContext_",
          "type": "uint256[]"
        },
        {
          "components": [
            {
              "internalType": "address",
              "name": "signer",
              "type": "address"
            },
            {
              "internalType": "uint256[]",
              "name": "context",
              "type": "uint256[]"
            },
            {
              "internalType": "bytes",
              "name": "signature",
              "type": "bytes"
            }
          ],
          "internalType": "struct SignedContextV1[]",
          "name": "signedContexts_",
          "type": "tuple[]"
        }
      ],
      "name": "flow",
      "outputs": [
        {
          "components": [
            {
              "components": [
                {
                  "internalType": "address",
                  "name": "account",
                  "type": "address"
                },
                {
                  "internalType": "uint256",
                  "name": "id",
                  "type": "uint256"
                }
              ],
              "internalType": "struct ERC721SupplyChange[]",
              "name": "mints",
              "type": "tuple[]"
            },
            {
              "components": [
                {
                  "internalType": "address",
                  "name": "account",
                  "type": "address"
                },
                {
                  "internalType": "uint256",
                  "name": "id",
                  "type": "uint256"
                }
              ],
              "internalType": "struct ERC721SupplyChange[]",
              "name": "burns",
              "type": "tuple[]"
            },
            {
              "components": [
                {
                  "components": [
                    {
                      "internalType": "address",
                      "name": "token",
                      "type": "address"
                    },
                    {
                      "internalType": "address",
                      "name": "from",
                      "type": "address"
                    },
                    {
                      "internalType": "address",
                      "name": "to",
                      "type": "address"
                    },
                    {
                      "internalType": "uint256",
                      "name": "amount",
                      "type": "uint256"
                    }
                  ],
                  "internalType": "struct ERC20Transfer[]",
                  "name": "erc20",
                  "type": "tuple[]"
                },
                {
                  "components": [
                    {
                      "internalType": "address",
                      "name": "token",
                      "type": "address"
                    },
                    {
                      "internalType": "address",
                      "name": "from",
                      "type": "address"
                    },
                    {
                      "internalType": "address",
                      "name": "to",
                      "type": "address"
                    },
                    {
                      "internalType": "uint256",
                      "name": "id",
                      "type": "uint256"
                    }
                  ],
                  "internalType": "struct ERC721Transfer[]",
                  "name": "erc721",
                  "type": "tuple[]"
                },
                {
                  "components": [
                    {
                      "internalType": "address",
                      "name": "token",
                      "type": "address"
                    },
                    {
                      "internalType": "address",
                      "name": "from",
                      "type": "address"
                    },
                    {
                      "internalType": "address",
                      "name": "to",
                      "type": "address"
                    },
                    {
                      "internalType": "uint256",
                      "name": "id",
                      "type": "uint256"
                    },
                    {
                      "internalType": "uint256",
                      "name": "amount",
                      "type": "uint256"
                    }
                  ],
                  "internalType": "struct ERC1155Transfer[]",
                  "name": "erc1155",
                  "type": "tuple[]"
                }
              ],
              "internalType": "struct FlowTransferV1",
              "name": "flow",
              "type": "tuple"
            }
          ],
          "internalType": "struct FlowERC721IOV1",
          "name": "",
          "type": "tuple"
        }
      ],
      "stateMutability": "nonpayable",
      "type": "function"
    },
    {
      "inputs": [
        {
          "internalType": "uint256",
          "name": "tokenId",
          "type": "uint256"
        }
      ],
      "name": "getApproved",
      "outputs": [
        {
          "internalType": "address",
          "name": "",
          "type": "address"
        }
      ],
      "stateMutability": "view",
      "type": "function"
    },
    {
      "inputs": [
        {
          "internalType": "bytes",
          "name": "data_",
          "type": "bytes"
        }
      ],
      "name": "initialize",
      "outputs": [],
      "stateMutability": "nonpayable",
      "type": "function"
    },
    {
      "inputs": [
        {
          "internalType": "address",
          "name": "owner",
          "type": "address"
        },
        {
          "internalType": "address",
          "name": "operator",
          "type": "address"
        }
      ],
      "name": "isApprovedForAll",
      "outputs": [
        {
          "internalType": "bool",
          "name": "",
          "type": "bool"
        }
      ],
      "stateMutability": "view",
      "type": "function"
    },
    {
      "inputs": [
        {
          "internalType": "bytes[]",
          "name": "data",
          "type": "bytes[]"
        }
      ],
      "name": "multicall",
      "outputs": [
        {
          "internalType": "bytes[]",
          "name": "results",
          "type": "bytes[]"
        }
      ],
      "stateMutability": "nonpayable",
      "type": "function"
    },
    {
      "inputs": [],
      "name": "name",
      "outputs": [
        {
          "internalType": "string",
          "name": "",
          "type": "string"
        }
      ],
      "stateMutability": "view",
      "type": "function"
    },
    {
      "inputs": [
        {
          "internalType": "address",
          "name": "",
          "type": "address"
        },
        {
          "internalType": "address",
          "name": "",
          "type": "address"
        },
        {
          "internalType": "uint256[]",
          "name": "",
          "type": "uint256[]"
        },
        {
          "internalType": "uint256[]",
          "name": "",
          "type": "uint256[]"
        },
        {
          "internalType": "bytes",
          "name": "",
          "type": "bytes"
        }
      ],
      "name": "onERC1155BatchReceived",
      "outputs": [
        {
          "internalType": "bytes4",
          "name": "",
          "type": "bytes4"
        }
      ],
      "stateMutability": "nonpayable",
      "type": "function"
    },
    {
      "inputs": [
        {
          "internalType": "address",
          "name": "",
          "type": "address"
        },
        {
          "internalType": "address",
          "name": "",
          "type": "address"
        },
        {
          "internalType": "uint256",
          "name": "",
          "type": "uint256"
        },
        {
          "internalType": "uint256",
          "name": "",
          "type": "uint256"
        },
        {
          "internalType": "bytes",
          "name": "",
          "type": "bytes"
        }
      ],
      "name": "onERC1155Received",
      "outputs": [
        {
          "internalType": "bytes4",
          "name": "",
          "type": "bytes4"
        }
      ],
      "stateMutability": "nonpayable",
      "type": "function"
    },
    {
      "inputs": [
        {
          "internalType": "address",
          "name": "",
          "type": "address"
        },
        {
          "internalType": "address",
          "name": "",
          "type": "address"
        },
        {
          "internalType": "uint256",
          "name": "",
          "type": "uint256"
        },
        {
          "internalType": "bytes",
          "name": "",
          "type": "bytes"
        }
      ],
      "name": "onERC721Received",
      "outputs": [
        {
          "internalType": "bytes4",
          "name": "",
          "type": "bytes4"
        }
      ],
      "stateMutability": "nonpayable",
      "type": "function"
    },
    {
      "inputs": [
        {
          "internalType": "uint256",
          "name": "tokenId",
          "type": "uint256"
        }
      ],
      "name": "ownerOf",
      "outputs": [
        {
          "internalType": "address",
          "name": "",
          "type": "address"
        }
      ],
      "stateMutability": "view",
      "type": "function"
    },
    {
      "inputs": [
        {
          "components": [
            {
              "internalType": "contract IInterpreterV1",
              "name": "interpreter",
              "type": "address"
            },
            {
              "internalType": "contract IInterpreterStoreV1",
              "name": "store",
              "type": "address"
            },
            {
              "internalType": "address",
              "name": "expression",
              "type": "address"
            }
          ],
          "internalType": "struct Evaluable",
          "name": "evaluable_",
          "type": "tuple"
        },
        {
          "internalType": "uint256[]",
          "name": "callerContext_",
          "type": "uint256[]"
        },
        {
          "components": [
            {
              "internalType": "address",
              "name": "signer",
              "type": "address"
            },
            {
              "internalType": "uint256[]",
              "name": "context",
              "type": "uint256[]"
            },
            {
              "internalType": "bytes",
              "name": "signature",
              "type": "bytes"
            }
          ],
          "internalType": "struct SignedContextV1[]",
          "name": "signedContexts_",
          "type": "tuple[]"
        }
      ],
      "name": "previewFlow",
      "outputs": [
        {
          "components": [
            {
              "components": [
                {
                  "internalType": "address",
                  "name": "account",
                  "type": "address"
                },
                {
                  "internalType": "uint256",
                  "name": "id",
                  "type": "uint256"
                }
              ],
              "internalType": "struct ERC721SupplyChange[]",
              "name": "mints",
              "type": "tuple[]"
            },
            {
              "components": [
                {
                  "internalType": "address",
                  "name": "account",
                  "type": "address"
                },
                {
                  "internalType": "uint256",
                  "name": "id",
                  "type": "uint256"
                }
              ],
              "internalType": "struct ERC721SupplyChange[]",
              "name": "burns",
              "type": "tuple[]"
            },
            {
              "components": [
                {
                  "components": [
                    {
                      "internalType": "address",
                      "name": "token",
                      "type": "address"
                    },
                    {
                      "internalType": "address",
                      "name": "from",
                      "type": "address"
                    },
                    {
                      "internalType": "address",
                      "name": "to",
                      "type": "address"
                    },
                    {
                      "internalType": "uint256",
                      "name": "amount",
                      "type": "uint256"
                    }
                  ],
                  "internalType": "struct ERC20Transfer[]",
                  "name": "erc20",
                  "type": "tuple[]"
                },
                {
                  "components": [
                    {
                      "internalType": "address",
                      "name": "token",
                      "type": "address"
                    },
                    {
                      "internalType": "address",
                      "name": "from",
                      "type": "address"
                    },
                    {
                      "internalType": "address",
                      "name": "to",
                      "type": "address"
                    },
                    {
                      "internalType": "uint256",
                      "name": "id",
                      "type": "uint256"
                    }
                  ],
                  "internalType": "struct ERC721Transfer[]",
                  "name": "erc721",
                  "type": "tuple[]"
                },
                {
                  "components": [
                    {
                      "internalType": "address",
                      "name": "token",
                      "type": "address"
                    },
                    {
                      "internalType": "address",
                      "name": "from",
                      "type": "address"
                    },
                    {
                      "internalType": "address",
                      "name": "to",
                      "type": "address"
                    },
                    {
                      "internalType": "uint256",
                      "name": "id",
                      "type": "uint256"
                    },
                    {
                      "internalType": "uint256",
                      "name": "amount",
                      "type": "uint256"
                    }
                  ],
                  "internalType": "struct ERC1155Transfer[]",
                  "name": "erc1155",
                  "type": "tuple[]"
                }
              ],
              "internalType": "struct FlowTransferV1",
              "name": "flow",
              "type": "tuple"
            }
          ],
          "internalType": "struct FlowERC721IOV1",
          "name": "",
          "type": "tuple"
        }
      ],
      "stateMutability": "view",
      "type": "function"
    },
    {
      "inputs": [
        {
          "internalType": "address",
          "name": "from",
          "type": "address"
        },
        {
          "internalType": "address",
          "name": "to",
          "type": "address"
        },
        {
          "internalType": "uint256",
          "name": "tokenId",
          "type": "uint256"
        }
      ],
      "name": "safeTransferFrom",
      "outputs": [],
      "stateMutability": "nonpayable",
      "type": "function"
    },
    {
      "inputs": [
        {
          "internalType": "address",
          "name": "from",
          "type": "address"
        },
        {
          "internalType": "address",
          "name": "to",
          "type": "address"
        },
        {
          "internalType": "uint256",
          "name": "tokenId",
          "type": "uint256"
        },
        {
          "internalType": "bytes",
          "name": "data",
          "type": "bytes"
        }
      ],
      "name": "safeTransferFrom",
      "outputs": [],
      "stateMutability": "nonpayable",
      "type": "function"
    },
    {
      "inputs": [
        {
          "internalType": "address",
          "name": "operator",
          "type": "address"
        },
        {
          "internalType": "bool",
          "name": "approved",
          "type": "bool"
        }
      ],
      "name": "setApprovalForAll",
      "outputs": [],
      "stateMutability": "nonpayable",
      "type": "function"
    },
    {
      "inputs": [
        {
          "internalType": "bytes4",
          "name": "interfaceId",
          "type": "bytes4"
        }
      ],
      "name": "supportsInterface",
      "outputs": [
        {
          "internalType": "bool",
          "name": "",
          "type": "bool"
        }
      ],
      "stateMutability": "view",
      "type": "function"
    },
    {
      "inputs": [],
      "name": "symbol",
      "outputs": [
        {
          "internalType": "string",
          "name": "",
          "type": "string"
        }
      ],
      "stateMutability": "view",
      "type": "function"
    },
    {
      "inputs": [
        {
          "internalType": "uint256",
          "name": "tokenId_",
          "type": "uint256"
        }
      ],
      "name": "tokenURI",
      "outputs": [
        {
          "internalType": "string",
          "name": "",
          "type": "string"
        }
      ],
      "stateMutability": "view",
      "type": "function"
    },
    {
      "inputs": [
        {
          "internalType": "address",
          "name": "from",
          "type": "address"
        },
        {
          "internalType": "address",
          "name": "to",
          "type": "address"
        },
        {
          "internalType": "uint256",
          "name": "tokenId",
          "type": "uint256"
        }
      ],
      "name": "transferFrom",
      "outputs": [],
      "stateMutability": "nonpayable",
      "type": "function"
    }
  ],
  "bytecode": "0x60806040523480156200001157600080fd5b5060405162005d6f38038062005d6f8339810160408190526200003491620003af565b7fb45a690d69760662f71ac675f2f411c5462bf6bb0fef4167f48c7cacd99304fb60001b81818162000071828260200151620000d560201b60201c565b60208101516040517fbea766d03fa1efd3f81cc8634d08320bc62bb0ed9234ac59bbaafa5893fb6b1391620000aa9133913091620004bd565b60405180910390a18051620000bf906200011c565b50620000cc9050620001e0565b5050506200062f565b805160208201208281146200010c5760405163074fe10f60e41b815260048101849052602481018290526044015b60405180910390fd5b62000117826200029f565b505050565b604080516000808252602082019092526001600160a01b03831691635511cb6791906200015a565b6060815260200190600190039081620001445790505b5060408051600080825260208201908152818301928390526001600160e01b031960e086901b16909252620001949291604482016200052c565b6060604051808303816000875af1158015620001b4573d6000803e3d6000fd5b505050506040513d601f19601f82011682018060405250810190620001da9190620005bf565b50505050565b600054610100900460ff16156200024a5760405162461bcd60e51b815260206004820152602760248201527f496e697469616c697a61626c653a20636f6e747261637420697320696e697469604482015266616c697a696e6760c81b606482015260840162000103565b60005460ff90811610156200029d576000805460ff191660ff9081179091556040519081527f7f26b83ff96e1f2b6a682f133852f6798a09c465da95921460cefb38474024989060200160405180910390a15b565b620002aa81620002cf565b620002cc5780604051630c89984b60e31b815260040162000103919062000613565b50565b6000600882511015620002e457506000919050565b50600801516001600160401b031667ff0a89c674ee78741490565b634e487b7160e01b600052604160045260246000fd5b604080519081016001600160401b03811182821017156200033a576200033a620002ff565b60405290565b604051601f8201601f191681016001600160401b03811182821017156200036b576200036b620002ff565b604052919050565b6001600160a01b0381168114620002cc57600080fd5b60005b83811015620003a65781810151838201526020016200038c565b50506000910152565b60006020808385031215620003c357600080fd5b82516001600160401b0380821115620003db57600080fd5b9084019060408287031215620003f057600080fd5b620003fa62000315565b8251620004078162000373565b815282840151828111156200041b57600080fd5b80840193505086601f8401126200043157600080fd5b825182811115620004465762000446620002ff565b6200045a601f8201601f1916860162000340565b925080835287858286010111156200047157600080fd5b620004828186850187870162000389565b5092830152509392505050565b60008151808452620004a981602086016020860162000389565b601f01601f19169290920160200192915050565b60018060a01b0384168152826020820152606060408201526000620004e660608301846200048f565b95945050505050565b600081518084526020808501945080840160005b83811015620005215781518752958201959082019060010162000503565b509495945050505050565b6000606082016060835280865180835260808501915060808160051b8601019250602080890160005b838110156200058757607f19888703018552620005748683516200048f565b9550938201939082019060010162000555565b5050858403818701525050506200059f8186620004ef565b90508281036040840152620005b58185620004ef565b9695505050505050565b600080600060608486031215620005d557600080fd5b8351620005e28162000373565b6020850151909350620005f58162000373565b6040850151909250620006088162000373565b809150509250925092565b6020815260006200062860208301846200048f565b9392505050565b615730806200063f6000396000f3fe608060405234801561001057600080fd5b506004361061016c5760003560e01c806390bcad69116100cd578063bc197c8111610081578063e985e9c511610066578063e985e9c514610365578063f23a6e61146103af578063f83d765a146103e757600080fd5b8063bc197c811461031a578063c87b56dd1461035257600080fd5b8063a22cb465116100b2578063a22cb465146102d4578063ac9650d8146102e7578063b88d4fde1461030757600080fd5b806390bcad69146102ac57806395d89b41146102cc57600080fd5b806323b872dd11610124578063439fab9111610109578063439fab91146102655780636352211e1461027857806370a082311461028b57600080fd5b806323b872dd1461023f57806342842e0e1461025257600080fd5b8063081812fc11610155578063081812fc146101ae578063095ea7b3146101e6578063150b7a02146101fb57600080fd5b806301ffc9a71461017157806306fdde0314610199575b600080fd5b61018461017f3660046141d1565b6103fa565b60405190151581526020015b60405180910390f35b6101a161040b565b604051610190919061425c565b6101c16101bc36600461426f565b61049e565b60405173ffffffffffffffffffffffffffffffffffffffff9091168152602001610190565b6101f96101f43660046142aa565b6104d3565b005b61020e61020936600461442e565b610664565b6040517fffffffff000000000000000000000000000000000000000000000000000000009091168152602001610190565b6101f961024d36600461449a565b61068e565b6101f961026036600461449a565b61072f565b6101f96102733660046144db565b61074a565b6101c161028636600461426f565b610b7b565b61029e61029936600461454d565b610c08565b604051908152602001610190565b6102bf6102ba3660046145f9565b610cd7565b6040516101909190614882565b6101a1610d21565b6101f96102e2366004614a2a565b610d31565b6102fa6102f5366004614a63565b610d40565b6040516101909190614b1b565b6101f961031536600461442e565b610e35565b61020e610328366004614b2e565b7fbc197c810000000000000000000000000000000000000000000000000000000095945050505050565b6101a161036036600461426f565b610edd565b610184610373366004614bdc565b73ffffffffffffffffffffffffffffffffffffffff91821660009081526101656020908152604080832093909416825291909152205460ff1690565b61020e6103bd366004614c0a565b7ff23a6e610000000000000000000000000000000000000000000000000000000095945050505050565b6102bf6103f53660046145f9565b61109c565b6000610405826110af565b92915050565b6060610160805461041b90614c73565b80601f016020809104026020016040519081016040528092919081815260200182805461044790614c73565b80156104945780601f1061046957610100808354040283529160200191610494565b820191906000526020600020905b81548152906001019060200180831161047757829003601f168201915b5050505050905090565b60006104a982611151565b506000908152610164602052604090205473ffffffffffffffffffffffffffffffffffffffff1690565b60006104de82610b7b565b90508073ffffffffffffffffffffffffffffffffffffffff168373ffffffffffffffffffffffffffffffffffffffff16036105a0576040517f08c379a000000000000000000000000000000000000000000000000000000000815260206004820152602160248201527f4552433732313a20617070726f76616c20746f2063757272656e74206f776e6560448201527f720000000000000000000000000000000000000000000000000000000000000060648201526084015b60405180910390fd5b3373ffffffffffffffffffffffffffffffffffffffff821614806105c957506105c98133610373565b610655576040517f08c379a000000000000000000000000000000000000000000000000000000000815260206004820152603d60248201527f4552433732313a20617070726f76652063616c6c6572206973206e6f7420746f60448201527f6b656e206f776e6572206f7220617070726f76656420666f7220616c6c0000006064820152608401610597565b61065f83836111e0565b505050565b7f150b7a02000000000000000000000000000000000000000000000000000000005b949350505050565b6106983382611281565b610724576040517f08c379a000000000000000000000000000000000000000000000000000000000815260206004820152602d60248201527f4552433732313a2063616c6c6572206973206e6f7420746f6b656e206f776e6560448201527f72206f7220617070726f766564000000000000000000000000000000000000006064820152608401610597565b61065f838383611341565b61065f83838360405180602001604052806000815250610e35565b600054610100900460ff161580801561076a5750600054600160ff909116105b806107845750303b158015610784575060005460ff166001145b610810576040517f08c379a000000000000000000000000000000000000000000000000000000000815260206004820152602e60248201527f496e697469616c697a61626c653a20636f6e747261637420697320616c72656160448201527f647920696e697469616c697a65640000000000000000000000000000000000006064820152608401610597565b600080547fffffffffffffffffffffffffffffffffffffffffffffffffffffffffffffff00166001179055801561086e57600080547fffffffffffffffffffffffffffffffffffffffffffffffffffffffffffff00ff166101001790555b600061087c83850185614e3b565b90507f1b3bea5f51e285daf000b660a0f1ce5abaa85c32c679b429a4b3aaf911c9f97e33826040516108af929190614fb6565b60405180910390a16108bf611647565b6108d1816000015182602001516116e8565b6040810151610196906108e49082615131565b5060808101516108ff906108fa6003600261527a565b611789565b6060810151602001515115610b13576000816060015160200151600061ffff168151811061092f5761092f61528d565b6020026020010151511161019260006101000a81548160ff02191690831515021790555060018160600151602001515111801561099357506000816060015160200151600161ffff16815181106109885761098861528d565b602002602001015151115b6101928054911515610100027fffffffffffffffffffffffffffffffffffffffffffffffffffffffffffff00ff90921691909117905560608181015180516020808301516040938401518451600281526000938101849052600181870152958601948590527f5511cb670000000000000000000000000000000000000000000000000000000090945290938493849373ffffffffffffffffffffffffffffffffffffffff1692635511cb6792610a4d9290606481016152bc565b6060604051808303816000875af1158015610a6c573d6000803e3d6000fd5b505050506040513d601f19601f82011682018060405250810190610a9091906152ff565b6040805160608101825273ffffffffffffffffffffffffffffffffffffffff9485168082529385166020820181905292909416930183905261019380547fffffffffffffffffffffffff00000000000000000000000000000000000000009081169093179055610194805483169091179055610195805490911690911790555050505b50801561065f57600080547fffffffffffffffffffffffffffffffffffffffffffffffffffffffffffff00ff169055604051600181527f7f26b83ff96e1f2b6a682f133852f6798a09c465da95921460cefb38474024989060200160405180910390a1505050565b6000818152610162602052604081205473ffffffffffffffffffffffffffffffffffffffff1680610405576040517f08c379a000000000000000000000000000000000000000000000000000000000815260206004820152601860248201527f4552433732313a20696e76616c696420746f6b656e20494400000000000000006044820152606401610597565b600073ffffffffffffffffffffffffffffffffffffffff8216610cad576040517f08c379a000000000000000000000000000000000000000000000000000000000815260206004820152602960248201527f4552433732313a2061646472657373207a65726f206973206e6f74206120766160448201527f6c6964206f776e657200000000000000000000000000000000000000000000006064820152608401610597565b5073ffffffffffffffffffffffffffffffffffffffff166000908152610163602052604090205490565b610cdf614161565b6000610d06610d008560408051600181526020810192909252818101905290565b84611aae565b90506000610d148683611dde565b50925050505b9392505050565b6060610161805461041b90614c73565b610d3c338383611efd565b5050565b60608167ffffffffffffffff811115610d5b57610d5b6142d6565b604051908082528060200260200182016040528015610d8e57816020015b6060815260200190600190039081610d795790505b50905060005b82811015610e2e57610dfe30858584818110610db257610db261528d565b9050602002810190610dc4919061534c565b8080601f01602080910402602001604051908101604052809392919081815260200183838082843760009201919091525061202b92505050565b828281518110610e1057610e1061528d565b60200260200101819052508080610e26906153b1565b915050610d94565b5092915050565b610e3f3383611281565b610ecb576040517f08c379a000000000000000000000000000000000000000000000000000000000815260206004820152602d60248201527f4552433732313a2063616c6c6572206973206e6f7420746f6b656e206f776e6560448201527f72206f7220617070726f766564000000000000000000000000000000000000006064820152608401610597565b610ed78484848461216a565b50505050565b61019254606090610100900460ff161561109357604080516060810182526101935473ffffffffffffffffffffffffffffffffffffffff9081168083526101945482166020840181905261019554909216938301849052919260009291636715f825918490610f4b9061220d565b610fee610f85610f6d8b60408051600181526020810192909252818101905290565b60408051600181526020810192909252818101905290565b6040805160008082526020820190925290610fe8565b610fd56040518060600160405280600073ffffffffffffffffffffffffffffffffffffffff16815260200160608152602001606081525090565b815260200190600190039081610f9b5790505b50611aae565b6040518563ffffffff1660e01b815260040161100d9493929190615431565b600060405180830381865afa15801561102a573d6000803e3d6000fd5b505050506040513d6000823e601f3d9081017fffffffffffffffffffffffffffffffffffffffffffffffffffffffffffffffe016820160405261107091908101906154c7565b509050806000815181106110865761108661528d565b6020026020010151935050505b61040582612238565b6110a4614161565b61068684848461229e565b60007fffffffff0000000000000000000000000000000000000000000000000000000082167f80ac58cd00000000000000000000000000000000000000000000000000000000148061114257507fffffffff0000000000000000000000000000000000000000000000000000000082167f5b5e139f00000000000000000000000000000000000000000000000000000000145b80610405575061040582612474565b6000818152610162602052604090205473ffffffffffffffffffffffffffffffffffffffff166111dd576040517f08c379a000000000000000000000000000000000000000000000000000000000815260206004820152601860248201527f4552433732313a20696e76616c696420746f6b656e20494400000000000000006044820152606401610597565b50565b60008181526101646020526040902080547fffffffffffffffffffffffff00000000000000000000000000000000000000001673ffffffffffffffffffffffffffffffffffffffff8416908117909155819061123b82610b7b565b73ffffffffffffffffffffffffffffffffffffffff167f8c5be1e5ebec7d5bd14f71427d1e84f3dd0314c0f7b2291e5b200ac8c7c3b92560405160405180910390a45050565b60008061128d83610b7b565b90508073ffffffffffffffffffffffffffffffffffffffff168473ffffffffffffffffffffffffffffffffffffffff1614806112fc575073ffffffffffffffffffffffffffffffffffffffff8082166000908152610165602090815260408083209388168352929052205460ff165b8061068657508373ffffffffffffffffffffffffffffffffffffffff166113228461049e565b73ffffffffffffffffffffffffffffffffffffffff1614949350505050565b8273ffffffffffffffffffffffffffffffffffffffff1661136182610b7b565b73ffffffffffffffffffffffffffffffffffffffff1614611404576040517f08c379a000000000000000000000000000000000000000000000000000000000815260206004820152602560248201527f4552433732313a207472616e736665722066726f6d20696e636f72726563742060448201527f6f776e65720000000000000000000000000000000000000000000000000000006064820152608401610597565b73ffffffffffffffffffffffffffffffffffffffff82166114a6576040517f08c379a0000000000000000000000000000000000000000000000000000000008152602060048201526024808201527f4552433732313a207472616e7366657220746f20746865207a65726f2061646460448201527f72657373000000000000000000000000000000000000000000000000000000006064820152608401610597565b8273ffffffffffffffffffffffffffffffffffffffff166114c682610b7b565b73ffffffffffffffffffffffffffffffffffffffff1614611569576040517f08c379a000000000000000000000000000000000000000000000000000000000815260206004820152602560248201527f4552433732313a207472616e736665722066726f6d20696e636f72726563742060448201527f6f776e65720000000000000000000000000000000000000000000000000000006064820152608401610597565b60008181526101646020908152604080832080547fffffffffffffffffffffffff000000000000000000000000000000000000000090811690915573ffffffffffffffffffffffffffffffffffffffff878116808652610163855283862080547fffffffffffffffffffffffffffffffffffffffffffffffffffffffffffffffff0190559087168086528386208054600101905586865261016290945282852080549092168417909155905184937fddf252ad1be2c89b69c2b068fc378daa952ba7f163c4a11628f55a4df523b3ef91a461065f838383600161250b565b600054610100900460ff166116de576040517f08c379a000000000000000000000000000000000000000000000000000000000815260206004820152602b60248201527f496e697469616c697a61626c653a20636f6e7472616374206973206e6f74206960448201527f6e697469616c697a696e670000000000000000000000000000000000000000006064820152608401610597565b6116e6612753565b565b600054610100900460ff1661177f576040517f08c379a000000000000000000000000000000000000000000000000000000000815260206004820152602b60248201527f496e697469616c697a61626c653a20636f6e7472616374206973206e6f74206960448201527f6e697469616c697a696e670000000000000000000000000000000000000000006064820152608401610597565b610d3c82826127f0565b600054610100900460ff16611820576040517f08c379a000000000000000000000000000000000000000000000000000000000815260206004820152602b60248201527f496e697469616c697a61626c653a20636f6e7472616374206973206e6f74206960448201527f6e697469616c697a696e670000000000000000000000000000000000000000006064820152608401610597565b6118286128a2565b6118306128a2565b6118386128a2565b6003811015611876576040517fb0682cf300000000000000000000000000000000000000000000000000000000815260048101829052602401610597565b6118b06040518060600160405280600073ffffffffffffffffffffffffffffffffffffffff16815260200160608152602001606081525090565b60408051606081018252600080825260208201819052918101829052905b8451811015611aa7578481815181106118e9576118e961528d565b602002602001015192506000806000856000015173ffffffffffffffffffffffffffffffffffffffff16635511cb678760200151886040015161193e8b60408051600181526020810192909252818101905290565b6040518463ffffffff1660e01b815260040161195c939291906152bc565b6060604051808303816000875af115801561197b573d6000803e3d6000fd5b505050506040513d601f19601f8201168201806040525081019061199f91906152ff565b92509250925060405180606001604052808473ffffffffffffffffffffffffffffffffffffffff1681526020018373ffffffffffffffffffffffffffffffffffffffff1681526020018273ffffffffffffffffffffffffffffffffffffffff168152509450600161015f6000611a16886060902090565b81526020808201929092526040908101600020929092558151338152875173ffffffffffffffffffffffffffffffffffffffff9081168284015291880151821681840152918701511660608201527fed510090abe2a95b97a621e3d2c947ea3c26eced1c87470474d17e353dcc53389060800160405180910390a15050508080611a9f906153b1565b9150506118ce565b5050505050565b60606000825167ffffffffffffffff811115611acc57611acc6142d6565b604051908082528060200260200182016040528015611af5578160200160208202803683370190505b509050600080845111611b09576000611b0f565b83516001015b855160010101905060008167ffffffffffffffff811115611b3257611b326142d6565b604051908082528060200260200182016040528015611b6557816020015b6060815260200190600190039081611b505790505b5090506000611b8a604080516002815233602082015230818301526060810190915290565b828281518110611b9c57611b9c61528d565b602002602001018190525060005b8751811015611bfa578180600101925050878181518110611bcd57611bcd61528d565b6020026020010151838381518110611be757611be761528d565b6020908102919091010152600101611baa565b50855115611dd457808060010191505083828281518110611c1d57611c1d61528d565b602002602001018190525060005b8651811015611dd257611cfc878281518110611c4957611c4961528d565b602002602001015160000151611cd9611c868a8581518110611c6d57611c6d61528d565b6020026020010151602001518051602090810291012090565b6040517f19457468657265756d205369676e6564204d6573736167653a0a3332000000006020820152603c8101829052600090605c01604051602081830303815290604052805190602001209050919050565b898481518110611ceb57611ceb61528d565b602002602001015160400151612939565b611d35576040517f52bf984800000000000000000000000000000000000000000000000000000000815260048101829052602401610597565b868181518110611d4757611d4761528d565b60200260200101516000015173ffffffffffffffffffffffffffffffffffffffff16858281518110611d7b57611d7b61528d565b6020026020010181815250508180600101925050868181518110611da157611da161528d565b602002602001015160200151838381518110611dbf57611dbf61528d565b6020908102919091010152600101611c2b565b505b5095945050505050565b611de6614161565b606080611df1614161565b6000806000611e008989612b06565b60408051808201909152601981527f5241494e5f464c4f575f4552433732315f53454e54494e454c0000000000000060209091015291945092509050611e6982847ffe90d819490b07580877ce7c3005704048c62af96c6745886d7e356e0b63924a6002612c47565b80865260408051808201909152601981527f5241494e5f464c4f575f4552433732315f53454e54494e454c0000000000000060209091015295509150611ed282847ffe90d819490b07580877ce7c3005704048c62af96c6745886d7e356e0b63924a6002612c47565b6020860181905295509150611ee78383612cf9565b60408501529295509193505050505b9250929050565b8173ffffffffffffffffffffffffffffffffffffffff168373ffffffffffffffffffffffffffffffffffffffff1603611f92576040517f08c379a000000000000000000000000000000000000000000000000000000000815260206004820152601960248201527f4552433732313a20617070726f766520746f2063616c6c6572000000000000006044820152606401610597565b73ffffffffffffffffffffffffffffffffffffffff8381166000818152610165602090815260408083209487168084529482529182902080547fffffffffffffffffffffffffffffffffffffffffffffffffffffffffffffff001686151590811790915591519182527f17307eab39ab6107e8899845ad3d59bd9653f200f220920489ca2b5937696c31910160405180910390a3505050565b606073ffffffffffffffffffffffffffffffffffffffff83163b6120d1576040517f08c379a000000000000000000000000000000000000000000000000000000000815260206004820152602660248201527f416464726573733a2064656c65676174652063616c6c20746f206e6f6e2d636f60448201527f6e747261637400000000000000000000000000000000000000000000000000006064820152608401610597565b6000808473ffffffffffffffffffffffffffffffffffffffff16846040516120f9919061552b565b600060405180830381855af49150503d8060008114612134576040519150601f19603f3d011682016040523d82523d6000602084013e612139565b606091505b509150915061216182826040518060600160405280602781526020016156d460279139612e8a565b95945050505050565b612175848484611341565b61218184848484612ea3565b610ed7576040517f08c379a000000000000000000000000000000000000000000000000000000000815260206004820152603260248201527f4552433732313a207472616e7366657220746f206e6f6e20455243373231526560448201527f63656976657220696d706c656d656e74657200000000000000000000000000006064820152608401610597565b600062010001602083901b77ffffffffffffffffffffffffffffffffffffffff000000001617610405565b606061224382611151565b600061224d613093565b9050600081511161226d5760405180602001604052806000815250610d1a565b80612277846130a3565b604051602001612288929190615547565b6040516020818303038152906040529392505050565b6122a6614161565b6122ae613161565b60006122cf610d008560408051600181526020810192909252818101905290565b90507f17a5c0f3785132a57703932032f6863e7920434150aa1dc940e567b440fdce1f3382604051612302929190615576565b60405180910390a16000806123178784611dde565b9150915060005b82515181101561237c57612374836000015182815181106123415761234161528d565b602002602001015160000151846000015183815181106123635761236361528d565b6020026020010151602001516131d4565b60010161231e565b5060005b826020015151811015612453576000836020015182815181106123a5576123a561528d565b6020026020010151602001519050836020015182815181106123c9576123c961528d565b60200260200101516000015173ffffffffffffffffffffffffffffffffffffffff166123f482610b7b565b73ffffffffffffffffffffffffffffffffffffffff1614612441576040517f375e3a0c00000000000000000000000000000000000000000000000000000000815260040160405180910390fd5b61244a816131ee565b50600101612380565b5061246782604001518860200151836132d3565b50915050610d1a60018055565b60007fffffffff0000000000000000000000000000000000000000000000000000000082167f4e2312e000000000000000000000000000000000000000000000000000000000148061040557507f01ffc9a7000000000000000000000000000000000000000000000000000000007fffffffff00000000000000000000000000000000000000000000000000000000831614610405565b6101925460ff168015612552575073ffffffffffffffffffffffffffffffffffffffff84161580612550575073ffffffffffffffffffffffffffffffffffffffff8316155b155b15610ed757604080516060810182526101935473ffffffffffffffffffffffffffffffffffffffff9081168083526101945482166020840181905261019554909216938301849052919260009291636715f8259184906125b19061337d565b604080516003815273ffffffffffffffffffffffffffffffffffffffff808e1660208301528c1681830152606081018b90526080810190915261264990610f8590610f6d565b6126316040518060600160405280600073ffffffffffffffffffffffffffffffffffffffff16815260200160608152602001606081525090565b8152602001906001900390816125f757905050611aae565b6040518563ffffffff1660e01b81526004016126689493929190615431565b600060405180830381865afa158015612685573d6000803e3d6000fd5b505050506040513d6000823e601f3d9081017fffffffffffffffffffffffffffffffffffffffffffffffffffffffffffffffe01682016040526126cb91908101906154c7565b91505060008151111561274b57816020015173ffffffffffffffffffffffffffffffffffffffff1663946aadc66000836040518363ffffffff1660e01b81526004016127189291906155a5565b600060405180830381600087803b15801561273257600080fd5b505af1158015612746573d6000803e3d6000fd5b505050505b505050505050565b600054610100900460ff166127ea576040517f08c379a000000000000000000000000000000000000000000000000000000000815260206004820152602b60248201527f496e697469616c697a61626c653a20636f6e7472616374206973206e6f74206960448201527f6e697469616c697a696e670000000000000000000000000000000000000000006064820152608401610597565b60018055565b600054610100900460ff16612887576040517f08c379a000000000000000000000000000000000000000000000000000000000815260206004820152602b60248201527f496e697469616c697a61626c653a20636f6e7472616374206973206e6f74206960448201527f6e697469616c697a696e670000000000000000000000000000000000000000006064820152608401610597565b6101606128948382615131565b5061016161065f8282615131565b600054610100900460ff166116e6576040517f08c379a000000000000000000000000000000000000000000000000000000000815260206004820152602b60248201527f496e697469616c697a61626c653a20636f6e7472616374206973206e6f74206960448201527f6e697469616c697a696e670000000000000000000000000000000000000000006064820152608401610597565b600080600061294885856133a3565b90925090506000816004811115612961576129616155be565b14801561299957508573ffffffffffffffffffffffffffffffffffffffff168273ffffffffffffffffffffffffffffffffffffffff16145b156129a957600192505050610d1a565b6000808773ffffffffffffffffffffffffffffffffffffffff16631626ba7e60e01b88886040516024016129de9291906155ed565b604080517fffffffffffffffffffffffffffffffffffffffffffffffffffffffffffffffe08184030181529181526020820180517bffffffffffffffffffffffffffffffffffffffffffffffffffffffff167fffffffff00000000000000000000000000000000000000000000000000000000909416939093179092529051612a67919061552b565b600060405180830381855afa9150503d8060008114612aa2576040519150601f19603f3d011682016040523d82523d6000602084013e612aa7565b606091505b5091509150818015612aba575080516020145b8015612afa575080517f1626ba7e0000000000000000000000000000000000000000000000000000000090612af89083016020908101908401615606565b145b98975050505050505050565b6000806060846000612b19826060902090565b600081815261015f602052604081205491925003612b66576040517f7a80ba4d00000000000000000000000000000000000000000000000000000000815260048101829052602401610597565b600080886000015173ffffffffffffffffffffffffffffffffffffffff16636715f8258a602001516000612b9d8d604001516133e5565b8c6040518563ffffffff1660e01b8152600401612bbd9493929190615431565b600060405180830381865afa158015612bda573d6000803e3d6000fd5b505050506040513d6000823e601f3d9081017fffffffffffffffffffffffffffffffffffffffffffffffffffffffffffffffe0168201604052612c2091908101906154c7565b91509150612c2e8260200190565b8251909a60209182029093010198509650945050505050565b600060608180612c598888888861340f565b915091506000858251612c6c919061561f565b905060008167ffffffffffffffff811115612c8957612c896142d6565b604051908082528060200260200182016040528015612cb2578160200160208202803683370190505b50905060208101602082510281016020850160208a025b82841015612ce35781845260209093019290810190612cc9565b5095975091955050505050505b94509492505050565b612d1d60405180606001604052806060815260200160608152602001606081525090565b612d4160405180606001604052806060815260200160608152602001606081525090565b60408051808201909152601281527f5241494e5f464c4f575f53454e54494e454c00000000000000000000000000006020909101526060612da584867ffea74d0c9bf4a3c28f0dd0674db22a3d7f8bf259c56af19f4ac1e735b156974f6004612c47565b80845260408051808201909152601281527f5241494e5f464c4f575f53454e54494e454c00000000000000000000000000006020909101529094509050612e0f84867ffea74d0c9bf4a3c28f0dd0674db22a3d7f8bf259c56af19f4ac1e735b156974f6004612c47565b602084810182905260408051808201909152601281527f5241494e5f464c4f575f53454e54494e454c00000000000000000000000000009101529094509050612e7b84867ffea74d0c9bf4a3c28f0dd0674db22a3d7f8bf259c56af19f4ac1e735b156974f6005612c47565b60408401525090949350505050565b60608315612e99575081610d1a565b610d1a838361346f565b600073ffffffffffffffffffffffffffffffffffffffff84163b1561308b576040517f150b7a0200000000000000000000000000000000000000000000000000000000815273ffffffffffffffffffffffffffffffffffffffff85169063150b7a0290612f1a90339089908890889060040161565a565b6020604051808303816000875af1925050508015612f73575060408051601f3d9081017fffffffffffffffffffffffffffffffffffffffffffffffffffffffffffffffe0168201909252612f7091810190615699565b60015b613040573d808015612fa1576040519150601f19603f3d011682016040523d82523d6000602084013e612fa6565b606091505b508051600003613038576040517f08c379a000000000000000000000000000000000000000000000000000000000815260206004820152603260248201527f4552433732313a207472616e7366657220746f206e6f6e20455243373231526560448201527f63656976657220696d706c656d656e74657200000000000000000000000000006064820152608401610597565b805181602001fd5b7fffffffff00000000000000000000000000000000000000000000000000000000167f150b7a0200000000000000000000000000000000000000000000000000000000149050610686565b506001610686565b6060610196805461041b90614c73565b606060006130b0836134b3565b600101905060008167ffffffffffffffff8111156130d0576130d06142d6565b6040519080825280601f01601f1916602001820160405280156130fa576020820181803683370190505b5090508181016020015b7fffffffffffffffffffffffffffffffffffffffffffffffffffffffffffffffff017f3031323334353637383961626364656600000000000000000000000000000000600a86061a8153600a850494508461310457509392505050565b6002600154036131cd576040517f08c379a000000000000000000000000000000000000000000000000000000000815260206004820152601f60248201527f5265656e7472616e637947756172643a207265656e7472616e742063616c6c006044820152606401610597565b6002600155565b610d3c828260405180602001604052806000815250613595565b60006131f982610b7b565b905061320482610b7b565b60008381526101646020908152604080832080547fffffffffffffffffffffffff000000000000000000000000000000000000000090811690915573ffffffffffffffffffffffffffffffffffffffff8516808552610163845282852080547fffffffffffffffffffffffffffffffffffffffffffffffffffffffffffffffff019055878552610162909352818420805490911690555192935084927fddf252ad1be2c89b69c2b068fc378daa952ba7f163c4a11628f55a4df523b3ef908390a4610d3c81600084600161250b565b805115613362576040517f946aadc600000000000000000000000000000000000000000000000000000000815273ffffffffffffffffffffffffffffffffffffffff83169063946aadc69061332f9060009085906004016155a5565b600060405180830381600087803b15801561334957600080fd5b505af115801561335d573d6000803e3d6000fd5b505050505b61336b83613638565b61337483613791565b61065f83613922565b6000602082901b77ffffffffffffffffffffffffffffffffffffffff0000000016610405565b60008082516041036133d95760208301516040840151606085015160001a6133cd87828585613ad2565b94509450505050611ef6565b50600090506002611ef6565b6000602082901b77ffffffffffffffffffffffffffffffffffffffff000000001661ffff17610405565b60006060808561341e57600080fd5b6000806020860260208a039950602089035b808b1115613456578a518903613448578a9350613456565b998190039991870191613430565b50508161346257600080fd5b8152969795505050505050565b81511561347f5781518083602001fd5b806040517f08c379a0000000000000000000000000000000000000000000000000000000008152600401610597919061425c565b6000807a184f03e93ff9f4daa797ed6e38ed64bf6a1f01000000000000000083106134fc577a184f03e93ff9f4daa797ed6e38ed64bf6a1f010000000000000000830492506040015b6d04ee2d6d415b85acef81000000008310613528576d04ee2d6d415b85acef8100000000830492506020015b662386f26fc10000831061354657662386f26fc10000830492506010015b6305f5e100831061355e576305f5e100830492506008015b612710831061357257612710830492506004015b60648310613584576064830492506002015b600a83106104055760010192915050565b61359f8383613bbe565b6135ac6000848484612ea3565b61065f576040517f08c379a000000000000000000000000000000000000000000000000000000000815260206004820152603260248201527f4552433732313a207472616e7366657220746f206e6f6e20455243373231526560448201527f63656976657220696d706c656d656e74657200000000000000000000000000006064820152608401610597565b6040805160808101825260008082526020820181905291810182905260608101829052905b82515181101561065f57825180518290811061367b5761367b61528d565b602002602001015191503373ffffffffffffffffffffffffffffffffffffffff16826020015173ffffffffffffffffffffffffffffffffffffffff16036136f2576040820151606083015183516136ed9273ffffffffffffffffffffffffffffffffffffffff90911691339190613df1565b613789565b3073ffffffffffffffffffffffffffffffffffffffff16826020015173ffffffffffffffffffffffffffffffffffffffff1603613757576040820151606083015183516136ed9273ffffffffffffffffffffffffffffffffffffffff90911691613ecd565b6040517fa521c60f00000000000000000000000000000000000000000000000000000000815260040160405180910390fd5b60010161365d565b6040805160808101825260008082526020820181905291810182905260608101829052905b82602001515181101561065f57826020015181815181106137d9576137d961528d565b602002602001015191503373ffffffffffffffffffffffffffffffffffffffff16826020015173ffffffffffffffffffffffffffffffffffffffff161415801561383d5750602082015173ffffffffffffffffffffffffffffffffffffffff163014155b15613874576040517f3a5befc500000000000000000000000000000000000000000000000000000000815260040160405180910390fd5b81516020830151604080850151606086015191517f42842e0e00000000000000000000000000000000000000000000000000000000815273ffffffffffffffffffffffffffffffffffffffff9384166004820152908316602482015260448101919091529116906342842e0e90606401600060405180830381600087803b1580156138fe57600080fd5b505af1158015613912573d6000803e3d6000fd5b5050600190920191506137b69050565b6040805160a0810182526000808252602082018190529181018290526060810182905260808101829052905b82604001515181101561065f57826040015181815181106139715761397161528d565b602002602001015191503373ffffffffffffffffffffffffffffffffffffffff16826020015173ffffffffffffffffffffffffffffffffffffffff16141580156139d55750602082015173ffffffffffffffffffffffffffffffffffffffff163014155b15613a0c576040517fc6a91ecc00000000000000000000000000000000000000000000000000000000815260040160405180910390fd5b815160208301516040808501516060860151608087015192517ff242432a00000000000000000000000000000000000000000000000000000000815273ffffffffffffffffffffffffffffffffffffffff948516600482015291841660248301526044820152606481019190915260a06084820152600060a482015291169063f242432a9060c401600060405180830381600087803b158015613aae57600080fd5b505af1158015613ac2573d6000803e3d6000fd5b50506001909201915061394e9050565b6000807f7fffffffffffffffffffffffffffffff5d576e7357a4501ddfe92f46681b20a0831115613b095750600090506003612cf0565b6040805160008082526020820180845289905260ff881692820192909252606081018690526080810185905260019060a0016020604051602081039080840390855afa158015613b5d573d6000803e3d6000fd5b50506040517fffffffffffffffffffffffffffffffffffffffffffffffffffffffffffffffe0015191505073ffffffffffffffffffffffffffffffffffffffff8116613bb157600060019250925050612cf0565b9660009650945050505050565b73ffffffffffffffffffffffffffffffffffffffff8216613c3b576040517f08c379a000000000000000000000000000000000000000000000000000000000815260206004820181905260248201527f4552433732313a206d696e7420746f20746865207a65726f20616464726573736044820152606401610597565b6000818152610162602052604090205473ffffffffffffffffffffffffffffffffffffffff1615613cc8576040517f08c379a000000000000000000000000000000000000000000000000000000000815260206004820152601c60248201527f4552433732313a20746f6b656e20616c7265616479206d696e746564000000006044820152606401610597565b6000818152610162602052604090205473ffffffffffffffffffffffffffffffffffffffff1615613d55576040517f08c379a000000000000000000000000000000000000000000000000000000000815260206004820152601c60248201527f4552433732313a20746f6b656e20616c7265616479206d696e746564000000006044820152606401610597565b73ffffffffffffffffffffffffffffffffffffffff82166000818152610163602090815260408083208054600101905584835261016290915280822080547fffffffffffffffffffffffff0000000000000000000000000000000000000000168417905551839291907fddf252ad1be2c89b69c2b068fc378daa952ba7f163c4a11628f55a4df523b3ef908290a4610d3c60008383600161250b565b60405173ffffffffffffffffffffffffffffffffffffffff80851660248301528316604482015260648101829052610ed79085907f23b872dd00000000000000000000000000000000000000000000000000000000906084015b604080517fffffffffffffffffffffffffffffffffffffffffffffffffffffffffffffffe08184030181529190526020810180517bffffffffffffffffffffffffffffffffffffffffffffffffffffffff167fffffffff0000000000000000000000000000000000000000000000000000000090931692909217909152613f23565b60405173ffffffffffffffffffffffffffffffffffffffff831660248201526044810182905261065f9084907fa9059cbb0000000000000000000000000000000000000000000000000000000090606401613e4b565b6000613f85826040518060400160405280602081526020017f5361666545524332303a206c6f772d6c6576656c2063616c6c206661696c65648152508573ffffffffffffffffffffffffffffffffffffffff1661402f9092919063ffffffff16565b80519091501561065f5780806020019051810190613fa391906156b6565b61065f576040517f08c379a000000000000000000000000000000000000000000000000000000000815260206004820152602a60248201527f5361666545524332303a204552433230206f7065726174696f6e20646964206e60448201527f6f742073756363656564000000000000000000000000000000000000000000006064820152608401610597565b60606106868484600085856000808673ffffffffffffffffffffffffffffffffffffffff168587604051614063919061552b565b60006040518083038185875af1925050503d80600081146140a0576040519150601f19603f3d011682016040523d82523d6000602084013e6140a5565b606091505b50915091506140b6878383876140c1565b979650505050505050565b606083156141575782516000036141505773ffffffffffffffffffffffffffffffffffffffff85163b614150576040517f08c379a000000000000000000000000000000000000000000000000000000000815260206004820152601d60248201527f416464726573733a2063616c6c20746f206e6f6e2d636f6e74726163740000006044820152606401610597565b5081610686565b610686838361346f565b6040518060600160405280606081526020016060815260200161419e60405180606001604052806060815260200160608152602001606081525090565b905290565b7fffffffff00000000000000000000000000000000000000000000000000000000811681146111dd57600080fd5b6000602082840312156141e357600080fd5b8135610d1a816141a3565b60005b838110156142095781810151838201526020016141f1565b50506000910152565b6000815180845261422a8160208601602086016141ee565b601f017fffffffffffffffffffffffffffffffffffffffffffffffffffffffffffffffe0169290920160200192915050565b602081526000610d1a6020830184614212565b60006020828403121561428157600080fd5b5035919050565b73ffffffffffffffffffffffffffffffffffffffff811681146111dd57600080fd5b600080604083850312156142bd57600080fd5b82356142c881614288565b946020939093013593505050565b7f4e487b7100000000000000000000000000000000000000000000000000000000600052604160045260246000fd5b6040516060810167ffffffffffffffff81118282101715614328576143286142d6565b60405290565b60405160a0810167ffffffffffffffff81118282101715614328576143286142d6565b604051601f82017fffffffffffffffffffffffffffffffffffffffffffffffffffffffffffffffe016810167ffffffffffffffff81118282101715614398576143986142d6565b604052919050565b600082601f8301126143b157600080fd5b813567ffffffffffffffff8111156143cb576143cb6142d6565b6143fc60207fffffffffffffffffffffffffffffffffffffffffffffffffffffffffffffffe0601f84011601614351565b81815284602083860101111561441157600080fd5b816020850160208301376000918101602001919091529392505050565b6000806000806080858703121561444457600080fd5b843561444f81614288565b9350602085013561445f81614288565b925060408501359150606085013567ffffffffffffffff81111561448257600080fd5b61448e878288016143a0565b91505092959194509250565b6000806000606084860312156144af57600080fd5b83356144ba81614288565b925060208401356144ca81614288565b929592945050506040919091013590565b600080602083850312156144ee57600080fd5b823567ffffffffffffffff8082111561450657600080fd5b818501915085601f83011261451a57600080fd5b81358181111561452957600080fd5b86602082850101111561453b57600080fd5b60209290920196919550909350505050565b60006020828403121561455f57600080fd5b8135610d1a81614288565b600067ffffffffffffffff821115614584576145846142d6565b5060051b60200190565b600082601f83011261459f57600080fd5b813560206145b46145af8361456a565b614351565b82815260059290921b840181019181810190868411156145d357600080fd5b8286015b848110156145ee57803583529183019183016145d7565b509695505050505050565b600080600083850360a081121561460f57600080fd5b606081121561461d57600080fd5b50614626614305565b843561463181614288565b815260208581013561464281614288565b82820152604086013561465481614288565b604083015290935060608501359067ffffffffffffffff8083111561467857600080fd5b6146848884890161458e565b9450608087013592508083111561469a57600080fd5b828701925087601f8401126146ae57600080fd5b82356146bc6145af8261456a565b81815260059190911b8401830190838101908a8311156146db57600080fd5b8486015b8381101561479e578035858111156146f75760008081fd5b87016060818e037fffffffffffffffffffffffffffffffffffffffffffffffffffffffffffffffe001121561472c5760008081fd5b614734614305565b8782013561474181614288565b81526040820135878111156147565760008081fd5b6147648f8a8386010161458e565b898301525060608201358781111561477c5760008081fd5b61478a8f8a838601016143a0565b6040830152508452509185019185016146df565b508096505050505050509250925092565b600081518084526020808501945080840160005b83811015614800578151805173ffffffffffffffffffffffffffffffffffffffff16885283015183880152604090960195908201906001016147c3565b509495945050505050565b600081518084526020808501945080840160005b83811015614800578151805173ffffffffffffffffffffffffffffffffffffffff9081168952848201518116858a015260408083015190911690890152606080820151908901526080908101519088015260a0909601959082019060010161481f565b600060208083526080845160608386015261489f828601826147af565b9050828601517fffffffffffffffffffffffffffffffffffffffffffffffffffffffffffffffe0808784030160408801526148da83836147af565b92506040880151915080878403016060880152506060820181516060845281815180845286860191508783019350600092505b808310156149715761495d82855173ffffffffffffffffffffffffffffffffffffffff80825116835280602083015116602084015280604083015116604084015250606081015160608301525050565b92870192600192909201919086019061490d565b5083870151858203868901528051808352908801935090870191506000905b808210156149f4576149e083855173ffffffffffffffffffffffffffffffffffffffff80825116835280602083015116602084015280604083015116604084015250606081015160608301525050565b928701929186019160019190910190614990565b5050604083015195508381036040850152614a0f818761480b565b9998505050505050505050565b80151581146111dd57600080fd5b60008060408385031215614a3d57600080fd5b8235614a4881614288565b91506020830135614a5881614a1c565b809150509250929050565b60008060208385031215614a7657600080fd5b823567ffffffffffffffff80821115614a8e57600080fd5b818501915085601f830112614aa257600080fd5b813581811115614ab157600080fd5b8660208260051b850101111561453b57600080fd5b600081518084526020808501808196508360051b8101915082860160005b85811015614b0e578284038952614afc848351614212565b98850198935090840190600101614ae4565b5091979650505050505050565b602081526000610d1a6020830184614ac6565b600080600080600060a08688031215614b4657600080fd5b8535614b5181614288565b94506020860135614b6181614288565b9350604086013567ffffffffffffffff80821115614b7e57600080fd5b614b8a89838a0161458e565b94506060880135915080821115614ba057600080fd5b614bac89838a0161458e565b93506080880135915080821115614bc257600080fd5b50614bcf888289016143a0565b9150509295509295909350565b60008060408385031215614bef57600080fd5b8235614bfa81614288565b91506020830135614a5881614288565b600080600080600060a08688031215614c2257600080fd5b8535614c2d81614288565b94506020860135614c3d81614288565b93506040860135925060608601359150608086013567ffffffffffffffff811115614c6757600080fd5b614bcf888289016143a0565b600181811c90821680614c8757607f821691505b602082108103614cc0577f4e487b7100000000000000000000000000000000000000000000000000000000600052602260045260246000fd5b50919050565b600060608284031215614cd857600080fd5b614ce0614305565b90508135614ced81614288565b815260208281013567ffffffffffffffff80821115614d0b57600080fd5b818501915085601f830112614d1f57600080fd5b8135614d2d6145af8261456a565b81815260059190911b83018401908481019088831115614d4c57600080fd5b8585015b83811015614d8457803585811115614d685760008081fd5b614d768b89838a01016143a0565b845250918601918601614d50565b5080868801525050506040850135925080831115614da157600080fd5b5050614daf8482850161458e565b60408301525092915050565b600082601f830112614dcc57600080fd5b81356020614ddc6145af8361456a565b82815260059290921b84018101918181019086841115614dfb57600080fd5b8286015b848110156145ee57803567ffffffffffffffff811115614e1f5760008081fd5b614e2d8986838b0101614cc6565b845250918301918301614dff565b600060208284031215614e4d57600080fd5b813567ffffffffffffffff80821115614e6557600080fd5b9083019060a08286031215614e7957600080fd5b614e8161432e565b823582811115614e9057600080fd5b614e9c878286016143a0565b825250602083013582811115614eb157600080fd5b614ebd878286016143a0565b602083015250604083013582811115614ed557600080fd5b614ee1878286016143a0565b604083015250606083013582811115614ef957600080fd5b614f0587828601614cc6565b606083015250608083013582811115614f1d57600080fd5b614f2987828601614dbb565b60808301525095945050505050565b600081518084526020808501945080840160005b8381101561480057815187529582019590820190600101614f4c565b73ffffffffffffffffffffffffffffffffffffffff81511682526000602082015160606020850152614f9d6060850182614ac6565b9050604083015184820360408601526121618282614f38565b73ffffffffffffffffffffffffffffffffffffffff8316815260006020604081840152835160a06040850152614fef60e0850182614212565b9050818501517fffffffffffffffffffffffffffffffffffffffffffffffffffffffffffffffc08086840301606087015261502a8383614212565b925060408701519150808684030160808701526150478383614212565b925060608701519150808684030160a08701526150648383614f68565b608088015187820390920160c08801528151808252909350908401915083830190600581901b8401850160005b828110156150dd577fffffffffffffffffffffffffffffffffffffffffffffffffffffffffffffffe08683030184526150cb828651614f68565b94870194938701939150600101615091565b509998505050505050505050565b601f82111561065f57600081815260208120601f850160051c810160208610156151125750805b601f850160051c820191505b8181101561274b5782815560010161511e565b815167ffffffffffffffff81111561514b5761514b6142d6565b61515f816151598454614c73565b846150eb565b602080601f8311600181146151b2576000841561517c5750858301515b7fffffffffffffffffffffffffffffffffffffffffffffffffffffffffffffffff600386901b1c1916600185901b17855561274b565b6000858152602081207fffffffffffffffffffffffffffffffffffffffffffffffffffffffffffffffe08616915b828110156151ff578886015182559484019460019091019084016151e0565b508582101561523b57878501517fffffffffffffffffffffffffffffffffffffffffffffffffffffffffffffffff600388901b60f8161c191681555b5050505050600190811b01905550565b7f4e487b7100000000000000000000000000000000000000000000000000000000600052601160045260246000fd5b808201808211156104055761040561524b565b7f4e487b7100000000000000000000000000000000000000000000000000000000600052603260045260246000fd5b6060815260006152cf6060830186614ac6565b82810360208401526152e18186614f38565b905082810360408401526152f58185614f38565b9695505050505050565b60008060006060848603121561531457600080fd5b835161531f81614288565b602085015190935061533081614288565b604085015190925061534181614288565b809150509250925092565b60008083357fffffffffffffffffffffffffffffffffffffffffffffffffffffffffffffffe184360301811261538157600080fd5b83018035915067ffffffffffffffff82111561539c57600080fd5b602001915036819003821315611ef657600080fd5b60007fffffffffffffffffffffffffffffffffffffffffffffffffffffffffffffffff82036153e2576153e261524b565b5060010190565b600081518084526020808501808196508360051b8101915082860160005b85811015614b0e57828403895261541f848351614f38565b98850198935090840190600101615407565b73ffffffffffffffffffffffffffffffffffffffff851681528360208201528260408201526080606082015260006152f560808301846153e9565b600082601f83011261547d57600080fd5b8151602061548d6145af8361456a565b82815260059290921b840181019181810190868411156154ac57600080fd5b8286015b848110156145ee57805183529183019183016154b0565b600080604083850312156154da57600080fd5b825167ffffffffffffffff808211156154f257600080fd5b6154fe8683870161546c565b9350602085015191508082111561551457600080fd5b506155218582860161546c565b9150509250929050565b6000825161553d8184602087016141ee565b9190910192915050565b600083516155598184602088016141ee565b83519083019061556d8183602088016141ee565b01949350505050565b73ffffffffffffffffffffffffffffffffffffffff8316815260406020820152600061068660408301846153e9565b8281526040602082015260006106866040830184614f38565b7f4e487b7100000000000000000000000000000000000000000000000000000000600052602160045260246000fd5b8281526040602082015260006106866040830184614212565b60006020828403121561561857600080fd5b5051919050565b600082615655577f4e487b7100000000000000000000000000000000000000000000000000000000600052601260045260246000fd5b500490565b600073ffffffffffffffffffffffffffffffffffffffff8087168352808616602084015250836040830152608060608301526152f56080830184614212565b6000602082840312156156ab57600080fd5b8151610d1a816141a3565b6000602082840312156156c857600080fd5b8151610d1a81614a1c56fe416464726573733a206c6f772d6c6576656c2064656c65676174652063616c6c206661696c6564a26469706673582212205c07d7d5207340c8e1af5185aa57b66d8c3009a2d78760c58b630eb143f1f2fa64736f6c63430008130033",
  "linkReferences": {},
  "deployedLinkReferences": {}
}