{
  "_format": "hh-sol-artifact-1",
  "contractName": "LibSeedTest",
  "sourceName": "contracts/test/dance/SeedDance/LibSeedTest.sol",
  "abi": [
    {
      "inputs": [
        {
          "internalType": "Seed",
          "name": "seed_",
          "type": "uint256"
        },
        {
          "internalType": "uint256",
          "name": "val_",
          "type": "uint256"
        }
      ],
      "name": "with",
      "outputs": [
        {
          "internalType": "Seed",
          "name": "newSeed_",
          "type": "uint256"
        }
      ],
      "stateMutability": "pure",
      "type": "function"
    }
  ],
  "bytecode": "0x608060405234801561001057600080fd5b5060cd8061001f6000396000f3fe6080604052348015600f57600080fd5b506004361060285760003560e01c80632d586d6014602d575b600080fd5b606460383660046076565b604080516020808201949094528082019290925280518083038201815260609092019052805191012090565b60405190815260200160405180910390f35b60008060408385031215608857600080fd5b5050803592602090910135915056fea26469706673582212205e682d334b13f28708579a985728ba712f4a6a2eaabbbd809b206ccfe60cac0364736f6c63430008130033",
  "linkReferences": {},
  "deployedLinkReferences": {}
}