{
  "_format": "hh-sol-artifact-1",
  "contractName": "RedeemableERC20Reentrant",
  "sourceName": "contracts/test/redeemableERC20/RedeemableERC20/RedeemableERC20Reentrant.sol",
  "abi": [
    {
      "anonymous": false,
      "inputs": [
        {
          "indexed": true,
          "internalType": "address",
          "name": "owner",
          "type": "address"
        },
        {
          "indexed": true,
          "internalType": "address",
          "name": "spender",
          "type": "address"
        },
        {
          "indexed": false,
          "internalType": "uint256",
          "name": "value",
          "type": "uint256"
        }
      ],
      "name": "Approval",
      "type": "event"
    },
    {
      "anonymous": false,
      "inputs": [
        {
          "indexed": false,
          "internalType": "uint8",
          "name": "version",
          "type": "uint8"
        }
      ],
      "name": "Initialized",
      "type": "event"
    },
    {
      "anonymous": false,
      "inputs": [
        {
          "indexed": true,
          "internalType": "address",
          "name": "from",
          "type": "address"
        },
        {
          "indexed": true,
          "internalType": "address",
          "name": "to",
          "type": "address"
        },
        {
          "indexed": false,
          "internalType": "uint256",
          "name": "value",
          "type": "uint256"
        }
      ],
      "name": "Transfer",
      "type": "event"
    },
    {
      "inputs": [],
      "name": "DECIMALS",
      "outputs": [
        {
          "internalType": "uint256",
          "name": "",
          "type": "uint256"
        }
      ],
      "stateMutability": "view",
      "type": "function"
    },
    {
      "inputs": [],
      "name": "TOTAL_SUPPLY",
      "outputs": [
        {
          "internalType": "uint256",
          "name": "",
          "type": "uint256"
        }
      ],
      "stateMutability": "view",
      "type": "function"
    },
    {
      "inputs": [
        {
          "internalType": "address",
          "name": "account_",
          "type": "address"
        }
      ],
      "name": "addFreezable",
      "outputs": [],
      "stateMutability": "nonpayable",
      "type": "function"
    },
    {
      "inputs": [
        {
          "internalType": "contract RedeemableERC20",
          "name": "redeemableERC20_",
          "type": "address"
        }
      ],
      "name": "addReentrantTarget",
      "outputs": [],
      "stateMutability": "nonpayable",
      "type": "function"
    },
    {
      "inputs": [
        {
          "internalType": "address",
          "name": "owner",
          "type": "address"
        },
        {
          "internalType": "address",
          "name": "spender",
          "type": "address"
        }
      ],
      "name": "allowance",
      "outputs": [
        {
          "internalType": "uint256",
          "name": "",
          "type": "uint256"
        }
      ],
      "stateMutability": "view",
      "type": "function"
    },
    {
      "inputs": [
        {
          "internalType": "address",
          "name": "spender",
          "type": "address"
        },
        {
          "internalType": "uint256",
          "name": "amount",
          "type": "uint256"
        }
      ],
      "name": "approve",
      "outputs": [
        {
          "internalType": "bool",
          "name": "",
          "type": "bool"
        }
      ],
      "stateMutability": "nonpayable",
      "type": "function"
    },
    {
      "inputs": [
        {
          "internalType": "address",
          "name": "account",
          "type": "address"
        }
      ],
      "name": "balanceOf",
      "outputs": [
        {
          "internalType": "uint256",
          "name": "",
          "type": "uint256"
        }
      ],
      "stateMutability": "view",
      "type": "function"
    },
    {
      "inputs": [
        {
          "internalType": "uint256",
          "name": "amount",
          "type": "uint256"
        }
      ],
      "name": "burn",
      "outputs": [],
      "stateMutability": "nonpayable",
      "type": "function"
    },
    {
      "inputs": [
        {
          "internalType": "address",
          "name": "account",
          "type": "address"
        },
        {
          "internalType": "uint256",
          "name": "amount",
          "type": "uint256"
        }
      ],
      "name": "burnFrom",
      "outputs": [],
      "stateMutability": "nonpayable",
      "type": "function"
    },
    {
      "inputs": [],
      "name": "decimals",
      "outputs": [
        {
          "internalType": "uint8",
          "name": "",
          "type": "uint8"
        }
      ],
      "stateMutability": "pure",
      "type": "function"
    },
    {
      "inputs": [
        {
          "internalType": "address",
          "name": "spender",
          "type": "address"
        },
        {
          "internalType": "uint256",
          "name": "subtractedValue",
          "type": "uint256"
        }
      ],
      "name": "decreaseAllowance",
      "outputs": [
        {
          "internalType": "bool",
          "name": "",
          "type": "bool"
        }
      ],
      "stateMutability": "nonpayable",
      "type": "function"
    },
    {
      "inputs": [
        {
          "internalType": "address",
          "name": "",
          "type": "address"
        }
      ],
      "name": "freezables",
      "outputs": [
        {
          "internalType": "bool",
          "name": "",
          "type": "bool"
        }
      ],
      "stateMutability": "view",
      "type": "function"
    },
    {
      "inputs": [
        {
          "internalType": "address",
          "name": "spender",
          "type": "address"
        },
        {
          "internalType": "uint256",
          "name": "addedValue",
          "type": "uint256"
        }
      ],
      "name": "increaseAllowance",
      "outputs": [
        {
          "internalType": "bool",
          "name": "",
          "type": "bool"
        }
      ],
      "stateMutability": "nonpayable",
      "type": "function"
    },
    {
      "inputs": [],
      "name": "initialize",
      "outputs": [],
      "stateMutability": "nonpayable",
      "type": "function"
    },
    {
      "inputs": [],
      "name": "name",
      "outputs": [
        {
          "internalType": "string",
          "name": "",
          "type": "string"
        }
      ],
      "stateMutability": "view",
      "type": "function"
    },
    {
      "inputs": [],
      "name": "symbol",
      "outputs": [
        {
          "internalType": "string",
          "name": "",
          "type": "string"
        }
      ],
      "stateMutability": "view",
      "type": "function"
    },
    {
      "inputs": [],
      "name": "totalSupply",
      "outputs": [
        {
          "internalType": "uint256",
          "name": "",
          "type": "uint256"
        }
      ],
      "stateMutability": "view",
      "type": "function"
    },
    {
      "inputs": [
        {
          "internalType": "address",
          "name": "to",
          "type": "address"
        },
        {
          "internalType": "uint256",
          "name": "amount",
          "type": "uint256"
        }
      ],
      "name": "transfer",
      "outputs": [
        {
          "internalType": "bool",
          "name": "",
          "type": "bool"
        }
      ],
      "stateMutability": "nonpayable",
      "type": "function"
    },
    {
      "inputs": [
        {
          "internalType": "address",
          "name": "from",
          "type": "address"
        },
        {
          "internalType": "address",
          "name": "to",
          "type": "address"
        },
        {
          "internalType": "uint256",
          "name": "amount",
          "type": "uint256"
        }
      ],
      "name": "transferFrom",
      "outputs": [
        {
          "internalType": "bool",
          "name": "",
          "type": "bool"
        }
      ],
      "stateMutability": "nonpayable",
      "type": "function"
    }
  ],
  "bytecode": "0x608060405234801561001057600080fd5b50611874806100206000396000f3fe608060405234801561001057600080fd5b50600436106101515760003560e01c806348ea30da116100cd578063902d55a511610081578063a457c2d711610066578063a457c2d714610331578063a9059cbb14610344578063dd62ed3e1461035757600080fd5b8063902d55a51461032157806395d89b411461032957600080fd5b806370a08231116100b257806370a08231146102d057806379cc6790146103065780638129fc1c1461031957600080fd5b806348ea30da1461021e5780635bb9058b1461027357600080fd5b80632e0f262511610124578063395093511161010957806339509351146101d357806342966c68146101e657806348422faa146101fb57600080fd5b80632e0f2625146101bc578063313ce567146101c457600080fd5b806306fdde0314610156578063095ea7b31461017457806318160ddd1461019757806323b872dd146101a9575b600080fd5b61015e61039d565b60405161016b91906112e8565b60405180910390f35b610187610182366004611376565b61042f565b604051901515815260200161016b565b6035545b60405190815260200161016b565b6101876101b73660046113a2565b610449565b61019b600681565b6040516006815260200161016b565b6101876101e1366004611376565b61046d565b6101f96101f43660046113e3565b6104b9565b005b6101876102093660046113fc565b60976020526000908152604090205460ff1681565b6101f961022c3660046113fc565b609880547fffffffffffffffffffffffff00000000000000000000000000000000000000001673ffffffffffffffffffffffffffffffffffffffff92909216919091179055565b6101f96102813660046113fc565b73ffffffffffffffffffffffffffffffffffffffff16600090815260976020526040902080547fffffffffffffffffffffffffffffffffffffffffffffffffffffffffffffff00166001179055565b61019b6102de3660046113fc565b73ffffffffffffffffffffffffffffffffffffffff1660009081526033602052604090205490565b6101f9610314366004611376565b6104c6565b6101f96104df565b61019b610701565b61015e61071b565b61018761033f366004611376565b61072a565b610187610352366004611376565b6107fb565b61019b610365366004611420565b73ffffffffffffffffffffffffffffffffffffffff918216600090815260346020908152604080832093909416825291909152205490565b6060603680546103ac90611459565b80601f01602080910402602001604051908101604052809291908181526020018280546103d890611459565b80156104255780601f106103fa57610100808354040283529160200191610425565b820191906000526020600020905b81548152906001019060200180831161040857829003601f168201915b5050505050905090565b60003361043d818585610809565b60019150505b92915050565b6000336104578582856109bd565b610462858585610a94565b506001949350505050565b33600081815260346020908152604080832073ffffffffffffffffffffffffffffffffffffffff8716845290915281205490919061043d90829086906104b49087906114db565b610809565b6104c33382610d15565b50565b6104d18233836109bd565b6104db8282610d15565b5050565b600054610100900460ff16158080156104ff5750600054600160ff909116105b806105195750303b158015610519575060005460ff166001145b6105aa576040517f08c379a000000000000000000000000000000000000000000000000000000000815260206004820152602e60248201527f496e697469616c697a61626c653a20636f6e747261637420697320616c72656160448201527f647920696e697469616c697a656400000000000000000000000000000000000060648201526084015b60405180910390fd5b600080547fffffffffffffffffffffffffffffffffffffffffffffffffffffffffffffff00166001179055801561060857600080547fffffffffffffffffffffffffffffffffffffffffffffffffffffffffffff00ff166101001790555b61067c6040518060400160405280600b81526020017f55534420436c61737369630000000000000000000000000000000000000000008152506040518060400160405280600581526020017f5553444343000000000000000000000000000000000000000000000000000000815250610ee4565b61069c3361068c600660096114db565b61069790600a61160e565b610f85565b80156104c357600080547fffffffffffffffffffffffffffffffffffffffffffffffffffffffffffff00ff169055604051600181527f7f26b83ff96e1f2b6a682f133852f6798a09c465da95921460cefb38474024989060200160405180910390a150565b61070d600660096114db565b61071890600a61160e565b81565b6060603780546103ac90611459565b33600081815260346020908152604080832073ffffffffffffffffffffffffffffffffffffffff87168452909152812054909190838110156107ee576040517f08c379a000000000000000000000000000000000000000000000000000000000815260206004820152602560248201527f45524332303a2064656372656173656420616c6c6f77616e63652062656c6f7760448201527f207a65726f00000000000000000000000000000000000000000000000000000060648201526084016105a1565b6104628286868403610809565b60003361043d818585610a94565b73ffffffffffffffffffffffffffffffffffffffff83166108ab576040517f08c379a0000000000000000000000000000000000000000000000000000000008152602060048201526024808201527f45524332303a20617070726f76652066726f6d20746865207a65726f2061646460448201527f726573730000000000000000000000000000000000000000000000000000000060648201526084016105a1565b73ffffffffffffffffffffffffffffffffffffffff821661094e576040517f08c379a000000000000000000000000000000000000000000000000000000000815260206004820152602260248201527f45524332303a20617070726f766520746f20746865207a65726f20616464726560448201527f737300000000000000000000000000000000000000000000000000000000000060648201526084016105a1565b73ffffffffffffffffffffffffffffffffffffffff83811660008181526034602090815260408083209487168084529482529182902085905590518481527f8c5be1e5ebec7d5bd14f71427d1e84f3dd0314c0f7b2291e5b200ac8c7c3b92591015b60405180910390a3505050565b73ffffffffffffffffffffffffffffffffffffffff8381166000908152603460209081526040808320938616835292905220547fffffffffffffffffffffffffffffffffffffffffffffffffffffffffffffffff8114610a8e5781811015610a81576040517f08c379a000000000000000000000000000000000000000000000000000000000815260206004820152601d60248201527f45524332303a20696e73756666696369656e7420616c6c6f77616e636500000060448201526064016105a1565b610a8e8484848403610809565b50505050565b73ffffffffffffffffffffffffffffffffffffffff8316610b37576040517f08c379a000000000000000000000000000000000000000000000000000000000815260206004820152602560248201527f45524332303a207472616e736665722066726f6d20746865207a65726f20616460448201527f647265737300000000000000000000000000000000000000000000000000000060648201526084016105a1565b73ffffffffffffffffffffffffffffffffffffffff8216610bda576040517f08c379a000000000000000000000000000000000000000000000000000000000815260206004820152602360248201527f45524332303a207472616e7366657220746f20746865207a65726f206164647260448201527f657373000000000000000000000000000000000000000000000000000000000060648201526084016105a1565b610be5838383611086565b73ffffffffffffffffffffffffffffffffffffffff831660009081526033602052604090205481811015610c9b576040517f08c379a000000000000000000000000000000000000000000000000000000000815260206004820152602660248201527f45524332303a207472616e7366657220616d6f756e742065786365656473206260448201527f616c616e6365000000000000000000000000000000000000000000000000000060648201526084016105a1565b73ffffffffffffffffffffffffffffffffffffffff80851660008181526033602052604080822086860390559286168082529083902080548601905591517fddf252ad1be2c89b69c2b068fc378daa952ba7f163c4a11628f55a4df523b3ef90610d089086815260200190565b60405180910390a3610a8e565b73ffffffffffffffffffffffffffffffffffffffff8216610db8576040517f08c379a000000000000000000000000000000000000000000000000000000000815260206004820152602160248201527f45524332303a206275726e2066726f6d20746865207a65726f2061646472657360448201527f730000000000000000000000000000000000000000000000000000000000000060648201526084016105a1565b610dc482600083611086565b73ffffffffffffffffffffffffffffffffffffffff821660009081526033602052604090205481811015610e7a576040517f08c379a000000000000000000000000000000000000000000000000000000000815260206004820152602260248201527f45524332303a206275726e20616d6f756e7420657863656564732062616c616e60448201527f636500000000000000000000000000000000000000000000000000000000000060648201526084016105a1565b73ffffffffffffffffffffffffffffffffffffffff831660008181526033602090815260408083208686039055603580548790039055518581529192917fddf252ad1be2c89b69c2b068fc378daa952ba7f163c4a11628f55a4df523b3ef91016109b0565b505050565b600054610100900460ff16610f7b576040517f08c379a000000000000000000000000000000000000000000000000000000000815260206004820152602b60248201527f496e697469616c697a61626c653a20636f6e7472616374206973206e6f74206960448201527f6e697469616c697a696e6700000000000000000000000000000000000000000060648201526084016105a1565b6104db82826111a8565b73ffffffffffffffffffffffffffffffffffffffff8216611002576040517f08c379a000000000000000000000000000000000000000000000000000000000815260206004820152601f60248201527f45524332303a206d696e7420746f20746865207a65726f20616464726573730060448201526064016105a1565b61100e60008383611086565b806035600082825461102091906114db565b909155505073ffffffffffffffffffffffffffffffffffffffff82166000818152603360209081526040808320805486019055518481527fddf252ad1be2c89b69c2b068fc378daa952ba7f163c4a11628f55a4df523b3ef910160405180910390a35050565b611091838383611258565b73ffffffffffffffffffffffffffffffffffffffff8316158015906110d0575060985473ffffffffffffffffffffffffffffffffffffffff8481169116145b15610edf5760408051600180825281830190925260009160208083019080368337019050509050308160008151811061110b5761110b611649565b73ffffffffffffffffffffffffffffffffffffffff92831660209182029290920101526098546040517ff677de9600000000000000000000000000000000000000000000000000000000815291169063f677de96906111709084908690600401611678565b600060405180830381600087803b15801561118a57600080fd5b505af115801561119e573d6000803e3d6000fd5b5050505050505050565b600054610100900460ff1661123f576040517f08c379a000000000000000000000000000000000000000000000000000000000815260206004820152602b60248201527f496e697469616c697a61626c653a20636f6e7472616374206973206e6f74206960448201527f6e697469616c697a696e6700000000000000000000000000000000000000000060648201526084016105a1565b603661124b8382611724565b506037610edf8282611724565b73ffffffffffffffffffffffffffffffffffffffff821660009081526097602052604090205460ff1615610edf576040517f08c379a000000000000000000000000000000000000000000000000000000000815260206004820152600660248201527f46524f5a454e000000000000000000000000000000000000000000000000000060448201526064016105a1565b600060208083528351808285015260005b81811015611315578581018301518582016040015282016112f9565b5060006040828601015260407fffffffffffffffffffffffffffffffffffffffffffffffffffffffffffffffe0601f8301168501019250505092915050565b73ffffffffffffffffffffffffffffffffffffffff811681146104c357600080fd5b6000806040838503121561138957600080fd5b823561139481611354565b946020939093013593505050565b6000806000606084860312156113b757600080fd5b83356113c281611354565b925060208401356113d281611354565b929592945050506040919091013590565b6000602082840312156113f557600080fd5b5035919050565b60006020828403121561140e57600080fd5b813561141981611354565b9392505050565b6000806040838503121561143357600080fd5b823561143e81611354565b9150602083013561144e81611354565b809150509250929050565b600181811c9082168061146d57607f821691505b6020821081036114a6577f4e487b7100000000000000000000000000000000000000000000000000000000600052602260045260246000fd5b50919050565b7f4e487b7100000000000000000000000000000000000000000000000000000000600052601160045260246000fd5b80820180821115610443576104436114ac565b600181815b8085111561154757817fffffffffffffffffffffffffffffffffffffffffffffffffffffffffffffffff0482111561152d5761152d6114ac565b8085161561153a57918102915b93841c93908002906114f3565b509250929050565b60008261155e57506001610443565b8161156b57506000610443565b8160018114611581576002811461158b576115a7565b6001915050610443565b60ff84111561159c5761159c6114ac565b50506001821b610443565b5060208310610133831016604e8410600b84101617156115ca575081810a610443565b6115d483836114ee565b807fffffffffffffffffffffffffffffffffffffffffffffffffffffffffffffffff04821115611606576116066114ac565b029392505050565b6000611419838361154f565b7f4e487b7100000000000000000000000000000000000000000000000000000000600052604160045260246000fd5b7f4e487b7100000000000000000000000000000000000000000000000000000000600052603260045260246000fd5b604080825283519082018190526000906020906060840190828701845b828110156116c757815173ffffffffffffffffffffffffffffffffffffffff1684529284019290840190600101611695565b50505092019290925292915050565b601f821115610edf57600081815260208120601f850160051c810160208610156116fd5750805b601f850160051c820191505b8181101561171c57828155600101611709565b505050505050565b815167ffffffffffffffff81111561173e5761173e61161a565b6117528161174c8454611459565b846116d6565b602080601f8311600181146117a5576000841561176f5750858301515b7fffffffffffffffffffffffffffffffffffffffffffffffffffffffffffffffff600386901b1c1916600185901b17855561171c565b6000858152602081207fffffffffffffffffffffffffffffffffffffffffffffffffffffffffffffffe08616915b828110156117f2578886015182559484019460019091019084016117d3565b508582101561182e57878501517fffffffffffffffffffffffffffffffffffffffffffffffffffffffffffffffff600388901b60f8161c191681555b5050505050600190811b0190555056fea2646970667358221220a95789eb7442727b143e6a4ce868480e7ae6adc99f0d3fc1c734f2faa2654c4c64736f6c63430008130033",
  "linkReferences": {},
  "deployedLinkReferences": {}
}