{
  "_format": "hh-sol-artifact-1",
  "contractName": "LibStackPointerTest",
  "sourceName": "contracts/test/interpreter/runtime/LibStackTop/LibStackTopTest.sol",
  "abi": [
    {
      "inputs": [
        {
          "internalType": "uint256",
          "name": "expectedLength",
          "type": "uint256"
        },
        {
          "internalType": "uint256",
          "name": "actualLength",
          "type": "uint256"
        }
      ],
      "name": "UnexpectedResultLength",
      "type": "error"
    },
    {
      "inputs": [
        {
          "internalType": "uint256[]",
          "name": "array_",
          "type": "uint256[]"
        },
        {
          "internalType": "uint256",
          "name": "operand_",
          "type": "uint256"
        }
      ],
      "name": "applyFn",
      "outputs": [
        {
          "internalType": "StackPointer",
          "name": "stackTop_",
          "type": "uint256"
        }
      ],
      "stateMutability": "nonpayable",
      "type": "function"
    },
    {
      "inputs": [
        {
          "internalType": "uint256[]",
          "name": "array_",
          "type": "uint256[]"
        }
      ],
      "name": "applyFn",
      "outputs": [
        {
          "internalType": "StackPointer",
          "name": "stackTop_",
          "type": "uint256"
        }
      ],
      "stateMutability": "nonpayable",
      "type": "function"
    },
    {
      "inputs": [
        {
          "internalType": "uint256[]",
          "name": "array_",
          "type": "uint256[]"
        },
        {
          "internalType": "uint256",
          "name": "length_",
          "type": "uint256"
        }
      ],
      "name": "applyFn2Heads",
      "outputs": [
        {
          "internalType": "StackPointer",
          "name": "stackTop_",
          "type": "uint256"
        }
      ],
      "stateMutability": "nonpayable",
      "type": "function"
    },
    {
      "inputs": [
        {
          "internalType": "uint256[]",
          "name": "array_",
          "type": "uint256[]"
        },
        {
          "internalType": "uint256",
          "name": "operand_",
          "type": "uint256"
        }
      ],
      "name": "applyFn2Operand",
      "outputs": [
        {
          "internalType": "StackPointer",
          "name": "stackTop_",
          "type": "uint256"
        }
      ],
      "stateMutability": "nonpayable",
      "type": "function"
    },
    {
      "inputs": [
        {
          "internalType": "uint256[]",
          "name": "array_",
          "type": "uint256[]"
        },
        {
          "internalType": "uint256",
          "name": "length_",
          "type": "uint256"
        }
      ],
      "name": "applyFn2Tails",
      "outputs": [
        {
          "internalType": "StackPointer",
          "name": "stackTop_",
          "type": "uint256"
        }
      ],
      "stateMutability": "nonpayable",
      "type": "function"
    },
    {
      "inputs": [
        {
          "internalType": "uint256[]",
          "name": "array_",
          "type": "uint256[]"
        },
        {
          "internalType": "uint256",
          "name": "length_",
          "type": "uint256"
        }
      ],
      "name": "applyFn2TailsWithErrorFn",
      "outputs": [
        {
          "internalType": "StackPointer",
          "name": "stackTop_",
          "type": "uint256"
        }
      ],
      "stateMutability": "nonpayable",
      "type": "function"
    },
    {
      "inputs": [
        {
          "internalType": "uint256[]",
          "name": "array_",
          "type": "uint256[]"
        },
        {
          "internalType": "uint256",
          "name": "length_",
          "type": "uint256"
        }
      ],
      "name": "applyFn3Heads",
      "outputs": [
        {
          "internalType": "StackPointer",
          "name": "stackTop_",
          "type": "uint256"
        }
      ],
      "stateMutability": "nonpayable",
      "type": "function"
    },
    {
      "inputs": [
        {
          "internalType": "uint256[]",
          "name": "array_",
          "type": "uint256[]"
        }
      ],
      "name": "applyFn3Summer",
      "outputs": [
        {
          "internalType": "StackPointer",
          "name": "stackTop_",
          "type": "uint256"
        }
      ],
      "stateMutability": "nonpayable",
      "type": "function"
    },
    {
      "inputs": [
        {
          "internalType": "uint256[]",
          "name": "array_",
          "type": "uint256[]"
        },
        {
          "internalType": "uint256",
          "name": "n_",
          "type": "uint256"
        }
      ],
      "name": "applyFnNSummer",
      "outputs": [
        {
          "internalType": "StackPointer",
          "name": "stackTop_",
          "type": "uint256"
        }
      ],
      "stateMutability": "nonpayable",
      "type": "function"
    },
    {
      "inputs": [
        {
          "internalType": "uint256[]",
          "name": "array_",
          "type": "uint256[]"
        }
      ],
      "name": "applyFnSummer",
      "outputs": [
        {
          "internalType": "StackPointer",
          "name": "stackTop_",
          "type": "uint256"
        }
      ],
      "stateMutability": "nonpayable",
      "type": "function"
    },
    {
      "inputs": [
        {
          "internalType": "uint256[]",
          "name": "array_",
          "type": "uint256[]"
        }
      ],
      "name": "asStackPointer",
      "outputs": [
        {
          "internalType": "StackPointer",
          "name": "stackTop_",
          "type": "uint256"
        }
      ],
      "stateMutability": "nonpayable",
      "type": "function"
    },
    {
      "inputs": [
        {
          "internalType": "bytes",
          "name": "bytes_",
          "type": "bytes"
        }
      ],
      "name": "asStackPointer",
      "outputs": [
        {
          "internalType": "StackPointer",
          "name": "stackTop_",
          "type": "uint256"
        }
      ],
      "stateMutability": "nonpayable",
      "type": "function"
    },
    {
      "inputs": [
        {
          "internalType": "bytes",
          "name": "bytes_",
          "type": "bytes"
        }
      ],
      "name": "asStackPointerAsBytes",
      "outputs": [
        {
          "internalType": "bytes",
          "name": "bytesCopy_",
          "type": "bytes"
        }
      ],
      "stateMutability": "nonpayable",
      "type": "function"
    },
    {
      "inputs": [
        {
          "internalType": "uint256[]",
          "name": "array_",
          "type": "uint256[]"
        }
      ],
      "name": "asStackPointerAsUint256Array",
      "outputs": [
        {
          "internalType": "uint256[]",
          "name": "arrayCopy_",
          "type": "uint256[]"
        }
      ],
      "stateMutability": "nonpayable",
      "type": "function"
    },
    {
      "inputs": [
        {
          "internalType": "uint256[]",
          "name": "array_",
          "type": "uint256[]"
        },
        {
          "internalType": "uint256",
          "name": "sentinel_",
          "type": "uint256"
        },
        {
          "internalType": "uint256",
          "name": "stepSize_",
          "type": "uint256"
        }
      ],
      "name": "consumeSentinel",
      "outputs": [
        {
          "internalType": "StackPointer",
          "name": "stackTopSentinel_",
          "type": "uint256"
        },
        {
          "internalType": "uint256[]",
          "name": "arraySentinel_",
          "type": "uint256[]"
        },
        {
          "internalType": "StackPointer",
          "name": "stackTop_",
          "type": "uint256"
        },
        {
          "internalType": "StackPointer",
          "name": "stackBottom_",
          "type": "uint256"
        }
      ],
      "stateMutability": "pure",
      "type": "function"
    },
    {
      "inputs": [
        {
          "internalType": "uint256[]",
          "name": "array_",
          "type": "uint256[]"
        },
        {
          "internalType": "uint256",
          "name": "sentinel_",
          "type": "uint256"
        },
        {
          "internalType": "uint256",
          "name": "stepSize0_",
          "type": "uint256"
        },
        {
          "internalType": "uint256",
          "name": "stepSize1_",
          "type": "uint256"
        }
      ],
      "name": "consumeSentinels",
      "outputs": [
        {
          "internalType": "StackPointer",
          "name": "stackTopSentinel_",
          "type": "uint256"
        },
        {
          "internalType": "uint256[]",
          "name": "arraySentinel0_",
          "type": "uint256[]"
        },
        {
          "internalType": "uint256[]",
          "name": "arraySentinel1_",
          "type": "uint256[]"
        },
        {
          "internalType": "StackPointer",
          "name": "stackTop_",
          "type": "uint256"
        },
        {
          "internalType": "StackPointer",
          "name": "stackBottom_",
          "type": "uint256"
        }
      ],
      "stateMutability": "pure",
      "type": "function"
    },
    {
      "inputs": [
        {
          "internalType": "uint256[]",
          "name": "array_",
          "type": "uint256[]"
        }
      ],
      "name": "down",
      "outputs": [
        {
          "internalType": "StackPointer",
          "name": "stackTopBefore_",
          "type": "uint256"
        },
        {
          "internalType": "StackPointer",
          "name": "stackTopAfter_",
          "type": "uint256"
        }
      ],
      "stateMutability": "nonpayable",
      "type": "function"
    },
    {
      "inputs": [
        {
          "internalType": "uint256[]",
          "name": "array_",
          "type": "uint256[]"
        },
        {
          "internalType": "uint256",
          "name": "n_",
          "type": "uint256"
        }
      ],
      "name": "down",
      "outputs": [
        {
          "internalType": "StackPointer",
          "name": "stackTopBefore_",
          "type": "uint256"
        },
        {
          "internalType": "StackPointer",
          "name": "stackTopAfter_",
          "type": "uint256"
        }
      ],
      "stateMutability": "nonpayable",
      "type": "function"
    },
    {
      "inputs": [
        {
          "internalType": "uint256[]",
          "name": "array_",
          "type": "uint256[]"
        },
        {
          "internalType": "uint256",
          "name": "length_",
          "type": "uint256"
        }
      ],
      "name": "list",
      "outputs": [
        {
          "internalType": "uint256",
          "name": "head_",
          "type": "uint256"
        },
        {
          "internalType": "uint256[]",
          "name": "tail_",
          "type": "uint256[]"
        }
      ],
      "stateMutability": "nonpayable",
      "type": "function"
    },
    {
      "inputs": [
        {
          "internalType": "uint256[]",
          "name": "array_",
          "type": "uint256[]"
        },
        {
          "internalType": "uint256",
          "name": "n_",
          "type": "uint256"
        }
      ],
      "name": "peek",
      "outputs": [
        {
          "internalType": "uint256",
          "name": "a_",
          "type": "uint256"
        }
      ],
      "stateMutability": "nonpayable",
      "type": "function"
    },
    {
      "inputs": [
        {
          "internalType": "bytes",
          "name": "bytes_",
          "type": "bytes"
        },
        {
          "internalType": "uint256",
          "name": "n_",
          "type": "uint256"
        }
      ],
      "name": "peek",
      "outputs": [
        {
          "internalType": "uint256",
          "name": "a_",
          "type": "uint256"
        }
      ],
      "stateMutability": "nonpayable",
      "type": "function"
    },
    {
      "inputs": [
        {
          "internalType": "uint256[]",
          "name": "array_",
          "type": "uint256[]"
        }
      ],
      "name": "peek",
      "outputs": [
        {
          "internalType": "uint256",
          "name": "a_",
          "type": "uint256"
        }
      ],
      "stateMutability": "nonpayable",
      "type": "function"
    },
    {
      "inputs": [
        {
          "internalType": "bytes",
          "name": "bytes_",
          "type": "bytes"
        }
      ],
      "name": "peek",
      "outputs": [
        {
          "internalType": "uint256",
          "name": "a_",
          "type": "uint256"
        }
      ],
      "stateMutability": "nonpayable",
      "type": "function"
    },
    {
      "inputs": [
        {
          "internalType": "bytes",
          "name": "bytes_",
          "type": "bytes"
        },
        {
          "internalType": "uint256",
          "name": "n_",
          "type": "uint256"
        }
      ],
      "name": "peek2",
      "outputs": [
        {
          "internalType": "uint256",
          "name": "a_",
          "type": "uint256"
        },
        {
          "internalType": "uint256",
          "name": "b_",
          "type": "uint256"
        }
      ],
      "stateMutability": "nonpayable",
      "type": "function"
    },
    {
      "inputs": [
        {
          "internalType": "uint256[]",
          "name": "array_",
          "type": "uint256[]"
        },
        {
          "internalType": "uint256",
          "name": "n_",
          "type": "uint256"
        }
      ],
      "name": "peek2",
      "outputs": [
        {
          "internalType": "uint256",
          "name": "a_",
          "type": "uint256"
        },
        {
          "internalType": "uint256",
          "name": "b_",
          "type": "uint256"
        }
      ],
      "stateMutability": "nonpayable",
      "type": "function"
    },
    {
      "inputs": [
        {
          "internalType": "uint256[]",
          "name": "array_",
          "type": "uint256[]"
        }
      ],
      "name": "peekUp",
      "outputs": [
        {
          "internalType": "uint256",
          "name": "a_",
          "type": "uint256"
        }
      ],
      "stateMutability": "nonpayable",
      "type": "function"
    },
    {
      "inputs": [
        {
          "internalType": "uint256[]",
          "name": "array_",
          "type": "uint256[]"
        },
        {
          "internalType": "uint256",
          "name": "n_",
          "type": "uint256"
        }
      ],
      "name": "peekUp",
      "outputs": [
        {
          "internalType": "uint256",
          "name": "a_",
          "type": "uint256"
        }
      ],
      "stateMutability": "nonpayable",
      "type": "function"
    },
    {
      "inputs": [
        {
          "internalType": "bytes",
          "name": "bytes_",
          "type": "bytes"
        }
      ],
      "name": "peekUp",
      "outputs": [
        {
          "internalType": "uint256",
          "name": "a_",
          "type": "uint256"
        }
      ],
      "stateMutability": "nonpayable",
      "type": "function"
    },
    {
      "inputs": [
        {
          "internalType": "bytes",
          "name": "bytes_",
          "type": "bytes"
        },
        {
          "internalType": "uint256",
          "name": "n_",
          "type": "uint256"
        }
      ],
      "name": "peekUp",
      "outputs": [
        {
          "internalType": "uint256",
          "name": "a_",
          "type": "uint256"
        }
      ],
      "stateMutability": "nonpayable",
      "type": "function"
    },
    {
      "inputs": [
        {
          "internalType": "uint256[]",
          "name": "array_",
          "type": "uint256[]"
        },
        {
          "internalType": "uint256",
          "name": "n_",
          "type": "uint256"
        }
      ],
      "name": "peekUpStackPointer",
      "outputs": [
        {
          "internalType": "StackPointer",
          "name": "",
          "type": "uint256"
        }
      ],
      "stateMutability": "nonpayable",
      "type": "function"
    },
    {
      "inputs": [
        {
          "internalType": "bytes",
          "name": "bytes_",
          "type": "bytes"
        },
        {
          "internalType": "uint256",
          "name": "n_",
          "type": "uint256"
        }
      ],
      "name": "peekUpStackPointer",
      "outputs": [
        {
          "internalType": "StackPointer",
          "name": "",
          "type": "uint256"
        }
      ],
      "stateMutability": "nonpayable",
      "type": "function"
    },
    {
      "inputs": [
        {
          "internalType": "uint256[]",
          "name": "array_",
          "type": "uint256[]"
        }
      ],
      "name": "peekUpStackPointer",
      "outputs": [
        {
          "internalType": "StackPointer",
          "name": "",
          "type": "uint256"
        }
      ],
      "stateMutability": "nonpayable",
      "type": "function"
    },
    {
      "inputs": [
        {
          "internalType": "bytes",
          "name": "bytes_",
          "type": "bytes"
        }
      ],
      "name": "peekUpStackPointer",
      "outputs": [
        {
          "internalType": "StackPointer",
          "name": "",
          "type": "uint256"
        }
      ],
      "stateMutability": "nonpayable",
      "type": "function"
    },
    {
      "inputs": [
        {
          "internalType": "uint256[]",
          "name": "array_",
          "type": "uint256[]"
        },
        {
          "internalType": "uint256",
          "name": "n_",
          "type": "uint256"
        }
      ],
      "name": "pop",
      "outputs": [
        {
          "internalType": "StackPointer",
          "name": "stackTopAfter_",
          "type": "uint256"
        },
        {
          "internalType": "uint256",
          "name": "a_",
          "type": "uint256"
        }
      ],
      "stateMutability": "nonpayable",
      "type": "function"
    },
    {
      "inputs": [
        {
          "internalType": "bytes",
          "name": "bytes_",
          "type": "bytes"
        },
        {
          "internalType": "uint256",
          "name": "n_",
          "type": "uint256"
        }
      ],
      "name": "pop",
      "outputs": [
        {
          "internalType": "StackPointer",
          "name": "stackTopAfter_",
          "type": "uint256"
        },
        {
          "internalType": "uint256",
          "name": "a_",
          "type": "uint256"
        }
      ],
      "stateMutability": "nonpayable",
      "type": "function"
    },
    {
      "inputs": [
        {
          "internalType": "uint256[]",
          "name": "array_",
          "type": "uint256[]"
        },
        {
          "internalType": "uint256",
          "name": "a_",
          "type": "uint256"
        },
        {
          "internalType": "uint256",
          "name": "b_",
          "type": "uint256"
        },
        {
          "internalType": "uint256",
          "name": "c_",
          "type": "uint256"
        },
        {
          "internalType": "uint256",
          "name": "d_",
          "type": "uint256"
        },
        {
          "internalType": "uint256",
          "name": "e_",
          "type": "uint256"
        },
        {
          "internalType": "uint256",
          "name": "f_",
          "type": "uint256"
        },
        {
          "internalType": "uint256",
          "name": "g_",
          "type": "uint256"
        },
        {
          "internalType": "uint256",
          "name": "h_",
          "type": "uint256"
        }
      ],
      "name": "push",
      "outputs": [
        {
          "internalType": "StackPointer",
          "name": "stackTop_",
          "type": "uint256"
        }
      ],
      "stateMutability": "nonpayable",
      "type": "function"
    },
    {
      "inputs": [
        {
          "internalType": "uint256[]",
          "name": "array_",
          "type": "uint256[]"
        },
        {
          "internalType": "uint256[]",
          "name": "pushArray_",
          "type": "uint256[]"
        }
      ],
      "name": "push",
      "outputs": [
        {
          "internalType": "StackPointer",
          "name": "stackTop_",
          "type": "uint256"
        }
      ],
      "stateMutability": "nonpayable",
      "type": "function"
    },
    {
      "inputs": [
        {
          "internalType": "uint256[]",
          "name": "array_",
          "type": "uint256[]"
        },
        {
          "internalType": "uint256",
          "name": "a_",
          "type": "uint256"
        }
      ],
      "name": "push",
      "outputs": [
        {
          "internalType": "StackPointer",
          "name": "stackTop_",
          "type": "uint256"
        }
      ],
      "stateMutability": "nonpayable",
      "type": "function"
    },
    {
      "inputs": [
        {
          "internalType": "uint256[]",
          "name": "array_",
          "type": "uint256[]"
        },
        {
          "internalType": "uint256[]",
          "name": "pushArray_",
          "type": "uint256[]"
        }
      ],
      "name": "pushWithLength",
      "outputs": [
        {
          "internalType": "StackPointer",
          "name": "stackTop_",
          "type": "uint256"
        }
      ],
      "stateMutability": "nonpayable",
      "type": "function"
    },
    {
      "inputs": [
        {
          "internalType": "bytes",
          "name": "bytes_",
          "type": "bytes"
        },
        {
          "internalType": "uint256",
          "name": "a_",
          "type": "uint256"
        },
        {
          "internalType": "uint256",
          "name": "n_",
          "type": "uint256"
        }
      ],
      "name": "set",
      "outputs": [
        {
          "internalType": "StackPointer",
          "name": "",
          "type": "uint256"
        }
      ],
      "stateMutability": "nonpayable",
      "type": "function"
    },
    {
      "inputs": [
        {
          "internalType": "uint256[]",
          "name": "array_",
          "type": "uint256[]"
        },
        {
          "internalType": "uint256",
          "name": "a_",
          "type": "uint256"
        },
        {
          "internalType": "uint256",
          "name": "n_",
          "type": "uint256"
        }
      ],
      "name": "set",
      "outputs": [
        {
          "internalType": "StackPointer",
          "name": "",
          "type": "uint256"
        }
      ],
      "stateMutability": "nonpayable",
      "type": "function"
    },
    {
      "inputs": [
        {
          "internalType": "uint256[]",
          "name": "array0_",
          "type": "uint256[]"
        },
        {
          "internalType": "uint256[]",
          "name": "array1_",
          "type": "uint256[]"
        }
      ],
      "name": "toIndex",
      "outputs": [
        {
          "internalType": "uint256",
          "name": "index_",
          "type": "uint256"
        },
        {
          "internalType": "StackPointer",
          "name": "stackBottom_",
          "type": "uint256"
        },
        {
          "internalType": "StackPointer",
          "name": "stackTop_",
          "type": "uint256"
        }
      ],
      "stateMutability": "nonpayable",
      "type": "function"
    },
    {
      "inputs": [
        {
          "internalType": "bytes",
          "name": "bytes0_",
          "type": "bytes"
        },
        {
          "internalType": "bytes",
          "name": "bytes1_",
          "type": "bytes"
        }
      ],
      "name": "unalignedPush",
      "outputs": [
        {
          "internalType": "StackPointer",
          "name": "stackTop_",
          "type": "uint256"
        }
      ],
      "stateMutability": "nonpayable",
      "type": "function"
    },
    {
      "inputs": [
        {
          "internalType": "bytes",
          "name": "bytes0_",
          "type": "bytes"
        },
        {
          "internalType": "bytes",
          "name": "bytes1_",
          "type": "bytes"
        }
      ],
      "name": "unalignedPushWithLength",
      "outputs": [
        {
          "internalType": "StackPointer",
          "name": "stackTop_",
          "type": "uint256"
        }
      ],
      "stateMutability": "nonpayable",
      "type": "function"
    },
    {
      "inputs": [
        {
          "internalType": "uint256[]",
          "name": "array_",
          "type": "uint256[]"
        }
      ],
      "name": "up",
      "outputs": [
        {
          "internalType": "StackPointer",
          "name": "stackTopBefore_",
          "type": "uint256"
        },
        {
          "internalType": "StackPointer",
          "name": "stackTopAfter_",
          "type": "uint256"
        }
      ],
      "stateMutability": "nonpayable",
      "type": "function"
    },
    {
      "inputs": [
        {
          "internalType": "uint256[]",
          "name": "array_",
          "type": "uint256[]"
        },
        {
          "internalType": "uint256",
          "name": "n_",
          "type": "uint256"
        }
      ],
      "name": "up",
      "outputs": [
        {
          "internalType": "StackPointer",
          "name": "stackTopBefore_",
          "type": "uint256"
        },
        {
          "internalType": "StackPointer",
          "name": "stackTopAfter_",
          "type": "uint256"
        }
      ],
      "stateMutability": "nonpayable",
      "type": "function"
    },
    {
      "inputs": [
        {
          "internalType": "uint256[]",
          "name": "array_",
          "type": "uint256[]"
        },
        {
          "internalType": "uint256",
          "name": "n_",
          "type": "uint256"
        }
      ],
      "name": "upBytes",
      "outputs": [
        {
          "internalType": "StackPointer",
          "name": "stackTopBefore_",
          "type": "uint256"
        },
        {
          "internalType": "StackPointer",
          "name": "stackTopAfter_",
          "type": "uint256"
        }
      ],
      "stateMutability": "nonpayable",
      "type": "function"
    }
  ],
  "bytecode": "0x608060405234801561001057600080fd5b50611cda806100206000396000f3fe608060405234801561001057600080fd5b50600436106103155760003560e01c806392c0a2d9116101a7578063c2f9bb68116100ee578063e72a138911610097578063ef55257a11610071578063ef55257a14610695578063ef7fe6f2146106a3578063f8419932146106d157600080fd5b8063e72a138914610666578063ecb18e6c14610674578063eeb8a8d31461068757600080fd5b8063da6af415116100c8578063da6af4151461062d578063de7d3caf14610640578063e2c6ab151461065357600080fd5b8063c2f9bb68146105e6578063d03d3d4414610607578063d66fce841461061a57600080fd5b8063affa317c11610150578063b3ada2601161012a578063b3ada260146105b2578063bb2280db146105c5578063bfde9e75146105d857600080fd5b8063affa317c1461057e578063b085b8241461058c578063b21403d71461059f57600080fd5b806394c73cb91161018157806394c73cb91461054f578063a230438f1461055d578063a5e17b971461056b57600080fd5b806392c0a2d91461050a57806393baa2f71461051857806393cdfe911461053c57600080fd5b806351fc8d331161026b57806365e04fd611610214578063845aabb3116101ee578063845aabb3146104d6578063894e87f1146104e95780638b34a8b7146104f757600080fd5b806365e04fd61461048d5780636bc33b22146104a0578063833f62f0146104c357600080fd5b80635efa7854116102455780635efa785414610454578063616dab0714610467578063651e89371461047a57600080fd5b806351fc8d331461041b5780635972ee551461042e5780635d6fd5c51461044157600080fd5b806327cc9330116102cd57806342fb361a116102a757806342fb361a146103d5578063435ca8b6146103f55780634cc265881461040857600080fd5b806327cc9330146103a15780632e831019146103b457806340722cef146103c257600080fd5b80630a7ce1a0116102fe5780630a7ce1a014610368578063191947371461037b57806323c5b7241461038e57600080fd5b80630347fab61461031a578063054b956a14610347575b600080fd5b61032d6103283660046116cb565b6106ec565b604080519283526020830191909152015b60405180910390f35b61035a6103553660046116cb565b610744565b60405190815260200161033e565b61035a6103763660046116cb565b61078f565b61035a610389366004611710565b6107bc565b61035a61039c3660046116cb565b6107d7565b61035a6103af366004611710565b610802565b61035a6103763660046117d3565b61032d6103d03660046117d3565b610813565b6103e86103e3366004611809565b610878565b60405161033e919061183e565b61035a6104033660046116cb565b610894565b61035a610416366004611710565b6108ab565b61035a6104293660046118aa565b6108c3565b61032d61043c366004611710565b6108d7565b61035a61044f36600461190e565b610915565b61035a6104623660046116cb565b610929565b61032d6104753660046116cb565b610954565b61035a610488366004611710565b610970565b61035a61049b366004611968565b6109a9565b6104b36104ae3660046119e9565b6109ff565b60405161033e9493929190611a72565b61032d6104d1366004611710565b610a49565b61035a6104e43660046116cb565b610a5d565b61035a610416366004611809565b61035a61050536600461190e565b610a9a565b61035a6103af366004611809565b61052b610526366004611a9e565b610ab0565b60405161033e959493929190611af2565b61035a61054a3660046116cb565b610b0f565b61035a6104033660046117d3565b61035a6104e43660046117d3565b61035a610579366004611710565b610b25565b61035a610389366004611809565b61035a61059a3660046116cb565b610b4e565b61035a6105ad3660046116cb565b610b79565b61035a6105c0366004611710565b610ba4565b61035a6105d3366004611710565b610bb7565b61032d6103283660046117d3565b6105f96105f43660046116cb565b610be0565b60405161033e929190611b32565b61035a6106153660046116cb565b610c2e565b61035a6106283660046118aa565b610c59565b61035a61063b3660046116cb565b610c6f565b61032d61064e3660046116cb565b610c93565b61035a610661366004611b4b565b610ca9565b61035a6106613660046119e9565b61032d6106823660046116cb565b610cd6565b61035a6105c0366004611809565b61032d6103d03660046116cb565b6106b66106b136600461190e565b610ce9565b6040805193845260208401929092529082015260600161033e565b6106df6103e3366004611710565b60405161033e9190611b83565b6000806106f7610d0c565b61073061070884865b906020020190565b7fffffffffffffffffffffffffffffffffffffffffffffffffffffffffffffffe00180519091565b909250905061073d610d0c565b9250929050565b600061074e610d0c565b61077f610d14836107786020610768885160209081020190565b6107729190611bc5565b87610700565b9190610d7b565b9050610789610d0c565b92915050565b6000610799610d0c565b6107aa6107a68385610700565b5190565b506107b3610d0c565b825b9392505050565b60006107c6610d0c565b815b90506107d2610d0c565b919050565b60006107e1610d0c565b61077f610e05836107fb6020610768885160209081020190565b9190610e78565b600061080c610d0c565b81516107c8565b60008061081e610d0c565b61073061082b8486610700565b7fffffffffffffffffffffffffffffffffffffffffffffffffffffffffffffffc08101517fffffffffffffffffffffffffffffffffffffffffffffffffffffffffffffffe0909101519091565b606081610883610d0c565b80915061088e610d0c565b50919050565b600061089e610d0c565b61077f6107a68385610700565b60006108b5610d0c565b6108bd610d0c565b81610789565b60006108cd610d0c565b61077f8383610f1e565b8060006108e2610d0c565b7fffffffffffffffffffffffffffffffffffffffffffffffffffffffffffffffe082015b9050610910610d0c565b915091565b600061091f610d0c565b61077f8383610f38565b6000610933610d0c565b61077f610f528361094d6020610768885160209081020190565b9190610f5e565b81600061095f610d0c565b6020830282035b905061073d610d0c565b600061097a610d0c565b6107c8610f526109a36020610993865160209081020190565b61099d9190611bc5565b85610700565b90610fa5565b886109b2610d0c565b8881526020810188905260408101879052606081018690526080810185905260a0810184905260c0810183905260e08101829052610100016109f2610d0c565b9998505050505050505050565b60006060600080610a296020610a19895160209081020190565b610a239190611bc5565b88610700565b9150869050610a3a82828888611011565b90989097509195509350915050565b806000610a54610d0c565b60208201610906565b6000610a67610d0c565b61077f610a748385610700565b7fffffffffffffffffffffffffffffffffffffffffffffffffffffffffffffffe0015190565b6000610aa4610d0c565b61077f82845b90611071565b6000606080600080610adb6020610acb8b5160209081020190565b610ad59190611bc5565b8a610700565b9150889050610aec82828a8a611011565b9095509350610afd85828a89611011565b909a9499509750909550935090915050565b6000610b19610d0c565b8183526020830161077f565b6000610b2f610d0c565b6107c8611096610b486020610993865160209081020190565b906110ad565b6000610b58610d0c565b61077f61113f83610b726020610768885160209081020190565b9190611156565b6000610b83610d0c565b61077f6111b883610b9d6020610768885160209081020190565b91906111c4565b6000610bae610d0c565b6107c882610a74565b6000610bc1610d0c565b6107c86111fa610bda6020610993865160209081020190565b90611207565b60006060610bec610d0c565b61073083610bfd8160208801610700565b6020820290037fffffffffffffffffffffffffffffffffffffffffffffffffffffffffffffffe00180519181529091565b6000610c38610d0c565b61077f61124683610c526020610768885160209081020190565b9190611332565b6000610c63610d0c565b61077f82845b90611442565b6000610c79610d0c565b61077f61145c83610c526020610768885160209081020190565b816000610c9e610d0c565b602083028201610966565b6000610cb3610d0c565b610cc483610cc18487610700565b52565b610ccc610d0c565b835b949350505050565b816000610ce1610d0c565b828201610966565b60008282610cf5610d0c565b6020828203049250610d05610d0c565b9250925092565b6040516000a0565b60008060005b8351811015610d5c57838181518110610d3557610d35611c00565b602002602001015182610d489190611c2f565b915080610d5481611c42565b915050610d1a565b5080610d688587611c2f565b610d729190611c7a565b95945050505050565b6020810283037fffffffffffffffffffffffffffffffffffffffffffffffffffffffffffffffe001805182825260009182819050600080610dde837fffffffffffffffffffffffffffffffffffffffffffffffffffffffffffffffe00180519091565b91509150610df8610df48287878c63ffffffff16565b8352565b5090979650505050505050565b60008060005b8351811015610e4d57838181518110610e2657610e26611c00565b602002602001015182610e399190611c2f565b915080610e4581611c42565b915050610e0b565b508084610e5a8789611c2f565b610e649190611c2f565b610e6e9190611c7a565b9695505050505050565b6020810283037fffffffffffffffffffffffffffffffffffffffffffffffffffffffffffffffe00180518282526000918280610eb383610708565b915091506000610ee3837fffffffffffffffffffffffffffffffffffffffffffffffffffffffffffffffe0015190565b9050610df8610ef8828488888d63ffffffff16565b7fffffffffffffffffffffffffffffffffffffffffffffffffffffffffffffffe0850152565b60006107b582610c6984518661108e90919063ffffffff16565b60006107b582610aaa84518661108e90919063ffffffff16565b60006107b58284611c2f565b60208181028403805160009282019083825b88841015610f975783519150610f8a83838a63ffffffff16565b9250602084019350610f70565b919093529695505050505050565b7fffffffffffffffffffffffffffffffffffffffffffffffffffffffffffffffc0820180517fffffffffffffffffffffffffffffffffffffffffffffffffffffffffffffffe090930180519093600092909190611006838363ffffffff8816565b905250929392505050565b60006060808561102057600080fd5b6000806020860260208a039950602089035b808b1115611058578a51890361104a578a9350611058565b998190039991870191611032565b50508161106457600080fd5b8152969795505050505050565b600061108260208301848451611528565b815160200283016107b5565b815260200190565b6000816110a38486611c2f565b610cce9190611c2f565b7fffffffffffffffffffffffffffffffffffffffffffffffffffffffffffffffa0820180517fffffffffffffffffffffffffffffffffffffffffffffffffffffffffffffffc0840180517fffffffffffffffffffffffffffffffffffffffffffffffffffffffffffffffe090950151909460009390919061113384848463ffffffff8a16565b90525093949350505050565b60008361114c8385611c2f565b610cce9190611c7a565b7fffffffffffffffffffffffffffffffffffffffffffffffffffffffffffffffc0830180517fffffffffffffffffffffffffffffffffffffffffffffffffffffffffffffffe09094018051909460009290919061113385848463ffffffff8a16565b60006107b58383611c7a565b7fffffffffffffffffffffffffffffffffffffffffffffffffffffffffffffffe083018051600091611006848363ffffffff8816565b6000610789826002611c7a565b7fffffffffffffffffffffffffffffffffffffffffffffffffffffffffffffffe08201805160009161123c8263ffffffff8616565b9052509192915050565b6060600183516112569190611c91565b67ffffffffffffffff81111561126e5761126e6115cd565b604051908082528060200260200182016040528015611297578160200160208202803683370190505b50905060005b600184516112ab9190611c91565b81101561132a57848382815181106112c5576112c5611c00565b60200260200101518583815181106112df576112df611c00565b60200260200101516112f19190611c7a565b6112fb9190611c2f565b82828151811061130d5761130d611c00565b60209081029190910101528061132281611c42565b91505061129d565b509392505050565b6000602082028403818367ffffffffffffffff811115611354576113546115cd565b60405190808252806020026020018201604052801561137d578160200160208202803683370190505b50905061138e826020830186611528565b6020840282037fffffffffffffffffffffffffffffffffffffffffffffffffffffffffffffffe00180518582529060006113cd83838663ffffffff8c16565b90508681511461141f5780516040517f231606ca000000000000000000000000000000000000000000000000000000008152611416918991600401918252602082015260400190565b60405180910390fd5b8161142e60208301828a611528565b6020880281019a9950505050505050505050565b600061145360208301848451611550565b815183016107b5565b6060825167ffffffffffffffff811115611478576114786115cd565b6040519080825280602002602001820160405280156114a1578160200160208202803683370190505b50905060005b835181101561132a57848382815181106114c3576114c3611c00565b60200260200101518583815181106114dd576114dd611c00565b60200260200101516114ef9190611c7a565b6114f99190611c2f565b82828151811061150b5761150b611c00565b60209081029190910101528061152081611c42565b9150506114a7565b8060200283015b8084101561154a57835183526020938401939092019161152f565b50505050565b5b6020811061158e5782518252602092830192909101907fffffffffffffffffffffffffffffffffffffffffffffffffffffffffffffffe001611551565b80156115c8577fffffffffffffffffffffffffffffffffffffffffffffffffffffffffffffffff600882021c808351168119855116178352505b505050565b7f4e487b7100000000000000000000000000000000000000000000000000000000600052604160045260246000fd5b604051601f82017fffffffffffffffffffffffffffffffffffffffffffffffffffffffffffffffe016810167ffffffffffffffff81118282101715611643576116436115cd565b604052919050565b600082601f83011261165c57600080fd5b8135602067ffffffffffffffff821115611678576116786115cd565b8160051b6116878282016115fc565b92835284810182019282810190878511156116a157600080fd5b83870192505b848310156116c0578235825291830191908301906116a7565b979650505050505050565b600080604083850312156116de57600080fd5b823567ffffffffffffffff8111156116f557600080fd5b6117018582860161164b565b95602094909401359450505050565b60006020828403121561172257600080fd5b813567ffffffffffffffff81111561173957600080fd5b610cce8482850161164b565b600082601f83011261175657600080fd5b813567ffffffffffffffff811115611770576117706115cd565b6117a160207fffffffffffffffffffffffffffffffffffffffffffffffffffffffffffffffe0601f840116016115fc565b8181528460208386010111156117b657600080fd5b816020850160208301376000918101602001919091529392505050565b600080604083850312156117e657600080fd5b823567ffffffffffffffff8111156117fd57600080fd5b61170185828601611745565b60006020828403121561181b57600080fd5b813567ffffffffffffffff81111561183257600080fd5b610cce84828501611745565b600060208083528351808285015260005b8181101561186b5785810183015185820160400152820161184f565b5060006040828601015260407fffffffffffffffffffffffffffffffffffffffffffffffffffffffffffffffe0601f8301168501019250505092915050565b600080604083850312156118bd57600080fd5b823567ffffffffffffffff808211156118d557600080fd5b6118e186838701611745565b935060208501359150808211156118f757600080fd5b5061190485828601611745565b9150509250929050565b6000806040838503121561192157600080fd5b823567ffffffffffffffff8082111561193957600080fd5b6119458683870161164b565b9350602085013591508082111561195b57600080fd5b506119048582860161164b565b60008060008060008060008060006101208a8c03121561198757600080fd5b893567ffffffffffffffff81111561199e57600080fd5b6119aa8c828d0161164b565b9c60208c01359c5060408c01359b60608101359b5060808101359a5060a0810135995060c0810135985060e08101359750610100013595509350505050565b6000806000606084860312156119fe57600080fd5b833567ffffffffffffffff811115611a1557600080fd5b611a218682870161164b565b9660208601359650604090950135949350505050565b600081518084526020808501945080840160005b83811015611a6757815187529582019590820190600101611a4b565b509495945050505050565b848152608060208201526000611a8b6080830186611a37565b6040830194909452506060015292915050565b60008060008060808587031215611ab457600080fd5b843567ffffffffffffffff811115611acb57600080fd5b611ad78782880161164b565b97602087013597506040870135966060013595509350505050565b85815260a060208201526000611b0b60a0830187611a37565b8281036040840152611b1d8187611a37565b60608401959095525050608001529392505050565b828152604060208201526000610cce6040830184611a37565b600080600060608486031215611b6057600080fd5b833567ffffffffffffffff811115611b7757600080fd5b611a2186828701611745565b6020815260006107b56020830184611a37565b7f4e487b7100000000000000000000000000000000000000000000000000000000600052601160045260246000fd5b600082611bfb577f4e487b7100000000000000000000000000000000000000000000000000000000600052601260045260246000fd5b500490565b7f4e487b7100000000000000000000000000000000000000000000000000000000600052603260045260246000fd5b8082018082111561078957610789611b96565b60007fffffffffffffffffffffffffffffffffffffffffffffffffffffffffffffffff8203611c7357611c73611b96565b5060010190565b808202811582820484141761078957610789611b96565b8181038181111561078957610789611b9656fea26469706673582212206e7fac7b65d3eb6da3bf22c897542690c95a946de30f641c3d828bad2c89f3dc64736f6c63430008130033",
  "linkReferences": {},
  "deployedLinkReferences": {}
}