{
  "_format": "hh-sol-artifact-1",
  "contractName": "AutoApprove",
  "sourceName": "contracts/verify/auto/AutoApprove.sol",
  "abi": [
    {
      "inputs": [
        {
          "components": [
            {
              "internalType": "address",
              "name": "deployer",
              "type": "address"
            },
            {
              "internalType": "bytes",
              "name": "meta",
              "type": "bytes"
            }
          ],
          "internalType": "struct DeployerDiscoverableMetaV1ConstructionConfig",
          "name": "config_",
          "type": "tuple"
        }
      ],
      "stateMutability": "nonpayable",
      "type": "constructor"
    },
    {
      "inputs": [
        {
          "internalType": "bytes",
          "name": "unmeta",
          "type": "bytes"
        }
      ],
      "name": "NotRainMetaV1",
      "type": "error"
    },
    {
      "inputs": [
        {
          "internalType": "uint256",
          "name": "arrayLength",
          "type": "uint256"
        },
        {
          "internalType": "uint256",
          "name": "truncatedLength",
          "type": "uint256"
        }
      ],
      "name": "OutOfBoundsTruncate",
      "type": "error"
    },
    {
      "inputs": [
        {
          "internalType": "bytes32",
          "name": "expectedHash",
          "type": "bytes32"
        },
        {
          "internalType": "bytes32",
          "name": "actualHash",
          "type": "bytes32"
        }
      ],
      "name": "UnexpectedMetaHash",
      "type": "error"
    },
    {
      "anonymous": false,
      "inputs": [
        {
          "indexed": false,
          "internalType": "address",
          "name": "sender",
          "type": "address"
        },
        {
          "indexed": false,
          "internalType": "uint256[][]",
          "name": "context",
          "type": "uint256[][]"
        }
      ],
      "name": "Context",
      "type": "event"
    },
    {
      "anonymous": false,
      "inputs": [
        {
          "indexed": false,
          "internalType": "address",
          "name": "sender",
          "type": "address"
        },
        {
          "components": [
            {
              "internalType": "address",
              "name": "owner",
              "type": "address"
            },
            {
              "components": [
                {
                  "internalType": "contract IExpressionDeployerV1",
                  "name": "deployer",
                  "type": "address"
                },
                {
                  "internalType": "bytes[]",
                  "name": "sources",
                  "type": "bytes[]"
                },
                {
                  "internalType": "uint256[]",
                  "name": "constants",
                  "type": "uint256[]"
                }
              ],
              "internalType": "struct EvaluableConfig",
              "name": "evaluableConfig",
              "type": "tuple"
            }
          ],
          "indexed": false,
          "internalType": "struct AutoApproveConfig",
          "name": "config",
          "type": "tuple"
        }
      ],
      "name": "Initialize",
      "type": "event"
    },
    {
      "anonymous": false,
      "inputs": [
        {
          "indexed": false,
          "internalType": "uint8",
          "name": "version",
          "type": "uint8"
        }
      ],
      "name": "Initialized",
      "type": "event"
    },
    {
      "anonymous": false,
      "inputs": [
        {
          "indexed": false,
          "internalType": "address",
          "name": "sender",
          "type": "address"
        },
        {
          "indexed": false,
          "internalType": "uint256",
          "name": "subject",
          "type": "uint256"
        },
        {
          "indexed": false,
          "internalType": "bytes",
          "name": "meta",
          "type": "bytes"
        }
      ],
      "name": "MetaV1",
      "type": "event"
    },
    {
      "anonymous": false,
      "inputs": [
        {
          "indexed": true,
          "internalType": "address",
          "name": "previousOwner",
          "type": "address"
        },
        {
          "indexed": true,
          "internalType": "address",
          "name": "newOwner",
          "type": "address"
        }
      ],
      "name": "OwnershipTransferred",
      "type": "event"
    },
    {
      "inputs": [
        {
          "internalType": "address",
          "name": "adder_",
          "type": "address"
        },
        {
          "components": [
            {
              "internalType": "address",
              "name": "account",
              "type": "address"
            },
            {
              "internalType": "bytes",
              "name": "data",
              "type": "bytes"
            }
          ],
          "internalType": "struct Evidence[]",
          "name": "evidences_",
          "type": "tuple[]"
        }
      ],
      "name": "afterAdd",
      "outputs": [],
      "stateMutability": "nonpayable",
      "type": "function"
    },
    {
      "inputs": [
        {
          "internalType": "address",
          "name": "approver_",
          "type": "address"
        },
        {
          "components": [
            {
              "internalType": "address",
              "name": "account",
              "type": "address"
            },
            {
              "internalType": "bytes",
              "name": "data",
              "type": "bytes"
            }
          ],
          "internalType": "struct Evidence[]",
          "name": "evidences_",
          "type": "tuple[]"
        }
      ],
      "name": "afterApprove",
      "outputs": [],
      "stateMutability": "nonpayable",
      "type": "function"
    },
    {
      "inputs": [
        {
          "internalType": "address",
          "name": "banner_",
          "type": "address"
        },
        {
          "components": [
            {
              "internalType": "address",
              "name": "account",
              "type": "address"
            },
            {
              "internalType": "bytes",
              "name": "data",
              "type": "bytes"
            }
          ],
          "internalType": "struct Evidence[]",
          "name": "evidences_",
          "type": "tuple[]"
        }
      ],
      "name": "afterBan",
      "outputs": [],
      "stateMutability": "nonpayable",
      "type": "function"
    },
    {
      "inputs": [
        {
          "internalType": "address",
          "name": "remover_",
          "type": "address"
        },
        {
          "components": [
            {
              "internalType": "address",
              "name": "account",
              "type": "address"
            },
            {
              "internalType": "bytes",
              "name": "data",
              "type": "bytes"
            }
          ],
          "internalType": "struct Evidence[]",
          "name": "evidences_",
          "type": "tuple[]"
        }
      ],
      "name": "afterRemove",
      "outputs": [],
      "stateMutability": "nonpayable",
      "type": "function"
    },
    {
      "inputs": [
        {
          "internalType": "bytes",
          "name": "data_",
          "type": "bytes"
        }
      ],
      "name": "initialize",
      "outputs": [],
      "stateMutability": "nonpayable",
      "type": "function"
    },
    {
      "inputs": [],
      "name": "owner",
      "outputs": [
        {
          "internalType": "address",
          "name": "",
          "type": "address"
        }
      ],
      "stateMutability": "view",
      "type": "function"
    },
    {
      "inputs": [],
      "name": "renounceOwnership",
      "outputs": [],
      "stateMutability": "nonpayable",
      "type": "function"
    },
    {
      "inputs": [
        {
          "internalType": "address",
          "name": "newOwner",
          "type": "address"
        }
      ],
      "name": "transferOwnership",
      "outputs": [],
      "stateMutability": "nonpayable",
      "type": "function"
    }
  ],
  "bytecode": "0x60806040523480156200001157600080fd5b5060405162001dab38038062001dab8339810160408190526200003491620003ab565b7f92932311849707fd57884c540914fe3ff7f45ac30152a2aa7fcc9426a6ac22d760001b816200006f828260200151620000d160201b60201c565b60208101516040517fbea766d03fa1efd3f81cc8634d08320bc62bb0ed9234ac59bbaafa5893fb6b1391620000a89133913091620004b9565b60405180910390a18051620000bd9062000118565b50620000ca9050620001dc565b506200062b565b80516020820120828114620001085760405163074fe10f60e41b815260048101849052602481018290526044015b60405180910390fd5b62000113826200029b565b505050565b604080516000808252602082019092526001600160a01b03831691635511cb67919062000156565b6060815260200190600190039081620001405790505b5060408051600080825260208201908152818301928390526001600160e01b031960e086901b169092526200019092916044820162000528565b6060604051808303816000875af1158015620001b0573d6000803e3d6000fd5b505050506040513d601f19601f82011682018060405250810190620001d69190620005bb565b50505050565b600054610100900460ff1615620002465760405162461bcd60e51b815260206004820152602760248201527f496e697469616c697a61626c653a20636f6e747261637420697320696e697469604482015266616c697a696e6760c81b6064820152608401620000ff565b60005460ff908116101562000299576000805460ff191660ff9081179091556040519081527f7f26b83ff96e1f2b6a682f133852f6798a09c465da95921460cefb38474024989060200160405180910390a15b565b620002a681620002cb565b620002c85780604051630c89984b60e31b8152600401620000ff91906200060f565b50565b6000600882511015620002e057506000919050565b50600801516001600160401b031667ff0a89c674ee78741490565b634e487b7160e01b600052604160045260246000fd5b604080519081016001600160401b0381118282101715620003365762000336620002fb565b60405290565b604051601f8201601f191681016001600160401b0381118282101715620003675762000367620002fb565b604052919050565b6001600160a01b0381168114620002c857600080fd5b60005b83811015620003a257818101518382015260200162000388565b50506000910152565b60006020808385031215620003bf57600080fd5b82516001600160401b0380821115620003d757600080fd5b9084019060408287031215620003ec57600080fd5b620003f662000311565b825162000403816200036f565b815282840151828111156200041757600080fd5b80840193505086601f8401126200042d57600080fd5b825182811115620004425762000442620002fb565b62000456601f8201601f191686016200033c565b925080835287858286010111156200046d57600080fd5b6200047e8186850187870162000385565b5092830152509392505050565b60008151808452620004a581602086016020860162000385565b601f01601f19169290920160200192915050565b60018060a01b0384168152826020820152606060408201526000620004e260608301846200048b565b95945050505050565b600081518084526020808501945080840160005b838110156200051d57815187529582019590820190600101620004ff565b509495945050505050565b6000606082016060835280865180835260808501915060808160051b8601019250602080890160005b838110156200058357607f19888703018552620005708683516200048b565b9550938201939082019060010162000551565b5050858403818701525050506200059b8186620004eb565b90508281036040840152620005b18185620004eb565b9695505050505050565b600080600060608486031215620005d157600080fd5b8351620005de816200036f565b6020850151909350620005f1816200036f565b604085015190925062000604816200036f565b809150509250925092565b6020815260006200062460208301846200048b565b9392505050565b611770806200063b6000396000f3fe608060405234801561001057600080fd5b50600436106100885760003560e01c80638da5cb5b1161005b5780638da5cb5b146100d05780638f6b11461461008d578063ebae2d8c1461008d578063f2fde38b146100fc57600080fd5b8063376dcbe21461008d578063439fab91146100a2578063715018a6146100b557806389bd6b26146100bd575b600080fd5b6100a061009b366004610d1c565b61010f565b005b6100a06100b0366004610da4565b61011c565b6100a0610445565b6100a06100cb366004610d1c565b610459565b6033546040805173ffffffffffffffffffffffffffffffffffffffff9092168252519081900360200190f35b6100a061010a366004610e16565b610926565b6101176109dd565b505050565b600054610100900460ff161580801561013c5750600054600160ff909116105b806101565750303b158015610156575060005460ff166001145b6101e7576040517f08c379a000000000000000000000000000000000000000000000000000000000815260206004820152602e60248201527f496e697469616c697a61626c653a20636f6e747261637420697320616c72656160448201527f647920696e697469616c697a656400000000000000000000000000000000000060648201526084015b60405180910390fd5b600080547fffffffffffffffffffffffffffffffffffffffffffffffffffffffffffffff00166001179055801561024557600080547fffffffffffffffffffffffffffffffffffffffffffffffffffffffffffff00ff166101001790555b61024d610a5e565b600061025b83850185611021565b905061026a8160000151610afd565b7fdb51ff6dedafcbee9a70b97ec7a77a42c84545a3de77d3519c83460e69adf99f338260405161029b929190611268565b60405180910390a1600080600083602001516000015173ffffffffffffffffffffffffffffffffffffffff16635511cb678560200151602001518660200151604001516102fb600160408051600181526020810192909252818101905290565b6040518463ffffffff1660e01b81526004016103199392919061130b565b6060604051808303816000875af1158015610338573d6000803e3d6000fd5b505050506040513d601f19601f8201168201806040525081019061035c9190611344565b6040805160608101825273ffffffffffffffffffffffffffffffffffffffff94851680825293851660208201819052929094169301839052606580547fffffffffffffffffffffffff000000000000000000000000000000000000000090811690931790556066805483169091179055606780549091169091179055505082159150610117905057600080547fffffffffffffffffffffffffffffffffffffffffffffffffffffffffffff00ff169055604051600181527f7f26b83ff96e1f2b6a682f133852f6798a09c465da95921460cefb38474024989060200160405180910390a1505050565b61044d6109dd565b6104576000610afd565b565b61046483838361010f565b60008167ffffffffffffffff81111561047f5761047f610e3a565b6040519080825280602002602001820160405280156104a8578160200160208202803683370190505b506040805160018082528183019092529192506000918291816020015b60608152602001906001900390816104c55750506040805160028082526060820183529293509190602083019080368337019050508160008151811061050d5761050d611391565b6020908102919091018101919091526040805160608101825260655473ffffffffffffffffffffffffffffffffffffffff90811682526066548116938201939093526067549092169082015260005b8581101561089d5786868281811061057657610576611391565b905060200281019061058891906113c0565b6105969060208101906113fe565b9050602003610895578686828181106105b1576105b1611391565b90506020028101906105c391906113c0565b6105d1906020810190610e16565b73ffffffffffffffffffffffffffffffffffffffff16836000815181106105fa576105fa611391565b602002602001015160008151811061061457610614611391565b60200260200101818152505086868281811061063257610632611391565b905060200281019061064491906113c0565b6106529060208101906113fe565b61065b9161146a565b60001c8360008151811061067157610671611391565b602002602001015160018151811061068b5761068b611391565b6020026020010181815250507f17a5c0f3785132a57703932032f6863e7920434150aa1dc940e567b440fdce1f33846040516106c89291906114ef565b60405180910390a181516020808401516040850151600093849373ffffffffffffffffffffffffffffffffffffffff90911692636715f8259290918591901b77ffffffffffffffffffffffffffffffffffffffff0000000016600117896040518563ffffffff1660e01b81526004016107449493929190611526565b600060405180830381865afa158015610761573d6000803e3d6000fd5b505050506040513d6000823e601f3d9081017fffffffffffffffffffffffffffffffffffffffffffffffffffffffffffffffe01682016040526107a791908101906115bc565b915091506000826001845103815181106107c3576107c3611391565b6020026020010151111561081857610811878a8a868181106107e7576107e7611391565b90506020028101906107f991906113c0565b61080290611620565b6020808a029290920190910152565b6001909501945b80511561089257836020015173ffffffffffffffffffffffffffffffffffffffff1663946aadc66000836040518363ffffffff1660e01b815260040161085f929190611679565b600060405180830381600087803b15801561087957600080fd5b505af115801561088d573d6000803e3d6000fd5b505050505b50505b60010161055c565b50821561091d576108ae8484610b74565b6040517f7c7d7f7a0000000000000000000000000000000000000000000000000000000081523390637c7d7f7a906108ea908790600401611692565b600060405180830381600087803b15801561090457600080fd5b505af1158015610918573d6000803e3d6000fd5b505050505b50505050505050565b61092e6109dd565b73ffffffffffffffffffffffffffffffffffffffff81166109d1576040517f08c379a000000000000000000000000000000000000000000000000000000000815260206004820152602660248201527f4f776e61626c653a206e6577206f776e657220697320746865207a65726f206160448201527f646472657373000000000000000000000000000000000000000000000000000060648201526084016101de565b6109da81610afd565b50565b60335473ffffffffffffffffffffffffffffffffffffffff163314610457576040517f08c379a000000000000000000000000000000000000000000000000000000000815260206004820181905260248201527f4f776e61626c653a2063616c6c6572206973206e6f7420746865206f776e657260448201526064016101de565b600054610100900460ff16610af5576040517f08c379a000000000000000000000000000000000000000000000000000000000815260206004820152602b60248201527f496e697469616c697a61626c653a20636f6e7472616374206973206e6f74206960448201527f6e697469616c697a696e6700000000000000000000000000000000000000000060648201526084016101de565b610457610bc0565b6033805473ffffffffffffffffffffffffffffffffffffffff8381167fffffffffffffffffffffffff0000000000000000000000000000000000000000831681179093556040519116919082907f8be0079c531659141344cd1fd0a4f28419497f9722a3daafe3b4186f6b6457e090600090a35050565b8151811115610bbc5781516040517f383f2cc80000000000000000000000000000000000000000000000000000000081526004810191909152602481018290526044016101de565b9052565b600054610100900460ff16610c57576040517f08c379a000000000000000000000000000000000000000000000000000000000815260206004820152602b60248201527f496e697469616c697a61626c653a20636f6e7472616374206973206e6f74206960448201527f6e697469616c697a696e6700000000000000000000000000000000000000000060648201526084016101de565b610457600054610100900460ff16610cf1576040517f08c379a000000000000000000000000000000000000000000000000000000000815260206004820152602b60248201527f496e697469616c697a61626c653a20636f6e7472616374206973206e6f74206960448201527f6e697469616c697a696e6700000000000000000000000000000000000000000060648201526084016101de565b61045733610afd565b73ffffffffffffffffffffffffffffffffffffffff811681146109da57600080fd5b600080600060408486031215610d3157600080fd5b8335610d3c81610cfa565b9250602084013567ffffffffffffffff80821115610d5957600080fd5b818601915086601f830112610d6d57600080fd5b813581811115610d7c57600080fd5b8760208260051b8501011115610d9157600080fd5b6020830194508093505050509250925092565b60008060208385031215610db757600080fd5b823567ffffffffffffffff80821115610dcf57600080fd5b818501915085601f830112610de357600080fd5b813581811115610df257600080fd5b866020828501011115610e0457600080fd5b60209290920196919550909350505050565b600060208284031215610e2857600080fd5b8135610e3381610cfa565b9392505050565b7f4e487b7100000000000000000000000000000000000000000000000000000000600052604160045260246000fd5b6040805190810167ffffffffffffffff81118282101715610e8c57610e8c610e3a565b60405290565b6040516060810167ffffffffffffffff81118282101715610e8c57610e8c610e3a565b604051601f82017fffffffffffffffffffffffffffffffffffffffffffffffffffffffffffffffe016810167ffffffffffffffff81118282101715610efc57610efc610e3a565b604052919050565b600067ffffffffffffffff821115610f1e57610f1e610e3a565b5060051b60200190565b600082601f830112610f3957600080fd5b813567ffffffffffffffff811115610f5357610f53610e3a565b610f8460207fffffffffffffffffffffffffffffffffffffffffffffffffffffffffffffffe0601f84011601610eb5565b818152846020838601011115610f9957600080fd5b816020850160208301376000918101602001919091529392505050565b600082601f830112610fc757600080fd5b81356020610fdc610fd783610f04565b610eb5565b82815260059290921b84018101918181019086841115610ffb57600080fd5b8286015b848110156110165780358352918301918301610fff565b509695505050505050565b6000602080838503121561103457600080fd5b823567ffffffffffffffff8082111561104c57600080fd5b908401906040828703121561106057600080fd5b611068610e69565b823561107381610cfa565b8152828401358281111561108657600080fd5b92909201916060838803121561109b57600080fd5b6110a3610e92565b83356110ae81610cfa565b815283850135838111156110c157600080fd5b8401601f810189136110d257600080fd5b80356110e0610fd782610f04565b81815260059190911b8201870190878101908b8311156110ff57600080fd5b8884015b838110156111375780358881111561111b5760008081fd5b6111298e8c83890101610f28565b845250918901918901611103565b508489015250505060408401358381111561115157600080fd5b61115d89828701610fb6565b604083015250938101939093525090949350505050565b6000815180845260005b8181101561119a5760208185018101518683018201520161117e565b5060006020828601015260207fffffffffffffffffffffffffffffffffffffffffffffffffffffffffffffffe0601f83011685010191505092915050565b600081518084526020808501808196508360051b8101915082860160005b8581101561122057828403895261120e848351611174565b988501989350908401906001016111f6565b5091979650505050505050565b600081518084526020808501945080840160005b8381101561125d57815187529582019590820190600101611241565b509495945050505050565b600073ffffffffffffffffffffffffffffffffffffffff80851683526040602084015280845116604084015260208401516040606085015281815116608085015260208101519150606060a08501526112c460e08501836111d8565b9150604081015190507fffffffffffffffffffffffffffffffffffffffffffffffffffffffffffffff808483030160c0850152611301828261122d565b9695505050505050565b60608152600061131e60608301866111d8565b8281036020840152611330818661122d565b90508281036040840152611301818561122d565b60008060006060848603121561135957600080fd5b835161136481610cfa565b602085015190935061137581610cfa565b604085015190925061138681610cfa565b809150509250925092565b7f4e487b7100000000000000000000000000000000000000000000000000000000600052603260045260246000fd5b600082357fffffffffffffffffffffffffffffffffffffffffffffffffffffffffffffffc18336030181126113f457600080fd5b9190910192915050565b60008083357fffffffffffffffffffffffffffffffffffffffffffffffffffffffffffffffe184360301811261143357600080fd5b83018035915067ffffffffffffffff82111561144e57600080fd5b60200191503681900382131561146357600080fd5b9250929050565b803560208310156114a1577fffffffffffffffffffffffffffffffffffffffffffffffffffffffffffffffff602084900360031b1b165b92915050565b600081518084526020808501808196508360051b8101915082860160005b858110156112205782840389526114dd84835161122d565b988501989350908401906001016114c5565b73ffffffffffffffffffffffffffffffffffffffff8316815260406020820152600061151e60408301846114a7565b949350505050565b73ffffffffffffffffffffffffffffffffffffffff8516815283602082015282604082015260806060820152600061130160808301846114a7565b600082601f83011261157257600080fd5b81516020611582610fd783610f04565b82815260059290921b840181019181810190868411156115a157600080fd5b8286015b8481101561101657805183529183019183016115a5565b600080604083850312156115cf57600080fd5b825167ffffffffffffffff808211156115e757600080fd5b6115f386838701611561565b9350602085015191508082111561160957600080fd5b5061161685828601611561565b9150509250929050565b60006040823603121561163257600080fd5b61163a610e69565b823561164581610cfa565b8152602083013567ffffffffffffffff81111561166157600080fd5b61166d36828601610f28565b60208301525092915050565b82815260406020820152600061151e604083018461122d565b60006020808301818452808551808352604092508286019150828160051b87010184880160005b8381101561172c578883037fffffffffffffffffffffffffffffffffffffffffffffffffffffffffffffffc00185528151805173ffffffffffffffffffffffffffffffffffffffff16845287015187840187905261171987850182611174565b95880195935050908601906001016116b9565b50909897505050505050505056fea264697066735822122092646fc02b4f4d0637be94b887907849862930862fed7d8789611669fe935d3964736f6c63430008130033",
  "linkReferences": {},
  "deployedLinkReferences": {}
}