{
  "_format": "hh-sol-artifact-1",
  "contractName": "ERC3156FlashBorrowerDepositTest",
  "sourceName": "contracts/test/erc3156/ERC3156FlashBorrowerDepositTest.sol",
  "abi": [
    {
      "inputs": [
        {
          "internalType": "address",
          "name": "",
          "type": "address"
        },
        {
          "internalType": "address",
          "name": "token_",
          "type": "address"
        },
        {
          "internalType": "uint256",
          "name": "amount_",
          "type": "uint256"
        },
        {
          "internalType": "uint256",
          "name": "",
          "type": "uint256"
        },
        {
          "internalType": "bytes",
          "name": "data_",
          "type": "bytes"
        }
      ],
      "name": "onFlashLoan",
      "outputs": [
        {
          "internalType": "bytes32",
          "name": "",
          "type": "bytes32"
        }
      ],
      "stateMutability": "nonpayable",
      "type": "function"
    }
  ],
  "bytecode": "0x608060405234801561001057600080fd5b5061040e806100206000396000f3fe608060405234801561001057600080fd5b506004361061002b5760003560e01c806323e30c8b14610030575b600080fd5b61004361003e366004610281565b610055565b60405190815260200160405180910390f35b60008061006483850185610327565b6040517f095ea7b30000000000000000000000000000000000000000000000000000000081523360048201526024810188905290915073ffffffffffffffffffffffffffffffffffffffff88169063095ea7b3906044016020604051808303816000875af11580156100da573d6000803e3d6000fd5b505050506040513d601f19601f820116820180604052508101906100fe91906103af565b50604080517fe6b62636000000000000000000000000000000000000000000000000000000008152825173ffffffffffffffffffffffffffffffffffffffff16600482015260208301516024820152908201516044820152339063e6b6263690606401600060405180830381600087803b15801561017b57600080fd5b505af115801561018f573d6000803e3d6000fd5b50506040517f095ea7b30000000000000000000000000000000000000000000000000000000081523360048201526024810189905273ffffffffffffffffffffffffffffffffffffffff8a16925063095ea7b391506044016020604051808303816000875af1158015610206573d6000803e3d6000fd5b505050506040513d601f19601f8201168201806040525081019061022a91906103af565b507f439148f0bbc682ca079e46d6e2c2f0c1e3b820f1a291b069d8882abf8cf18dd998975050505050505050565b803573ffffffffffffffffffffffffffffffffffffffff8116811461027c57600080fd5b919050565b60008060008060008060a0878903121561029a57600080fd5b6102a387610258565b95506102b160208801610258565b94506040870135935060608701359250608087013567ffffffffffffffff808211156102dc57600080fd5b818901915089601f8301126102f057600080fd5b8135818111156102ff57600080fd5b8a602082850101111561031157600080fd5b6020830194508093505050509295509295509295565b60006060828403121561033957600080fd5b6040516060810181811067ffffffffffffffff82111715610383577f4e487b7100000000000000000000000000000000000000000000000000000000600052604160045260246000fd5b60405261038f83610258565b815260208301356020820152604083013560408201528091505092915050565b6000602082840312156103c157600080fd5b815180151581146103d157600080fd5b939250505056fea26469706673582212208895112e8455b5abaa73f042bc0ab410eacb357f9c854b2e96ebb2d3dfec558a64736f6c63430008130033",
  "linkReferences": {},
  "deployedLinkReferences": {}
}