{
  "_format": "hh-sol-artifact-1",
  "contractName": "FlowCommon",
  "sourceName": "contracts/flow/FlowCommon.sol",
  "abi": [
    {
      "inputs": [
        {
          "internalType": "bytes32",
          "name": "metaHash_",
          "type": "bytes32"
        },
        {
          "components": [
            {
              "internalType": "address",
              "name": "deployer",
              "type": "address"
            },
            {
              "internalType": "bytes",
              "name": "meta",
              "type": "bytes"
            }
          ],
          "internalType": "struct DeployerDiscoverableMetaV1ConstructionConfig",
          "name": "config_",
          "type": "tuple"
        }
      ],
      "stateMutability": "nonpayable",
      "type": "constructor"
    },
    {
      "inputs": [
        {
          "internalType": "bytes",
          "name": "unmeta",
          "type": "bytes"
        }
      ],
      "name": "NotRainMetaV1",
      "type": "error"
    },
    {
      "inputs": [
        {
          "internalType": "bytes32",
          "name": "expectedHash",
          "type": "bytes32"
        },
        {
          "internalType": "bytes32",
          "name": "actualHash",
          "type": "bytes32"
        }
      ],
      "name": "UnexpectedMetaHash",
      "type": "error"
    },
    {
      "anonymous": false,
      "inputs": [
        {
          "indexed": false,
          "internalType": "address",
          "name": "sender",
          "type": "address"
        },
        {
          "indexed": false,
          "internalType": "uint256[][]",
          "name": "context",
          "type": "uint256[][]"
        }
      ],
      "name": "Context",
      "type": "event"
    },
    {
      "anonymous": false,
      "inputs": [
        {
          "indexed": false,
          "internalType": "address",
          "name": "sender",
          "type": "address"
        },
        {
          "components": [
            {
              "internalType": "contract IInterpreterV1",
              "name": "interpreter",
              "type": "address"
            },
            {
              "internalType": "contract IInterpreterStoreV1",
              "name": "store",
              "type": "address"
            },
            {
              "internalType": "address",
              "name": "expression",
              "type": "address"
            }
          ],
          "indexed": false,
          "internalType": "struct Evaluable",
          "name": "evaluable",
          "type": "tuple"
        }
      ],
      "name": "FlowInitialized",
      "type": "event"
    },
    {
      "anonymous": false,
      "inputs": [
        {
          "indexed": false,
          "internalType": "uint8",
          "name": "version",
          "type": "uint8"
        }
      ],
      "name": "Initialized",
      "type": "event"
    },
    {
      "anonymous": false,
      "inputs": [
        {
          "indexed": false,
          "internalType": "address",
          "name": "sender",
          "type": "address"
        },
        {
          "indexed": false,
          "internalType": "uint256",
          "name": "subject",
          "type": "uint256"
        },
        {
          "indexed": false,
          "internalType": "bytes",
          "name": "meta",
          "type": "bytes"
        }
      ],
      "name": "MetaV1",
      "type": "event"
    },
    {
      "inputs": [
        {
          "internalType": "bytes[]",
          "name": "data",
          "type": "bytes[]"
        }
      ],
      "name": "multicall",
      "outputs": [
        {
          "internalType": "bytes[]",
          "name": "results",
          "type": "bytes[]"
        }
      ],
      "stateMutability": "nonpayable",
      "type": "function"
    },
    {
      "inputs": [
        {
          "internalType": "address",
          "name": "",
          "type": "address"
        },
        {
          "internalType": "address",
          "name": "",
          "type": "address"
        },
        {
          "internalType": "uint256[]",
          "name": "",
          "type": "uint256[]"
        },
        {
          "internalType": "uint256[]",
          "name": "",
          "type": "uint256[]"
        },
        {
          "internalType": "bytes",
          "name": "",
          "type": "bytes"
        }
      ],
      "name": "onERC1155BatchReceived",
      "outputs": [
        {
          "internalType": "bytes4",
          "name": "",
          "type": "bytes4"
        }
      ],
      "stateMutability": "nonpayable",
      "type": "function"
    },
    {
      "inputs": [
        {
          "internalType": "address",
          "name": "",
          "type": "address"
        },
        {
          "internalType": "address",
          "name": "",
          "type": "address"
        },
        {
          "internalType": "uint256",
          "name": "",
          "type": "uint256"
        },
        {
          "internalType": "uint256",
          "name": "",
          "type": "uint256"
        },
        {
          "internalType": "bytes",
          "name": "",
          "type": "bytes"
        }
      ],
      "name": "onERC1155Received",
      "outputs": [
        {
          "internalType": "bytes4",
          "name": "",
          "type": "bytes4"
        }
      ],
      "stateMutability": "nonpayable",
      "type": "function"
    },
    {
      "inputs": [
        {
          "internalType": "address",
          "name": "",
          "type": "address"
        },
        {
          "internalType": "address",
          "name": "",
          "type": "address"
        },
        {
          "internalType": "uint256",
          "name": "",
          "type": "uint256"
        },
        {
          "internalType": "bytes",
          "name": "",
          "type": "bytes"
        }
      ],
      "name": "onERC721Received",
      "outputs": [
        {
          "internalType": "bytes4",
          "name": "",
          "type": "bytes4"
        }
      ],
      "stateMutability": "nonpayable",
      "type": "function"
    },
    {
      "inputs": [
        {
          "internalType": "bytes4",
          "name": "interfaceId",
          "type": "bytes4"
        }
      ],
      "name": "supportsInterface",
      "outputs": [
        {
          "internalType": "bool",
          "name": "",
          "type": "bool"
        }
      ],
      "stateMutability": "view",
      "type": "function"
    }
  ],
  "bytecode": "0x60806040523480156200001157600080fd5b506040516200114038038062001140833981016040819052620000349162000389565b81816200004c828260200151620000af60201b60201c565b60208101516040517fbea766d03fa1efd3f81cc8634d08320bc62bb0ed9234ac59bbaafa5893fb6b1391620000859133913091620004a5565b60405180910390a180516200009a90620000f6565b50620000a79050620001ba565b505062000617565b80516020820120828114620000e65760405163074fe10f60e41b815260048101849052602481018290526044015b60405180910390fd5b620000f18262000279565b505050565b604080516000808252602082019092526001600160a01b03831691635511cb67919062000134565b60608152602001906001900390816200011e5790505b5060408051600080825260208201908152818301928390526001600160e01b031960e086901b169092526200016e92916044820162000514565b6060604051808303816000875af11580156200018e573d6000803e3d6000fd5b505050506040513d601f19601f82011682018060405250810190620001b49190620005a7565b50505050565b600054610100900460ff1615620002245760405162461bcd60e51b815260206004820152602760248201527f496e697469616c697a61626c653a20636f6e747261637420697320696e697469604482015266616c697a696e6760c81b6064820152608401620000dd565b60005460ff908116101562000277576000805460ff191660ff9081179091556040519081527f7f26b83ff96e1f2b6a682f133852f6798a09c465da95921460cefb38474024989060200160405180910390a15b565b6200028481620002a9565b620002a65780604051630c89984b60e31b8152600401620000dd9190620005fb565b50565b6000600882511015620002be57506000919050565b50600801516001600160401b031667ff0a89c674ee78741490565b634e487b7160e01b600052604160045260246000fd5b604080519081016001600160401b0381118282101715620003145762000314620002d9565b60405290565b604051601f8201601f191681016001600160401b0381118282101715620003455762000345620002d9565b604052919050565b6001600160a01b0381168114620002a657600080fd5b60005b838110156200038057818101518382015260200162000366565b50506000910152565b600080604083850312156200039d57600080fd5b8251602080850151919350906001600160401b0380821115620003bf57600080fd5b9085019060408288031215620003d457600080fd5b620003de620002ef565b8251620003eb816200034d565b81528284015182811115620003ff57600080fd5b80840193505087601f8401126200041557600080fd5b8251828111156200042a576200042a620002d9565b6200043e601f8201601f191686016200031a565b925080835288858286010111156200045557600080fd5b620004668186850187870162000363565b509283015250919491935090915050565b600081518084526200049181602086016020860162000363565b601f01601f19169290920160200192915050565b60018060a01b0384168152826020820152606060408201526000620004ce606083018462000477565b95945050505050565b600081518084526020808501945080840160005b838110156200050957815187529582019590820190600101620004eb565b509495945050505050565b6000606082016060835280865180835260808501915060808160051b8601019250602080890160005b838110156200056f57607f198887030185526200055c86835162000477565b955093820193908201906001016200053d565b505085840381870152505050620005878186620004d7565b905082810360408401526200059d8185620004d7565b9695505050505050565b600080600060608486031215620005bd57600080fd5b8351620005ca816200034d565b6020850151909350620005dd816200034d565b6040850151909250620005f0816200034d565b809150509250925092565b60208152600062000610602083018462000477565b9392505050565b610b1980620006276000396000f3fe608060405234801561001057600080fd5b50600436106100675760003560e01c8063ac9650d811610050578063ac9650d8146100fc578063bc197c811461011c578063f23a6e611461015457600080fd5b806301ffc9a71461006c578063150b7a0214610094575b600080fd5b61007f61007a3660046104c2565b61018c565b60405190151581526020015b60405180910390f35b6100cb6100a2366004610639565b7f150b7a0200000000000000000000000000000000000000000000000000000000949350505050565b6040517fffffffff00000000000000000000000000000000000000000000000000000000909116815260200161008b565b61010f61010a3660046106a1565b610225565b60405161008b9190610784565b6100cb61012a366004610884565b7fbc197c810000000000000000000000000000000000000000000000000000000095945050505050565b6100cb61016236600461092e565b7ff23a6e610000000000000000000000000000000000000000000000000000000095945050505050565b60007fffffffff0000000000000000000000000000000000000000000000000000000082167f4e2312e000000000000000000000000000000000000000000000000000000000148061021f57507f01ffc9a7000000000000000000000000000000000000000000000000000000007fffffffff000000000000000000000000000000000000000000000000000000008316145b92915050565b60608167ffffffffffffffff8111156102405761024061052d565b60405190808252806020026020018201604052801561027357816020015b606081526020019060019003908161025e5790505b50905060005b82811015610313576102e33085858481811061029757610297610993565b90506020028101906102a991906109c2565b8080601f01602080910402602001604051908101604052809392919081815260200183838082843760009201919091525061031a92505050565b8282815181106102f5576102f5610993565b6020026020010181905250808061030b90610a2e565b915050610279565b5092915050565b606073ffffffffffffffffffffffffffffffffffffffff83163b6103c5576040517f08c379a000000000000000000000000000000000000000000000000000000000815260206004820152602660248201527f416464726573733a2064656c65676174652063616c6c20746f206e6f6e2d636f60448201527f6e7472616374000000000000000000000000000000000000000000000000000060648201526084015b60405180910390fd5b6000808473ffffffffffffffffffffffffffffffffffffffff16846040516103ed9190610a8d565b600060405180830381855af49150503d8060008114610428576040519150601f19603f3d011682016040523d82523d6000602084013e61042d565b606091505b50915091506104558282604051806060016040528060278152602001610abd6027913961045e565b95945050505050565b6060831561046d575081610477565b610477838361047e565b9392505050565b81511561048e5781518083602001fd5b806040517f08c379a00000000000000000000000000000000000000000000000000000000081526004016103bc9190610aa9565b6000602082840312156104d457600080fd5b81357fffffffff000000000000000000000000000000000000000000000000000000008116811461047757600080fd5b803573ffffffffffffffffffffffffffffffffffffffff8116811461052857600080fd5b919050565b7f4e487b7100000000000000000000000000000000000000000000000000000000600052604160045260246000fd5b604051601f82017fffffffffffffffffffffffffffffffffffffffffffffffffffffffffffffffe016810167ffffffffffffffff811182821017156105a3576105a361052d565b604052919050565b600082601f8301126105bc57600080fd5b813567ffffffffffffffff8111156105d6576105d661052d565b61060760207fffffffffffffffffffffffffffffffffffffffffffffffffffffffffffffffe0601f8401160161055c565b81815284602083860101111561061c57600080fd5b816020850160208301376000918101602001919091529392505050565b6000806000806080858703121561064f57600080fd5b61065885610504565b935061066660208601610504565b925060408501359150606085013567ffffffffffffffff81111561068957600080fd5b610695878288016105ab565b91505092959194509250565b600080602083850312156106b457600080fd5b823567ffffffffffffffff808211156106cc57600080fd5b818501915085601f8301126106e057600080fd5b8135818111156106ef57600080fd5b8660208260051b850101111561070457600080fd5b60209290920196919550909350505050565b60005b83811015610731578181015183820152602001610719565b50506000910152565b60008151808452610752816020860160208601610716565b601f017fffffffffffffffffffffffffffffffffffffffffffffffffffffffffffffffe0169290920160200192915050565b6000602080830181845280855180835260408601915060408160051b870101925083870160005b828110156107f7577fffffffffffffffffffffffffffffffffffffffffffffffffffffffffffffffc08886030184526107e585835161073a565b945092850192908501906001016107ab565b5092979650505050505050565b600082601f83011261081557600080fd5b8135602067ffffffffffffffff8211156108315761083161052d565b8160051b61084082820161055c565b928352848101820192828101908785111561085a57600080fd5b83870192505b8483101561087957823582529183019190830190610860565b979650505050505050565b600080600080600060a0868803121561089c57600080fd5b6108a586610504565b94506108b360208701610504565b9350604086013567ffffffffffffffff808211156108d057600080fd5b6108dc89838a01610804565b945060608801359150808211156108f257600080fd5b6108fe89838a01610804565b9350608088013591508082111561091457600080fd5b50610921888289016105ab565b9150509295509295909350565b600080600080600060a0868803121561094657600080fd5b61094f86610504565b945061095d60208701610504565b93506040860135925060608601359150608086013567ffffffffffffffff81111561098757600080fd5b610921888289016105ab565b7f4e487b7100000000000000000000000000000000000000000000000000000000600052603260045260246000fd5b60008083357fffffffffffffffffffffffffffffffffffffffffffffffffffffffffffffffe18436030181126109f757600080fd5b83018035915067ffffffffffffffff821115610a1257600080fd5b602001915036819003821315610a2757600080fd5b9250929050565b60007fffffffffffffffffffffffffffffffffffffffffffffffffffffffffffffffff8203610a86577f4e487b7100000000000000000000000000000000000000000000000000000000600052601160045260246000fd5b5060010190565b60008251610a9f818460208701610716565b9190910192915050565b602081526000610477602083018461073a56fe416464726573733a206c6f772d6c6576656c2064656c65676174652063616c6c206661696c6564a2646970667358221220e6555b286396903e35a6a0bbd33dc9e951decb9d14111098e0d817395b8fdc1a64736f6c63430008130033",
  "linkReferences": {},
  "deployedLinkReferences": {}
}