{
  "_format": "hh-sol-artifact-1",
  "contractName": "ERC3156FlashBorrowerTestReentrancy",
  "sourceName": "contracts/test/erc3156/ERC3156FlashBorrowerTestReentrancy.sol",
  "abi": [
    {
      "inputs": [
        {
          "internalType": "address",
          "name": "",
          "type": "address"
        },
        {
          "internalType": "address",
          "name": "token",
          "type": "address"
        },
        {
          "internalType": "uint256",
          "name": "amount",
          "type": "uint256"
        },
        {
          "internalType": "uint256",
          "name": "fee",
          "type": "uint256"
        },
        {
          "internalType": "bytes",
          "name": "",
          "type": "bytes"
        }
      ],
      "name": "onFlashLoan",
      "outputs": [
        {
          "internalType": "bytes32",
          "name": "",
          "type": "bytes32"
        }
      ],
      "stateMutability": "nonpayable",
      "type": "function"
    }
  ],
  "bytecode": "0x608060405234801561001057600080fd5b50610414806100206000396000f3fe608060405234801561001057600080fd5b506004361061002b5760003560e01c806323e30c8b14610030575b600080fd5b61004361003e3660046102b6565b610055565b60405190815260200160405180910390f35b6040517f70a08231000000000000000000000000000000000000000000000000000000008152336004820152600090819073ffffffffffffffffffffffffffffffffffffffff8816906370a0823190602401602060405180830381865afa1580156100c4573d6000803e3d6000fd5b505050506040513d601f19601f820116820180604052508101906100e8919061035c565b11156101a3576040517f5cffe9de00000000000000000000000000000000000000000000000000000000815230600482015273ffffffffffffffffffffffffffffffffffffffff871660248201526044810186905260806064820152600060848201523390635cffe9de9060a4016020604051808303816000875af1158015610175573d6000803e3d6000fd5b505050506040513d601f19601f820116820180604052508101906101999190610375565b5060009050610283565b73ffffffffffffffffffffffffffffffffffffffff861663095ea7b3336101ca878961039e565b6040517fffffffff0000000000000000000000000000000000000000000000000000000060e085901b16815273ffffffffffffffffffffffffffffffffffffffff909216600483015260248201526044016020604051808303816000875af115801561023a573d6000803e3d6000fd5b505050506040513d601f19601f8201168201806040525081019061025e9190610375565b507f439148f0bbc682ca079e46d6e2c2f0c1e3b820f1a291b069d8882abf8cf18dd990505b9695505050505050565b803573ffffffffffffffffffffffffffffffffffffffff811681146102b157600080fd5b919050565b60008060008060008060a087890312156102cf57600080fd5b6102d88761028d565b95506102e66020880161028d565b94506040870135935060608701359250608087013567ffffffffffffffff8082111561031157600080fd5b818901915089601f83011261032557600080fd5b81358181111561033457600080fd5b8a602082850101111561034657600080fd5b6020830194508093505050509295509295509295565b60006020828403121561036e57600080fd5b5051919050565b60006020828403121561038757600080fd5b8151801515811461039757600080fd5b9392505050565b808201808211156103d8577f4e487b7100000000000000000000000000000000000000000000000000000000600052601160045260246000fd5b9291505056fea2646970667358221220e5baa8110456de82c8deb2b3abfd3fa9f2ac81fb932b1463b3ec4b3f9a67413d64736f6c63430008130033",
  "linkReferences": {},
  "deployedLinkReferences": {}
}