{
  "_format": "hh-sol-artifact-1",
  "contractName": "Verify",
  "sourceName": "contracts/verify/Verify.sol",
  "abi": [
    {
      "inputs": [],
      "stateMutability": "nonpayable",
      "type": "constructor"
    },
    {
      "inputs": [
        {
          "internalType": "uint256",
          "name": "arrayLength",
          "type": "uint256"
        },
        {
          "internalType": "uint256",
          "name": "truncatedLength",
          "type": "uint256"
        }
      ],
      "name": "OutOfBoundsTruncate",
      "type": "error"
    },
    {
      "anonymous": false,
      "inputs": [
        {
          "indexed": false,
          "internalType": "address",
          "name": "sender",
          "type": "address"
        },
        {
          "components": [
            {
              "internalType": "address",
              "name": "account",
              "type": "address"
            },
            {
              "internalType": "bytes",
              "name": "data",
              "type": "bytes"
            }
          ],
          "indexed": false,
          "internalType": "struct Evidence",
          "name": "evidence",
          "type": "tuple"
        }
      ],
      "name": "Approve",
      "type": "event"
    },
    {
      "anonymous": false,
      "inputs": [
        {
          "indexed": false,
          "internalType": "address",
          "name": "sender",
          "type": "address"
        },
        {
          "components": [
            {
              "internalType": "address",
              "name": "account",
              "type": "address"
            },
            {
              "internalType": "bytes",
              "name": "data",
              "type": "bytes"
            }
          ],
          "indexed": false,
          "internalType": "struct Evidence",
          "name": "evidence",
          "type": "tuple"
        }
      ],
      "name": "Ban",
      "type": "event"
    },
    {
      "anonymous": false,
      "inputs": [
        {
          "indexed": false,
          "internalType": "address",
          "name": "sender",
          "type": "address"
        },
        {
          "components": [
            {
              "internalType": "address",
              "name": "admin",
              "type": "address"
            },
            {
              "internalType": "address",
              "name": "callback",
              "type": "address"
            }
          ],
          "indexed": false,
          "internalType": "struct VerifyConfig",
          "name": "config",
          "type": "tuple"
        }
      ],
      "name": "Initialize",
      "type": "event"
    },
    {
      "anonymous": false,
      "inputs": [
        {
          "indexed": false,
          "internalType": "uint8",
          "name": "version",
          "type": "uint8"
        }
      ],
      "name": "Initialized",
      "type": "event"
    },
    {
      "anonymous": false,
      "inputs": [
        {
          "indexed": false,
          "internalType": "address",
          "name": "sender",
          "type": "address"
        },
        {
          "components": [
            {
              "internalType": "address",
              "name": "account",
              "type": "address"
            },
            {
              "internalType": "bytes",
              "name": "data",
              "type": "bytes"
            }
          ],
          "indexed": false,
          "internalType": "struct Evidence",
          "name": "evidence",
          "type": "tuple"
        }
      ],
      "name": "Remove",
      "type": "event"
    },
    {
      "anonymous": false,
      "inputs": [
        {
          "indexed": false,
          "internalType": "address",
          "name": "sender",
          "type": "address"
        },
        {
          "components": [
            {
              "internalType": "address",
              "name": "account",
              "type": "address"
            },
            {
              "internalType": "bytes",
              "name": "data",
              "type": "bytes"
            }
          ],
          "indexed": false,
          "internalType": "struct Evidence",
          "name": "evidence",
          "type": "tuple"
        }
      ],
      "name": "RequestApprove",
      "type": "event"
    },
    {
      "anonymous": false,
      "inputs": [
        {
          "indexed": false,
          "internalType": "address",
          "name": "sender",
          "type": "address"
        },
        {
          "components": [
            {
              "internalType": "address",
              "name": "account",
              "type": "address"
            },
            {
              "internalType": "bytes",
              "name": "data",
              "type": "bytes"
            }
          ],
          "indexed": false,
          "internalType": "struct Evidence",
          "name": "evidence",
          "type": "tuple"
        }
      ],
      "name": "RequestBan",
      "type": "event"
    },
    {
      "anonymous": false,
      "inputs": [
        {
          "indexed": false,
          "internalType": "address",
          "name": "sender",
          "type": "address"
        },
        {
          "components": [
            {
              "internalType": "address",
              "name": "account",
              "type": "address"
            },
            {
              "internalType": "bytes",
              "name": "data",
              "type": "bytes"
            }
          ],
          "indexed": false,
          "internalType": "struct Evidence",
          "name": "evidence",
          "type": "tuple"
        }
      ],
      "name": "RequestRemove",
      "type": "event"
    },
    {
      "anonymous": false,
      "inputs": [
        {
          "indexed": true,
          "internalType": "bytes32",
          "name": "role",
          "type": "bytes32"
        },
        {
          "indexed": true,
          "internalType": "bytes32",
          "name": "previousAdminRole",
          "type": "bytes32"
        },
        {
          "indexed": true,
          "internalType": "bytes32",
          "name": "newAdminRole",
          "type": "bytes32"
        }
      ],
      "name": "RoleAdminChanged",
      "type": "event"
    },
    {
      "anonymous": false,
      "inputs": [
        {
          "indexed": true,
          "internalType": "bytes32",
          "name": "role",
          "type": "bytes32"
        },
        {
          "indexed": true,
          "internalType": "address",
          "name": "account",
          "type": "address"
        },
        {
          "indexed": true,
          "internalType": "address",
          "name": "sender",
          "type": "address"
        }
      ],
      "name": "RoleGranted",
      "type": "event"
    },
    {
      "anonymous": false,
      "inputs": [
        {
          "indexed": true,
          "internalType": "bytes32",
          "name": "role",
          "type": "bytes32"
        },
        {
          "indexed": true,
          "internalType": "address",
          "name": "account",
          "type": "address"
        },
        {
          "indexed": true,
          "internalType": "address",
          "name": "sender",
          "type": "address"
        }
      ],
      "name": "RoleRevoked",
      "type": "event"
    },
    {
      "inputs": [],
      "name": "APPROVER",
      "outputs": [
        {
          "internalType": "bytes32",
          "name": "",
          "type": "bytes32"
        }
      ],
      "stateMutability": "view",
      "type": "function"
    },
    {
      "inputs": [],
      "name": "APPROVER_ADMIN",
      "outputs": [
        {
          "internalType": "bytes32",
          "name": "",
          "type": "bytes32"
        }
      ],
      "stateMutability": "view",
      "type": "function"
    },
    {
      "inputs": [],
      "name": "BANNER",
      "outputs": [
        {
          "internalType": "bytes32",
          "name": "",
          "type": "bytes32"
        }
      ],
      "stateMutability": "view",
      "type": "function"
    },
    {
      "inputs": [],
      "name": "BANNER_ADMIN",
      "outputs": [
        {
          "internalType": "bytes32",
          "name": "",
          "type": "bytes32"
        }
      ],
      "stateMutability": "view",
      "type": "function"
    },
    {
      "inputs": [],
      "name": "DEFAULT_ADMIN_ROLE",
      "outputs": [
        {
          "internalType": "bytes32",
          "name": "",
          "type": "bytes32"
        }
      ],
      "stateMutability": "view",
      "type": "function"
    },
    {
      "inputs": [],
      "name": "REMOVER",
      "outputs": [
        {
          "internalType": "bytes32",
          "name": "",
          "type": "bytes32"
        }
      ],
      "stateMutability": "view",
      "type": "function"
    },
    {
      "inputs": [],
      "name": "REMOVER_ADMIN",
      "outputs": [
        {
          "internalType": "bytes32",
          "name": "",
          "type": "bytes32"
        }
      ],
      "stateMutability": "view",
      "type": "function"
    },
    {
      "inputs": [
        {
          "internalType": "address",
          "name": "account_",
          "type": "address"
        },
        {
          "internalType": "uint256",
          "name": "timestamp_",
          "type": "uint256"
        }
      ],
      "name": "accountStatusAtTime",
      "outputs": [
        {
          "internalType": "VerifyStatus",
          "name": "",
          "type": "uint256"
        }
      ],
      "stateMutability": "view",
      "type": "function"
    },
    {
      "inputs": [
        {
          "internalType": "bytes",
          "name": "data_",
          "type": "bytes"
        }
      ],
      "name": "add",
      "outputs": [],
      "stateMutability": "nonpayable",
      "type": "function"
    },
    {
      "inputs": [
        {
          "components": [
            {
              "internalType": "address",
              "name": "account",
              "type": "address"
            },
            {
              "internalType": "bytes",
              "name": "data",
              "type": "bytes"
            }
          ],
          "internalType": "struct Evidence[]",
          "name": "evidences_",
          "type": "tuple[]"
        }
      ],
      "name": "approve",
      "outputs": [],
      "stateMutability": "nonpayable",
      "type": "function"
    },
    {
      "inputs": [
        {
          "components": [
            {
              "internalType": "address",
              "name": "account",
              "type": "address"
            },
            {
              "internalType": "bytes",
              "name": "data",
              "type": "bytes"
            }
          ],
          "internalType": "struct Evidence[]",
          "name": "evidences_",
          "type": "tuple[]"
        }
      ],
      "name": "ban",
      "outputs": [],
      "stateMutability": "nonpayable",
      "type": "function"
    },
    {
      "inputs": [],
      "name": "callback",
      "outputs": [
        {
          "internalType": "contract IVerifyCallbackV1",
          "name": "",
          "type": "address"
        }
      ],
      "stateMutability": "view",
      "type": "function"
    },
    {
      "inputs": [
        {
          "internalType": "bytes32",
          "name": "role",
          "type": "bytes32"
        }
      ],
      "name": "getRoleAdmin",
      "outputs": [
        {
          "internalType": "bytes32",
          "name": "",
          "type": "bytes32"
        }
      ],
      "stateMutability": "view",
      "type": "function"
    },
    {
      "inputs": [
        {
          "internalType": "bytes32",
          "name": "role",
          "type": "bytes32"
        },
        {
          "internalType": "address",
          "name": "account",
          "type": "address"
        }
      ],
      "name": "grantRole",
      "outputs": [],
      "stateMutability": "nonpayable",
      "type": "function"
    },
    {
      "inputs": [
        {
          "internalType": "bytes32",
          "name": "role",
          "type": "bytes32"
        },
        {
          "internalType": "address",
          "name": "account",
          "type": "address"
        }
      ],
      "name": "hasRole",
      "outputs": [
        {
          "internalType": "bool",
          "name": "",
          "type": "bool"
        }
      ],
      "stateMutability": "view",
      "type": "function"
    },
    {
      "inputs": [
        {
          "internalType": "bytes",
          "name": "data_",
          "type": "bytes"
        }
      ],
      "name": "initialize",
      "outputs": [],
      "stateMutability": "nonpayable",
      "type": "function"
    },
    {
      "inputs": [
        {
          "components": [
            {
              "internalType": "address",
              "name": "account",
              "type": "address"
            },
            {
              "internalType": "bytes",
              "name": "data",
              "type": "bytes"
            }
          ],
          "internalType": "struct Evidence[]",
          "name": "evidences_",
          "type": "tuple[]"
        }
      ],
      "name": "remove",
      "outputs": [],
      "stateMutability": "nonpayable",
      "type": "function"
    },
    {
      "inputs": [
        {
          "internalType": "bytes32",
          "name": "role",
          "type": "bytes32"
        },
        {
          "internalType": "address",
          "name": "account",
          "type": "address"
        }
      ],
      "name": "renounceRole",
      "outputs": [],
      "stateMutability": "nonpayable",
      "type": "function"
    },
    {
      "inputs": [
        {
          "components": [
            {
              "internalType": "address",
              "name": "account",
              "type": "address"
            },
            {
              "internalType": "bytes",
              "name": "data",
              "type": "bytes"
            }
          ],
          "internalType": "struct Evidence[]",
          "name": "evidences_",
          "type": "tuple[]"
        }
      ],
      "name": "requestApprove",
      "outputs": [],
      "stateMutability": "nonpayable",
      "type": "function"
    },
    {
      "inputs": [
        {
          "components": [
            {
              "internalType": "address",
              "name": "account",
              "type": "address"
            },
            {
              "internalType": "bytes",
              "name": "data",
              "type": "bytes"
            }
          ],
          "internalType": "struct Evidence[]",
          "name": "evidences_",
          "type": "tuple[]"
        }
      ],
      "name": "requestBan",
      "outputs": [],
      "stateMutability": "nonpayable",
      "type": "function"
    },
    {
      "inputs": [
        {
          "components": [
            {
              "internalType": "address",
              "name": "account",
              "type": "address"
            },
            {
              "internalType": "bytes",
              "name": "data",
              "type": "bytes"
            }
          ],
          "internalType": "struct Evidence[]",
          "name": "evidences_",
          "type": "tuple[]"
        }
      ],
      "name": "requestRemove",
      "outputs": [],
      "stateMutability": "nonpayable",
      "type": "function"
    },
    {
      "inputs": [
        {
          "internalType": "bytes32",
          "name": "role",
          "type": "bytes32"
        },
        {
          "internalType": "address",
          "name": "account",
          "type": "address"
        }
      ],
      "name": "revokeRole",
      "outputs": [],
      "stateMutability": "nonpayable",
      "type": "function"
    },
    {
      "inputs": [
        {
          "internalType": "address",
          "name": "account_",
          "type": "address"
        }
      ],
      "name": "state",
      "outputs": [
        {
          "components": [
            {
              "internalType": "uint32",
              "name": "addedSince",
              "type": "uint32"
            },
            {
              "internalType": "uint32",
              "name": "approvedSince",
              "type": "uint32"
            },
            {
              "internalType": "uint32",
              "name": "bannedSince",
              "type": "uint32"
            }
          ],
          "internalType": "struct State",
          "name": "",
          "type": "tuple"
        }
      ],
      "stateMutability": "view",
      "type": "function"
    },
    {
      "inputs": [
        {
          "components": [
            {
              "internalType": "uint32",
              "name": "addedSince",
              "type": "uint32"
            },
            {
              "internalType": "uint32",
              "name": "approvedSince",
              "type": "uint32"
            },
            {
              "internalType": "uint32",
              "name": "bannedSince",
              "type": "uint32"
            }
          ],
          "internalType": "struct State",
          "name": "state_",
          "type": "tuple"
        },
        {
          "internalType": "uint256",
          "name": "timestamp_",
          "type": "uint256"
        }
      ],
      "name": "statusAtTime",
      "outputs": [
        {
          "internalType": "VerifyStatus",
          "name": "status_",
          "type": "uint256"
        }
      ],
      "stateMutability": "pure",
      "type": "function"
    },
    {
      "inputs": [
        {
          "internalType": "bytes4",
          "name": "interfaceId",
          "type": "bytes4"
        }
      ],
      "name": "supportsInterface",
      "outputs": [
        {
          "internalType": "bool",
          "name": "",
          "type": "bool"
        }
      ],
      "stateMutability": "view",
      "type": "function"
    }
  ],
  "bytecode": "0x60806040523480156200001157600080fd5b506200001c62000022565b620000e4565b600054610100900460ff16156200008f5760405162461bcd60e51b815260206004820152602760248201527f496e697469616c697a61626c653a20636f6e747261637420697320696e697469604482015266616c697a696e6760c81b606482015260840160405180910390fd5b60005460ff9081161015620000e2576000805460ff191660ff9081179091556040519081527f7f26b83ff96e1f2b6a682f133852f6798a09c465da95921460cefb38474024989060200160405180910390a15b565b612d5c80620000f46000396000f3fe608060405234801561001057600080fd5b50600436106101a35760003560e01c80637c7d7f7a116100ee578063b9bd013511610097578063d547741f11610071578063d547741f146104e0578063db8554fc146104f3578063e04dcf3d14610506578063e2fac37c1461051957600080fd5b8063b9bd0135146104a7578063ba658111146104ba578063cd491526146104cd57600080fd5b80639f839222116100c85780639f83922214610465578063a217fddf14610478578063b8c55bfa1461048057600080fd5b80637c7d7f7a146103e557806381792e44146103f857806391d148541461041f57600080fd5b806331e658a511610150578063439fab911161012a578063439fab91146103985780635df0675a146103ab5780637547a867146103be57600080fd5b806331e658a5146102a957806336568abe1461035e5780633d111c7e1461037157600080fd5b80631e210912116101815780631e2109121461024a578063248a9ca3146102715780632f2ff15d1461029457600080fd5b806301ffc9a7146101a8578063083b2732146101d0578063100ec99814610215575b600080fd5b6101bb6101b6366004612455565b61052c565b60405190151581526020015b60405180910390f35b6098546101f09073ffffffffffffffffffffffffffffffffffffffff1681565b60405173ffffffffffffffffffffffffffffffffffffffff90911681526020016101c7565b61023c7f9d65f741849e7609dd1e2c70f0d7da5f5433b36bfcf3ba4d27d2bb08ad2155b181565b6040519081526020016101c7565b61023c7f2d4d1d70bd81797c3479f5c3f873a5c9203d249659c3b317cdad46367472783c81565b61023c61027f366004612497565b60009081526065602052604090206001015490565b6102a76102a23660046124d9565b6105c5565b005b61032f6102b7366004612505565b60408051606080820183526000808352602080840182905292840181905273ffffffffffffffffffffffffffffffffffffffff9490941684526097825292829020825193840183525463ffffffff80821685526401000000008204811692850192909252680100000000000000009004169082015290565b60408051825163ffffffff908116825260208085015182169083015292820151909216908201526060016101c7565b6102a761036c3660046124d9565b6105ef565b61023c7f5ff1fb0ce9089603e6e193667ed17164e0360a6148f4a39fc194055588948a3181565b6102a76103a6366004612520565b6106a7565b6102a76103b9366004612592565b610b3e565b61023c7f794e4221ebb6dd4e460d558b4ec709511d44017d6610ba89daa896c0684ddfac81565b6102a76103f3366004612769565b610c76565b61023c7fbb496ca6fee71a17f78592fbc6fc7f04a436edb9c709c4289d6bbfbc5fd45f4d81565b6101bb61042d3660046124d9565b600091825260656020908152604080842073ffffffffffffffffffffffffffffffffffffffff93909316845291905290205460ff1690565b6102a7610473366004612769565b6110b1565b61023c600081565b61023c7f5a686c9d070917be517818979fb56f451f007e3ae83e96fb5a22a304929b070d81565b61023c6104b5366004612840565b611357565b6102a76104c8366004612520565b6113c5565b6102a76104db366004612592565b61170f565b6102a76104ee3660046124d9565b611b4f565b61023c6105013660046128c4565b611b74565b6102a7610514366004612592565b611be5565b6102a7610527366004612592565b611d19565b60007fffffffff0000000000000000000000000000000000000000000000000000000082167f7965db0b0000000000000000000000000000000000000000000000000000000014806105bf57507f01ffc9a7000000000000000000000000000000000000000000000000000000007fffffffff000000000000000000000000000000000000000000000000000000008316145b92915050565b6000828152606560205260409020600101546105e081611e4d565b6105ea8383611e5a565b505050565b73ffffffffffffffffffffffffffffffffffffffff81163314610699576040517f08c379a000000000000000000000000000000000000000000000000000000000815260206004820152602f60248201527f416363657373436f6e74726f6c3a2063616e206f6e6c792072656e6f756e636560448201527f20726f6c657320666f722073656c66000000000000000000000000000000000060648201526084015b60405180910390fd5b6106a38282611f4e565b5050565b600054610100900460ff16158080156106c75750600054600160ff909116105b806106e15750303b1580156106e1575060005460ff166001145b61076d576040517f08c379a000000000000000000000000000000000000000000000000000000000815260206004820152602e60248201527f496e697469616c697a61626c653a20636f6e747261637420697320616c72656160448201527f647920696e697469616c697a65640000000000000000000000000000000000006064820152608401610690565b600080547fffffffffffffffffffffffffffffffffffffffffffffffffffffffffffffff0016600117905580156107cb57600080547fffffffffffffffffffffffffffffffffffffffffffffffffffffffffffff00ff166101001790555b60006107d9838501856128ee565b805190915073ffffffffffffffffffffffffffffffffffffffff1661085a576040517f08c379a000000000000000000000000000000000000000000000000000000000815260206004820152600960248201527f305f4143434f554e5400000000000000000000000000000000000000000000006044820152606401610690565b610862612009565b61088c7f2d4d1d70bd81797c3479f5c3f873a5c9203d249659c3b317cdad46367472783c806120a2565b6108d67f5ff1fb0ce9089603e6e193667ed17164e0360a6148f4a39fc194055588948a317f2d4d1d70bd81797c3479f5c3f873a5c9203d249659c3b317cdad46367472783c6120a2565b6109007f9d65f741849e7609dd1e2c70f0d7da5f5433b36bfcf3ba4d27d2bb08ad2155b1806120a2565b61094a7f794e4221ebb6dd4e460d558b4ec709511d44017d6610ba89daa896c0684ddfac7f9d65f741849e7609dd1e2c70f0d7da5f5433b36bfcf3ba4d27d2bb08ad2155b16120a2565b6109747fbb496ca6fee71a17f78592fbc6fc7f04a436edb9c709c4289d6bbfbc5fd45f4d806120a2565b6109be7f5a686c9d070917be517818979fb56f451f007e3ae83e96fb5a22a304929b070d7fbb496ca6fee71a17f78592fbc6fc7f04a436edb9c709c4289d6bbfbc5fd45f4d6120a2565b6109ec7f2d4d1d70bd81797c3479f5c3f873a5c9203d249659c3b317cdad46367472783c8260000151611e5a565b610a1a7f9d65f741849e7609dd1e2c70f0d7da5f5433b36bfcf3ba4d27d2bb08ad2155b18260000151611e5a565b610a487fbb496ca6fee71a17f78592fbc6fc7f04a436edb9c709c4289d6bbfbc5fd45f4d8260000151611e5a565b60208181018051609880547fffffffffffffffffffffffff00000000000000000000000000000000000000001673ffffffffffffffffffffffffffffffffffffffff928316179055604080513381528551831694810194909452915116908201527fed00b297c1b136ccaa940038371e3751cf8ca3c2bd51002f9bc4a4ad908441d09060600160405180910390a15080156105ea57600080547fffffffffffffffffffffffffffffffffffffffffffffffffffffffffffff00ff169055604051600181527f7f26b83ff96e1f2b6a682f133852f6798a09c465da95921460cefb38474024989060200160405180910390a1505050565b336000908152609760209081526040918290208251606081018452905463ffffffff8082168352640100000000820481169383019390935268010000000000000000900490911691810191909152610ba190600290610b9d9042611357565b1490565b610c07576040517f08c379a000000000000000000000000000000000000000000000000000000000815260206004820152600d60248201527f4f4e4c595f415050524f564544000000000000000000000000000000000000006044820152606401610690565b60005b818110156105ea577f9def0eb63e24d052c362c931f2ab4c31eda642472ddc393a44484906f374ba4d33848484818110610c4657610c4661292b565b9050602002810190610c58919061295a565b604051610c66929190612998565b60405180910390a1600101610c0a565b7f5ff1fb0ce9089603e6e193667ed17164e0360a6148f4a39fc194055588948a31610ca081611e4d565b60408051606081018252600080825260208201819052918101919091526000835167ffffffffffffffff811115610cd957610cd96125f5565b604051908082528060200260200182016040528015610d02578160200160208202803683370190505b5090506000845167ffffffffffffffff811115610d2157610d216125f5565b604051908082528060200260200182016040528015610d4a578160200160208202803683370190505b50905060008060005b8751811015610f59576000888281518110610d7057610d7061292b565b602090810291909101810151805173ffffffffffffffffffffffffffffffffffffffff166000908152609783526040908190208151606081018352905463ffffffff80821680845264010000000083048216968401969096526801000000000000000090910416918101919091529850915060011115610e3557604080516060808201835260008083526020808401829052928401528251908101835263ffffffff428116825291810182905291820152602080860288010182905296506001909301925b63ffffffff8016876020015163ffffffff1603610f175763ffffffff4281166020808a01918252835173ffffffffffffffffffffffffffffffffffffffff16600090815260979091526040908190208a5181549351928c0151851668010000000000000000027fffffffffffffffffffffffffffffffffffffffff00000000ffffffffffffffff938616640100000000027fffffffffffffffffffffffffffffffffffffffffffffffff000000000000000090951691909516179290921716919091179055610f108582858181602002602001840152505050565b6001909201915b7fd140ad1540fe1b6d943b0509d447b34e0719ff7f9c6175d26a870abc89c9304f3382604051610f48929190612b2b565b60405180910390a150600101610d53565b5060985473ffffffffffffffffffffffffffffffffffffffff1680156110a757821561101057610f8985846120ed565b6040517f89bd6b2600000000000000000000000000000000000000000000000000000000815273ffffffffffffffffffffffffffffffffffffffff8216906389bd6b2690610fdd9033908990600401612b5a565b600060405180830381600087803b158015610ff757600080fd5b505af115801561100b573d6000803e3d6000fd5b505050505b81156110a75761102084836120ed565b6040517f376dcbe200000000000000000000000000000000000000000000000000000000815273ffffffffffffffffffffffffffffffffffffffff82169063376dcbe2906110749033908890600401612b5a565b600060405180830381600087803b15801561108e57600080fd5b505af11580156110a2573d6000803e3d6000fd5b505050505b5050505050505050565b7f794e4221ebb6dd4e460d558b4ec709511d44017d6610ba89daa896c0684ddfac6110db81611e4d565b60408051606081018252600080825260208201819052918101919091526000835167ffffffffffffffff811115611114576111146125f5565b60405190808252806020026020018201604052801561113d578160200160208202803683370190505b5090506000805b85518110156112985760008682815181106111615761116161292b565b60200260200101519050609760008884815181106111815761118161292b565b6020908102919091018101515173ffffffffffffffffffffffffffffffffffffffff1682528181019290925260409081016000208151606081018352905463ffffffff808216808452640100000000830482169584019590955268010000000000000000909104169181019190915295501561125657805173ffffffffffffffffffffffffffffffffffffffff16600090815260976020908152604090912080547fffffffffffffffffffffffffffffffffffffffff0000000000000000000000001690558381028501018190526001909201915b7fb6a0d4e5532c50d585db7a2aeb6d4628467d3c969d491458bb46c3dba33c46da3382604051611287929190612b2b565b60405180910390a150600101611144565b5060985473ffffffffffffffffffffffffffffffffffffffff16801561134f57811561134f576112c883836120ed565b6040517febae2d8c00000000000000000000000000000000000000000000000000000000815273ffffffffffffffffffffffffffffffffffffffff82169063ebae2d8c9061131c9033908790600401612b5a565b600060405180830381600087803b15801561133657600080fd5b505af115801561134a573d6000803e3d6000fd5b505050505b505050505050565b60006001836000015163ffffffff161015611374575060006105bf565b81836040015163ffffffff161161138d575060036105bf565b81836020015163ffffffff16116113a6575060026105bf565b825163ffffffff1682106113bc575060016105bf565b50600092915050565b3360009081526097602090815260408083208151606081018352905463ffffffff80821683526401000000008204811694830194909452680100000000000000009004909216908201529061141a8242611357565b90506002811415801561142e575060038114155b611494576040517f08c379a000000000000000000000000000000000000000000000000000000000815260206004820152600e60248201527f414c52454144595f4558495354530000000000000000000000000000000000006044820152606401610690565b8061156357604080516060808201835260008083526020808401829052928401528251908101835263ffffffff428116825291810182905291820152336000908152609760209081526040918290208351815492850151949093015163ffffffff90811668010000000000000000027fffffffffffffffffffffffffffffffffffffffff00000000ffffffffffffffff958216640100000000027fffffffffffffffffffffffffffffffffffffffffffffffff0000000000000000909416919094161791909117929092161790555b600060405180604001604052803373ffffffffffffffffffffffffffffffffffffffff16815260200186868080601f01602080910402602001604051908101604052809392919081815260200183838082843760009201919091525050509152506040519091507f9def0eb63e24d052c362c931f2ab4c31eda642472ddc393a44484906f374ba4d906115f99033908490612b2b565b60405180910390a160985473ffffffffffffffffffffffffffffffffffffffff16801561134f57604080516001808252818301909252600091816020015b60408051808201909152600081526060602082015281526020019060019003908161163757905050905082816000815181106116755761167561292b565b60209081029190910101526040517f89bd6b2600000000000000000000000000000000000000000000000000000000815273ffffffffffffffffffffffffffffffffffffffff8316906389bd6b26906116d49033908590600401612b5a565b600060405180830381600087803b1580156116ee57600080fd5b505af1158015611702573d6000803e3d6000fd5b5050505050505050505050565b7f5a686c9d070917be517818979fb56f451f007e3ae83e96fb5a22a304929b070d61173981611e4d565b60408051606081018252600080825260208201819052918101829052908367ffffffffffffffff81111561176f5761176f6125f5565b604051908082528060200260200182016040528015611798578160200160208202803683370190505b50905060008467ffffffffffffffff8111156117b6576117b66125f5565b6040519080825280602002602001820160405280156117df578160200160208202803683370190505b50905060008060005b878110156119f65760008989838181106118045761180461292b565b9050602002810190611816919061295a565b61181f90612bf8565b805173ffffffffffffffffffffffffffffffffffffffff166000908152609760209081526040918290208251606081018452905463ffffffff8082168084526401000000008304821694840194909452680100000000000000009091041692810192909252909850909150600111156118dd57604080516060808201835260008083526020808401829052928401528251908101835263ffffffff428116825291810182905291820152602080860288010182905296506001909301925b63ffffffff8016876040015163ffffffff16036119b45763ffffffff4281166040898101918252835173ffffffffffffffffffffffffffffffffffffffff166000908152609760209081529190208a518154838d01519451861668010000000000000000027fffffffffffffffffffffffffffffffffffffffff00000000ffffffffffffffff958716640100000000027fffffffffffffffffffffffffffffffffffffffffffffffff0000000000000000909216929096169190911717929092169290921790558381028601018190526001909201915b7f56ed5bd6a5ed51ea9976f064fa4b26035c05a8d1ef4f4cd92454befc5090e9d233826040516119e5929190612b2b565b60405180910390a1506001016117e8565b5060985473ffffffffffffffffffffffffffffffffffffffff168015611b44578215611aad57611a2685846120ed565b6040517f89bd6b2600000000000000000000000000000000000000000000000000000000815273ffffffffffffffffffffffffffffffffffffffff8216906389bd6b2690611a7a9033908990600401612b5a565b600060405180830381600087803b158015611a9457600080fd5b505af1158015611aa8573d6000803e3d6000fd5b505050505b8115611b4457611abd84836120ed565b6040517f8f6b114600000000000000000000000000000000000000000000000000000000815273ffffffffffffffffffffffffffffffffffffffff821690638f6b114690611b119033908890600401612b5a565b600060405180830381600087803b158015611b2b57600080fd5b505af1158015611b3f573d6000803e3d6000fd5b505050505b505050505050505050565b600082815260656020526040902060010154611b6a81611e4d565b6105ea8383611f4e565b73ffffffffffffffffffffffffffffffffffffffff821660009081526097602090815260408083208151606081018352905463ffffffff8082168352640100000000820481169483019490945268010000000000000000900490921690820152611bde9083611357565b9392505050565b336000908152609760209081526040918290208251606081018452905463ffffffff8082168352640100000000820481169383019390935268010000000000000000900490911691810191909152611c4490600290610b9d9042611357565b611caa576040517f08c379a000000000000000000000000000000000000000000000000000000000815260206004820152600d60248201527f4f4e4c595f415050524f564544000000000000000000000000000000000000006044820152606401610690565b60005b818110156105ea577f9d48392ffd5df4ad821c86aa1f446e2b39cfecb6acd84a5b1dd41e3b4c1defce33848484818110611ce957611ce961292b565b9050602002810190611cfb919061295a565b604051611d09929190612998565b60405180910390a1600101611cad565b336000908152609760209081526040918290208251606081018452905463ffffffff8082168352640100000000820481169383019390935268010000000000000000900490911691810191909152611d7890600290610b9d9042611357565b611dde576040517f08c379a000000000000000000000000000000000000000000000000000000000815260206004820152600d60248201527f4f4e4c595f415050524f564544000000000000000000000000000000000000006044820152606401610690565b60005b818110156105ea577f1b7bdec72dbe138bce2074865e8cf0347693327c317e9c1fdfe914001d48b5d133848484818110611e1d57611e1d61292b565b9050602002810190611e2f919061295a565b604051611e3d929190612998565b60405180910390a1600101611de1565b611e578133612139565b50565b600082815260656020908152604080832073ffffffffffffffffffffffffffffffffffffffff8516845290915290205460ff166106a357600082815260656020908152604080832073ffffffffffffffffffffffffffffffffffffffff85168452909152902080547fffffffffffffffffffffffffffffffffffffffffffffffffffffffffffffff00166001179055611ef03390565b73ffffffffffffffffffffffffffffffffffffffff168173ffffffffffffffffffffffffffffffffffffffff16837f2f8788117e7eff1d82e926ec794901d17c78024a50270940304540a733656f0d60405160405180910390a45050565b600082815260656020908152604080832073ffffffffffffffffffffffffffffffffffffffff8516845290915290205460ff16156106a357600082815260656020908152604080832073ffffffffffffffffffffffffffffffffffffffff8516808552925280832080547fffffffffffffffffffffffffffffffffffffffffffffffffffffffffffffff0016905551339285917ff6391f5c32d9c69d2a47ea670b442974b53935d1edc7fd64eb21e047a839171b9190a45050565b600054610100900460ff166120a0576040517f08c379a000000000000000000000000000000000000000000000000000000000815260206004820152602b60248201527f496e697469616c697a61626c653a20636f6e7472616374206973206e6f74206960448201527f6e697469616c697a696e670000000000000000000000000000000000000000006064820152608401610690565b565b600082815260656020526040808220600101805490849055905190918391839186917fbd79b86ffe0ab8e8776151514217cd7cacd52c909f66475c3af44e129f0b00ff9190a4505050565b81518111156121355781516040517f383f2cc8000000000000000000000000000000000000000000000000000000008152600481019190915260248101829052604401610690565b9052565b600082815260656020908152604080832073ffffffffffffffffffffffffffffffffffffffff8516845290915290205460ff166106a357612179816121f3565b612184836020612212565b604051602001612195929190612c04565b604080517fffffffffffffffffffffffffffffffffffffffffffffffffffffffffffffffe0818403018152908290527f08c379a000000000000000000000000000000000000000000000000000000000825261069091600401612c85565b60606105bf73ffffffffffffffffffffffffffffffffffffffff831660145b60606000612221836002612cc7565b61222c906002612cde565b67ffffffffffffffff811115612244576122446125f5565b6040519080825280601f01601f19166020018201604052801561226e576020820181803683370190505b5090507f3000000000000000000000000000000000000000000000000000000000000000816000815181106122a5576122a561292b565b60200101907effffffffffffffffffffffffffffffffffffffffffffffffffffffffffffff1916908160001a9053507f7800000000000000000000000000000000000000000000000000000000000000816001815181106123085761230861292b565b60200101907effffffffffffffffffffffffffffffffffffffffffffffffffffffffffffff1916908160001a9053506000612344846002612cc7565b61234f906001612cde565b90505b60018111156123ec577f303132333435363738396162636465660000000000000000000000000000000085600f16601081106123905761239061292b565b1a60f81b8282815181106123a6576123a661292b565b60200101907effffffffffffffffffffffffffffffffffffffffffffffffffffffffffffff1916908160001a90535060049490941c936123e581612cf1565b9050612352565b508315611bde576040517f08c379a000000000000000000000000000000000000000000000000000000000815260206004820181905260248201527f537472696e67733a20686578206c656e67746820696e73756666696369656e746044820152606401610690565b60006020828403121561246757600080fd5b81357fffffffff0000000000000000000000000000000000000000000000000000000081168114611bde57600080fd5b6000602082840312156124a957600080fd5b5035919050565b803573ffffffffffffffffffffffffffffffffffffffff811681146124d457600080fd5b919050565b600080604083850312156124ec57600080fd5b823591506124fc602084016124b0565b90509250929050565b60006020828403121561251757600080fd5b611bde826124b0565b6000806020838503121561253357600080fd5b823567ffffffffffffffff8082111561254b57600080fd5b818501915085601f83011261255f57600080fd5b81358181111561256e57600080fd5b86602082850101111561258057600080fd5b60209290920196919550909350505050565b600080602083850312156125a557600080fd5b823567ffffffffffffffff808211156125bd57600080fd5b818501915085601f8301126125d157600080fd5b8135818111156125e057600080fd5b8660208260051b850101111561258057600080fd5b7f4e487b7100000000000000000000000000000000000000000000000000000000600052604160045260246000fd5b6040805190810167ffffffffffffffff81118282101715612647576126476125f5565b60405290565b604051601f82017fffffffffffffffffffffffffffffffffffffffffffffffffffffffffffffffe016810167ffffffffffffffff81118282101715612694576126946125f5565b604052919050565b6000604082840312156126ae57600080fd5b6126b6612624565b90506126c1826124b0565b815260208083013567ffffffffffffffff808211156126df57600080fd5b818501915085601f8301126126f357600080fd5b813581811115612705576127056125f5565b612735847fffffffffffffffffffffffffffffffffffffffffffffffffffffffffffffffe0601f8401160161264d565b9150808252868482850101111561274b57600080fd5b80848401858401376000908201840152918301919091525092915050565b6000602080838503121561277c57600080fd5b823567ffffffffffffffff8082111561279457600080fd5b818501915085601f8301126127a857600080fd5b8135818111156127ba576127ba6125f5565b8060051b6127c985820161264d565b91825283810185019185810190898411156127e357600080fd5b86860192505b8383101561281f578235858111156128015760008081fd5b61280f8b89838a010161269c565b83525091860191908601906127e9565b9998505050505050505050565b803563ffffffff811681146124d457600080fd5b600080828403608081121561285457600080fd5b606081121561286257600080fd5b506040516060810181811067ffffffffffffffff82111715612886576128866125f5565b6040526128928461282c565b81526128a06020850161282c565b60208201526128b16040850161282c565b6040820152946060939093013593505050565b600080604083850312156128d757600080fd5b6128e0836124b0565b946020939093013593505050565b60006040828403121561290057600080fd5b612908612624565b612911836124b0565b815261291f602084016124b0565b60208201529392505050565b7f4e487b7100000000000000000000000000000000000000000000000000000000600052603260045260246000fd5b600082357fffffffffffffffffffffffffffffffffffffffffffffffffffffffffffffffc183360301811261298e57600080fd5b9190910192915050565b600073ffffffffffffffffffffffffffffffffffffffff808516835260406020840152806129c5856124b0565b1660408401525060208301357fffffffffffffffffffffffffffffffffffffffffffffffffffffffffffffffe1843603018112612a0157600080fd5b830160208101903567ffffffffffffffff811115612a1e57600080fd5b803603821315612a2d57600080fd5b60406060850152806080850152808260a0860137600060a0828601015260a07fffffffffffffffffffffffffffffffffffffffffffffffffffffffffffffffe0601f830116850101925050509392505050565b60005b83811015612a9b578181015183820152602001612a83565b50506000910152565b60008151808452612abc816020860160208601612a80565b601f017fffffffffffffffffffffffffffffffffffffffffffffffffffffffffffffffe0169290920160200192915050565b73ffffffffffffffffffffffffffffffffffffffff81511682526000602082015160406020850152612b236040850182612aa4565b949350505050565b73ffffffffffffffffffffffffffffffffffffffff83168152604060208201526000612b236040830184612aee565b60006040820173ffffffffffffffffffffffffffffffffffffffff85168352602060408185015281855180845260608601915060608160051b870101935082870160005b82811015612bea577fffffffffffffffffffffffffffffffffffffffffffffffffffffffffffffffa0888703018452612bd8868351612aee565b95509284019290840190600101612b9e565b509398975050505050505050565b60006105bf368361269c565b7f416363657373436f6e74726f6c3a206163636f756e7420000000000000000000815260008351612c3c816017850160208801612a80565b7f206973206d697373696e6720726f6c65200000000000000000000000000000006017918401918201528351612c79816028840160208801612a80565b01602801949350505050565b602081526000611bde6020830184612aa4565b7f4e487b7100000000000000000000000000000000000000000000000000000000600052601160045260246000fd5b80820281158282048414176105bf576105bf612c98565b808201808211156105bf576105bf612c98565b600081612d0057612d00612c98565b507fffffffffffffffffffffffffffffffffffffffffffffffffffffffffffffffff019056fea2646970667358221220a6a138864b75180b2b1cdb24d4663eb294b6cca4805b59d0a7086bd0106b337a64736f6c63430008130033",
  "linkReferences": {},
  "deployedLinkReferences": {}
}